{
  "contracts/Consensus.sol": {
    "Consensus": {
      "abi": [
        {
          "inputs": [],
          "stateMutability": "nonpayable",
          "type": "constructor"
        },
        {
          "inputs": [
            {
              "internalType": "address",
              "name": "_leader",
              "type": "address"
            },
            {
              "internalType": "uint8",
              "name": "_groupId",
              "type": "uint8"
            }
          ],
          "name": "addLeader",
          "outputs": [],
          "stateMutability": "nonpayable",
          "type": "function"
        },
        {
          "inputs": [
            {
              "internalType": "string",
              "name": "_title",
              "type": "string"
            },
            {
              "internalType": "string",
              "name": "_description",
              "type": "string"
            },
            {
              "internalType": "enum ConsensusLib.Category",
              "name": "_category",
              "type": "uint8"
            },
            {
              "internalType": "uint256",
              "name": "_amount",
              "type": "uint256"
            },
            {
              "internalType": "address",
              "name": "_responsible",
              "type": "address"
            }
          ],
          "name": "addTopic",
          "outputs": [],
          "stateMutability": "nonpayable",
          "type": "function"
        },
        {
          "inputs": [
            {
              "internalType": "string",
              "name": "_title",
              "type": "string"
            }
          ],
          "name": "closeVoting",
          "outputs": [
            {
              "components": [
                {
                  "internalType": "bytes32",
                  "name": "topicId",
                  "type": "bytes32"
                },
                {
                  "internalType": "string",
                  "name": "title",
                  "type": "string"
                },
                {
                  "internalType": "enum ConsensusLib.Status",
                  "name": "status",
                  "type": "uint8"
                },
                {
                  "internalType": "enum ConsensusLib.Category",
                  "name": "category",
                  "type": "uint8"
                }
              ],
              "internalType": "struct ConsensusLib.TopicUpdate",
              "name": "",
              "type": "tuple"
            }
          ],
          "stateMutability": "nonpayable",
          "type": "function"
        },
        {
          "inputs": [
            {
              "internalType": "string",
              "name": "_strA",
              "type": "string"
            },
            {
              "internalType": "string",
              "name": "_strB",
              "type": "string"
            }
          ],
          "name": "compareStrings",
          "outputs": [
            {
              "internalType": "bool",
              "name": "",
              "type": "bool"
            }
          ],
          "stateMutability": "pure",
          "type": "function"
        },
        {
          "inputs": [
            {
              "internalType": "string",
              "name": "_topicToEdit",
              "type": "string"
            },
            {
              "internalType": "string",
              "name": "_description",
              "type": "string"
            },
            {
              "internalType": "uint256",
              "name": "_amount",
              "type": "uint256"
            },
            {
              "internalType": "address",
              "name": "_responsible",
              "type": "address"
            }
          ],
          "name": "editTopic",
          "outputs": [
            {
              "components": [
                {
                  "internalType": "bytes32",
                  "name": "topicId",
                  "type": "bytes32"
                },
                {
                  "internalType": "string",
                  "name": "title",
                  "type": "string"
                },
                {
                  "internalType": "enum ConsensusLib.Status",
                  "name": "status",
                  "type": "uint8"
                },
                {
                  "internalType": "enum ConsensusLib.Category",
                  "name": "category",
                  "type": "uint8"
                }
              ],
              "internalType": "struct ConsensusLib.TopicUpdate",
              "name": "",
              "type": "tuple"
            }
          ],
          "stateMutability": "nonpayable",
          "type": "function"
        },
        {
          "inputs": [],
          "name": "getManager",
          "outputs": [
            {
              "internalType": "address",
              "name": "",
              "type": "address"
            }
          ],
          "stateMutability": "view",
          "type": "function"
        },
        {
          "inputs": [
            {
              "internalType": "uint8",
              "name": "_groupId",
              "type": "uint8"
            }
          ],
          "name": "getPayment",
          "outputs": [
            {
              "internalType": "uint256",
              "name": "",
              "type": "uint256"
            }
          ],
          "stateMutability": "view",
          "type": "function"
        },
        {
          "inputs": [],
          "name": "getQuota",
          "outputs": [
            {
              "internalType": "uint256",
              "name": "",
              "type": "uint256"
            }
          ],
          "stateMutability": "view",
          "type": "function"
        },
        {
          "inputs": [
            {
              "internalType": "string",
              "name": "_title",
              "type": "string"
            }
          ],
          "name": "getTopic",
          "outputs": [
            {
              "components": [
                {
                  "internalType": "string",
                  "name": "title",
                  "type": "string"
                },
                {
                  "internalType": "string",
                  "name": "description",
                  "type": "string"
                },
                {
                  "internalType": "enum ConsensusLib.Status",
                  "name": "status",
                  "type": "uint8"
                },
                {
                  "internalType": "enum ConsensusLib.Category",
                  "name": "category",
                  "type": "uint8"
                },
                {
                  "internalType": "uint256",
                  "name": "amount",
                  "type": "uint256"
                },
                {
                  "internalType": "address",
                  "name": "responsible",
                  "type": "address"
                },
                {
                  "internalType": "uint256",
                  "name": "createdAt",
                  "type": "uint256"
                },
                {
                  "internalType": "uint256",
                  "name": "startDate",
                  "type": "uint256"
                },
                {
                  "internalType": "uint256",
                  "name": "endDate",
                  "type": "uint256"
                }
              ],
              "internalType": "struct ConsensusLib.Topic",
              "name": "",
              "type": "tuple"
            }
          ],
          "stateMutability": "view",
          "type": "function"
        },
        {
          "inputs": [
            {
              "internalType": "uint8",
              "name": "_groupId",
              "type": "uint8"
            }
          ],
          "name": "groupExists",
          "outputs": [
            {
              "internalType": "bool",
              "name": "",
              "type": "bool"
            }
          ],
          "stateMutability": "view",
          "type": "function"
        },
        {
          "inputs": [
            {
              "internalType": "address",
              "name": "_counselor",
              "type": "address"
            }
          ],
          "name": "isCounselor",
          "outputs": [
            {
              "internalType": "bool",
              "name": "",
              "type": "bool"
            }
          ],
          "stateMutability": "view",
          "type": "function"
        },
        {
          "inputs": [
            {
              "internalType": "address",
              "name": "_groupLeader",
              "type": "address"
            }
          ],
          "name": "isLeader",
          "outputs": [
            {
              "internalType": "bool",
              "name": "",
              "type": "bool"
            }
          ],
          "stateMutability": "view",
          "type": "function"
        },
        {
          "inputs": [
            {
              "internalType": "string",
              "name": "_title",
              "type": "string"
            }
          ],
          "name": "numberOfVotes",
          "outputs": [
            {
              "internalType": "uint256",
              "name": "",
              "type": "uint256"
            }
          ],
          "stateMutability": "view",
          "type": "function"
        },
        {
          "inputs": [
            {
              "internalType": "string",
              "name": "_title",
              "type": "string"
            }
          ],
          "name": "openVoting",
          "outputs": [
            {
              "components": [
                {
                  "internalType": "bytes32",
                  "name": "topicId",
                  "type": "bytes32"
                },
                {
                  "internalType": "string",
                  "name": "title",
                  "type": "string"
                },
                {
                  "internalType": "enum ConsensusLib.Status",
                  "name": "status",
                  "type": "uint8"
                },
                {
                  "internalType": "enum ConsensusLib.Category",
                  "name": "category",
                  "type": "uint8"
                }
              ],
              "internalType": "struct ConsensusLib.TopicUpdate",
              "name": "",
              "type": "tuple"
            }
          ],
          "stateMutability": "nonpayable",
          "type": "function"
        },
        {
          "inputs": [
            {
              "internalType": "uint8",
              "name": "_groupId",
              "type": "uint8"
            }
          ],
          "name": "payQuota",
          "outputs": [],
          "stateMutability": "payable",
          "type": "function"
        },
        {
          "inputs": [
            {
              "internalType": "address",
              "name": "_leader",
              "type": "address"
            },
            {
              "internalType": "uint8",
              "name": "_groupId",
              "type": "uint8"
            }
          ],
          "name": "removeLeader",
          "outputs": [],
          "stateMutability": "nonpayable",
          "type": "function"
        },
        {
          "inputs": [
            {
              "internalType": "string",
              "name": "_title",
              "type": "string"
            }
          ],
          "name": "removeTopic",
          "outputs": [
            {
              "components": [
                {
                  "internalType": "bytes32",
                  "name": "topicId",
                  "type": "bytes32"
                },
                {
                  "internalType": "string",
                  "name": "title",
                  "type": "string"
                },
                {
                  "internalType": "enum ConsensusLib.Status",
                  "name": "status",
                  "type": "uint8"
                },
                {
                  "internalType": "enum ConsensusLib.Category",
                  "name": "category",
                  "type": "uint8"
                }
              ],
              "internalType": "struct ConsensusLib.TopicUpdate",
              "name": "",
              "type": "tuple"
            }
          ],
          "stateMutability": "nonpayable",
          "type": "function"
        },
        {
          "inputs": [
            {
              "internalType": "address",
              "name": "_counselor",
              "type": "address"
            },
            {
              "internalType": "bool",
              "name": "_isEntering",
              "type": "bool"
            }
          ],
          "name": "setCounselor",
          "outputs": [],
          "stateMutability": "nonpayable",
          "type": "function"
        },
        {
          "inputs": [
            {
              "internalType": "address",
              "name": "_newManager",
              "type": "address"
            }
          ],
          "name": "setManager",
          "outputs": [],
          "stateMutability": "nonpayable",
          "type": "function"
        },
        {
          "inputs": [
            {
              "internalType": "string",
              "name": "_title",
              "type": "string"
            }
          ],
          "name": "topicExists",
          "outputs": [
            {
              "internalType": "bool",
              "name": "",
              "type": "bool"
            }
          ],
          "stateMutability": "view",
          "type": "function"
        },
        {
          "inputs": [
            {
              "internalType": "string",
              "name": "_topicTitle",
              "type": "string"
            },
            {
              "internalType": "uint256",
              "name": "_amount",
              "type": "uint256"
            }
          ],
          "name": "transfer",
          "outputs": [
            {
              "components": [
                {
                  "internalType": "address",
                  "name": "to",
                  "type": "address"
                },
                {
                  "internalType": "uint256",
                  "name": "amount",
                  "type": "uint256"
                },
                {
                  "internalType": "string",
                  "name": "topic",
                  "type": "string"
                }
              ],
              "internalType": "struct ConsensusLib.TransferReceipt",
              "name": "",
              "type": "tuple"
            }
          ],
          "stateMutability": "nonpayable",
          "type": "function"
        },
        {
          "inputs": [
            {
              "internalType": "string",
              "name": "_title",
              "type": "string"
            },
            {
              "internalType": "enum ConsensusLib.Options",
              "name": "_option",
              "type": "uint8"
            }
          ],
          "name": "vote",
          "outputs": [],
          "stateMutability": "nonpayable",
          "type": "function"
        }
      ],
      "evm": {
        "bytecode": {
          "linkReferences": {},
          "object": "6080604052662386f26fc1000060015534801561001b57600080fd5b50336000806101000a81548173ffffffffffffffffffffffffffffffffffffffff021916908373ffffffffffffffffffffffffffffffffffffffff1602179055506000600190505b60328160ff16116100b3576001600460008360ff1660ff16815260200190815260200160002060006101000a81548160ff02191690831515021790555080806100ab906100f5565b915050610063565b5061011e565b7f4e487b7100000000000000000000000000000000000000000000000000000000600052601160045260246000fd5b600060ff82169050919050565b6000610100826100e8565b915060ff8203610113576101126100b9565b5b600182019050919050565b614bed8061012d6000396000f3fe6080604052600436106101355760003560e01c80638fc5dad8116100ab578063c080845c1161006f578063c080845c14610494578063d0ebdbe7146104d1578063d5009584146104fa578063db512e8514610525578063e179d5fe14610562578063eaf5d9dc1461057e57610135565b80638fc5dad81461038b57806390ca27f3146103c857806396fa1def146103f15780639e1bf9851461041a578063bed34bba1461045757610135565b806343b8c6b1116100fd57806343b8c6b114610259578063467267ee14610282578063474502d8146102ab5780634816a0f3146102e857806378b5749d146103115780637b57ee491461034e57610135565b8063065ab6d61461013a57806312cb70c7146101775780631df8ba77146101b4578063270a2341146101df5780632f9f21fe1461021c575b600080fd5b34801561014657600080fd5b50610161600480360381019061015c919061313a565b6105bb565b60405161016e9190613182565b60405180910390f35b34801561018357600080fd5b5061019e60048036038101906101999190613319565b610611565b6040516101ab9190613462565b60405180910390f35b3480156101c057600080fd5b506101c96108fa565b6040516101d69190613493565b60405180910390f35b3480156101eb57600080fd5b50610206600480360381019061020191906134e7565b610904565b6040516102139190613182565b60405180910390f35b34801561022857600080fd5b50610243600480360381019061023e9190613514565b610934565b6040516102509190613493565b60405180910390f35b34801561026557600080fd5b50610280600480360381019061027b9190613582565b610960565b005b34801561028e57600080fd5b506102a960048036038101906102a49190613635565b610dd4565b005b3480156102b757600080fd5b506102d260048036038101906102cd9190613514565b610fcb565b6040516102df9190613800565b60405180910390f35b3480156102f457600080fd5b5061030f600480360381019061030a9190613635565b61121e565b005b34801561031d57600080fd5b5061033860048036038101906103339190613514565b6113ed565b6040516103459190613182565b60405180910390f35b34801561035a57600080fd5b5061037560048036038101906103709190613514565b611405565b604051610382919061389e565b60405180910390f35b34801561039757600080fd5b506103b260048036038101906103ad9190613514565b61165e565b6040516103bf919061389e565b60405180910390f35b3480156103d457600080fd5b506103ef60048036038101906103ea91906138e5565b611c70565b005b3480156103fd57600080fd5b506104186004803603810190610413919061396d565b6122a2565b005b34801561042657600080fd5b50610441600480360381019061043c9190613514565b612531565b60405161044e919061389e565b60405180910390f35b34801561046357600080fd5b5061047e600480360381019061047991906139ad565b612740565b60405161048b9190613182565b60405180910390f35b3480156104a057600080fd5b506104bb60048036038101906104b691906134e7565b61275b565b6040516104c89190613493565b60405180910390f35b3480156104dd57600080fd5b506104f860048036038101906104f3919061313a565b612822565b005b34801561050657600080fd5b5061050f612a61565b60405161051c9190613a34565b60405180910390f35b34801561053157600080fd5b5061054c6004803603810190610547919061313a565b612a8a565b6040516105599190613182565b60405180910390f35b61057c600480360381019061057791906134e7565b612ae5565b005b34801561058a57600080fd5b506105a560048036038101906105a09190613a4f565b612bfb565b6040516105b2919061389e565b60405180910390f35b6000600260008373ffffffffffffffffffffffffffffffffffffffff1673ffffffffffffffffffffffffffffffffffffffff16815260200190815260200160002060009054906101000a900460ff169050919050565b610619612f5f565b60008054906101000a900473ffffffffffffffffffffffffffffffffffffffff1673ffffffffffffffffffffffffffffffffffffffff163273ffffffffffffffffffffffffffffffffffffffff16146106a7576040517f08c379a000000000000000000000000000000000000000000000000000000000815260040161069e90613b71565b60405180910390fd5b6106b0836113ed565b6106ef576040517f08c379a00000000000000000000000000000000000000000000000000000000081526004016106e690613bdd565b60405180910390fd5b81471015610732576040517f08c379a000000000000000000000000000000000000000000000000000000000815260040161072990613c49565b60405180910390fd5b600061073d84610fcb565b90506002600581111561075357610752613675565b5b8160400151600581111561076a57610769613675565b5b14801561079f57506001600381111561078657610785613675565b5b8160600151600381111561079d5761079c613675565b5b145b6107de576040517f08c379a00000000000000000000000000000000000000000000000000000000081526004016107d590613cdb565b60405180910390fd5b8281608001511015610825576040517f08c379a000000000000000000000000000000000000000000000000000000000815260040161081c90613c49565b60405180910390fd5b8060a0015173ffffffffffffffffffffffffffffffffffffffff166108fc849081150290604051600060405180830381858888f1935050505015801561086f573d6000803e3d6000fd5b5060008480519060200120905060046005600083815260200190815260200160002060020160006101000a81548160ff021916908360058111156108b6576108b5613675565b5b021790555060405180606001604052808360a0015173ffffffffffffffffffffffffffffffffffffffff168152602001858152602001868152509250505092915050565b6000600154905090565b6000600460008360ff1660ff16815260200190815260200160002060009054906101000a900460ff169050919050565b600080828051906020012090506006600082815260200190815260200160002080549050915050919050565b60008054906101000a900473ffffffffffffffffffffffffffffffffffffffff1673ffffffffffffffffffffffffffffffffffffffff163273ffffffffffffffffffffffffffffffffffffffff1614806109bf57506109be32612a8a565b5b6109fe576040517f08c379a00000000000000000000000000000000000000000000000000000000081526004016109f590613d6d565b60405180910390fd5b60008054906101000a900473ffffffffffffffffffffffffffffffffffffffff1673ffffffffffffffffffffffffffffffffffffffff163273ffffffffffffffffffffffffffffffffffffffff161480610aca575062278d0060076000600360003273ffffffffffffffffffffffffffffffffffffffff1673ffffffffffffffffffffffffffffffffffffffff16815260200190815260200160002060009054906101000a900460ff1660ff1660ff16815260200190815260200160002054610ac79190613dbc565b42105b610b09576040517f08c379a0000000000000000000000000000000000000000000000000000000008152600401610b0090613e3c565b60405180910390fd5b610b12856113ed565b15610b52576040517f08c379a0000000000000000000000000000000000000000000000000000000008152600401610b4990613ea8565b60405180910390fd5b6000821115610bf25760016003811115610b6f57610b6e613675565b5b836003811115610b8257610b81613675565b5b1480610bb2575060026003811115610b9d57610b9c613675565b5b836003811115610bb057610baf613675565b5b145b610bf1576040517f08c379a0000000000000000000000000000000000000000000000000000000008152600401610be890613f3a565b60405180910390fd5b5b600060405180610120016040528087815260200186815260200160006005811115610c2057610c1f613675565b5b8152602001856003811115610c3857610c37613675565b5b8152602001848152602001600073ffffffffffffffffffffffffffffffffffffffff168473ffffffffffffffffffffffffffffffffffffffff1603610c7d5732610c7f565b835b73ffffffffffffffffffffffffffffffffffffffff1681526020014281526020016000815260200160008152509050806005600083600001518051906020012081526020019081526020016000206000820151816000019081610ce29190614166565b506020820151816001019081610cf89190614166565b5060408201518160020160006101000a81548160ff02191690836005811115610d2457610d23613675565b5b021790555060608201518160020160016101000a81548160ff02191690836003811115610d5457610d53613675565b5b02179055506080820151816003015560a08201518160040160006101000a81548173ffffffffffffffffffffffffffffffffffffffff021916908373ffffffffffffffffffffffffffffffffffffffff16021790555060c0820151816005015560e082015181600601556101008201518160070155905050505050505050565b60008054906101000a900473ffffffffffffffffffffffffffffffffffffffff1673ffffffffffffffffffffffffffffffffffffffff163273ffffffffffffffffffffffffffffffffffffffff161480610e775750600260003273ffffffffffffffffffffffffffffffffffffffff1673ffffffffffffffffffffffffffffffffffffffff16815260200190815260200160002060009054906101000a900460ff165b610eb6576040517f08c379a0000000000000000000000000000000000000000000000000000000008152600401610ead906142aa565b60405180910390fd5b81600073ffffffffffffffffffffffffffffffffffffffff168173ffffffffffffffffffffffffffffffffffffffff1603610f26576040517f08c379a0000000000000000000000000000000000000000000000000000000008152600401610f1d90614316565b60405180910390fd5b610f2f82610904565b610f6e576040517f08c379a0000000000000000000000000000000000000000000000000000000008152600401610f6590614382565b60405180910390fd5b81600360008573ffffffffffffffffffffffffffffffffffffffff1673ffffffffffffffffffffffffffffffffffffffff16815260200190815260200160002060006101000a81548160ff021916908360ff160217905550505050565b610fd3612f96565b600082805190602001209050600560008281526020019081526020016000206040518061012001604052908160008201805461100e90613f89565b80601f016020809104026020016040519081016040528092919081815260200182805461103a90613f89565b80156110875780601f1061105c57610100808354040283529160200191611087565b820191906000526020600020905b81548152906001019060200180831161106a57829003601f168201915b505050505081526020016001820180546110a090613f89565b80601f01602080910402602001604051908101604052809291908181526020018280546110cc90613f89565b80156111195780601f106110ee57610100808354040283529160200191611119565b820191906000526020600020905b8154815290600101906020018083116110fc57829003601f168201915b505050505081526020016002820160009054906101000a900460ff16600581111561114757611146613675565b5b600581111561115957611158613675565b5b81526020016002820160019054906101000a900460ff16600381111561118257611181613675565b5b600381111561119457611193613675565b5b8152602001600382015481526020016004820160009054906101000a900473ffffffffffffffffffffffffffffffffffffffff1673ffffffffffffffffffffffffffffffffffffffff1673ffffffffffffffffffffffffffffffffffffffff1681526020016005820154815260200160068201548152602001600782015481525050915050919050565b60008054906101000a900473ffffffffffffffffffffffffffffffffffffffff1673ffffffffffffffffffffffffffffffffffffffff163273ffffffffffffffffffffffffffffffffffffffff16146112ac576040517f08c379a00000000000000000000000000000000000000000000000000000000081526004016112a390613b71565b60405180910390fd5b6112b581610904565b6112f4576040517f08c379a00000000000000000000000000000000000000000000000000000000081526004016112eb90614382565b60405180910390fd5b6112fd82612a8a565b61133c576040517f08c379a0000000000000000000000000000000000000000000000000000000008152600401611333906143ee565b60405180910390fd5b600360008373ffffffffffffffffffffffffffffffffffffffff1673ffffffffffffffffffffffffffffffffffffffff16815260200190815260200160002060006101000a81549060ff0219169055611394826105bb565b156113e957600260008373ffffffffffffffffffffffffffffffffffffffff1673ffffffffffffffffffffffffffffffffffffffff16815260200190815260200160002060006101000a81549060ff02191690555b5050565b6000806113f983610fcb565b60c00151119050919050565b61140d61301c565b60008054906101000a900473ffffffffffffffffffffffffffffffffffffffff1673ffffffffffffffffffffffffffffffffffffffff163273ffffffffffffffffffffffffffffffffffffffff161461149b576040517f08c379a000000000000000000000000000000000000000000000000000000000815260040161149290613b71565b60405180910390fd5b6114a4826113ed565b6114e3576040517f08c379a00000000000000000000000000000000000000000000000000000000081526004016114da90613bdd565b60405180910390fd5b60006114ee83610fcb565b90506000600581111561150457611503613675565b5b8160400151600581111561151b5761151a613675565b5b1461155b576040517f08c379a00000000000000000000000000000000000000000000000000000000081526004016115529061445a565b60405180910390fd5b600083805190602001209050600560008281526020019081526020016000206000808201600061158b919061306b565b60018201600061159b919061306b565b6002820160006101000a81549060ff02191690556002820160016101000a81549060ff021916905560038201600090556004820160006101000a81549073ffffffffffffffffffffffffffffffffffffffff02191690556005820160009055600682016000905560078201600090555050604051806080016040528082815260200185815260200160058081111561163657611635613675565b5b81526020018360600151600381111561165257611651613675565b5b81525092505050919050565b61166661301c565b60008054906101000a900473ffffffffffffffffffffffffffffffffffffffff1673ffffffffffffffffffffffffffffffffffffffff163273ffffffffffffffffffffffffffffffffffffffff16146116f4576040517f08c379a00000000000000000000000000000000000000000000000000000000081526004016116eb90613b71565b60405180910390fd5b60006116ff83610fcb565b905060008160c0015111611748576040517f08c379a000000000000000000000000000000000000000000000000000000000815260040161173f90613bdd565b60405180910390fd5b6001600581111561175c5761175b613675565b5b8160400151600581111561177357611772613675565b5b146117b3576040517f08c379a00000000000000000000000000000000000000000000000000000000081526004016117aa906144c6565b60405180910390fd5b600060039050600160038111156117cd576117cc613675565b5b826060015160038111156117e4576117e3613675565b5b036117f25760099050611861565b6002600381111561180657611805613675565b5b8260600151600381111561181d5761181c613675565b5b0361182b57600c9050611860565b60038081111561183e5761183d613675565b5b8260600151600381111561185557611854613675565b5b0361185f57601290505b5b5b8060ff1661186e85610934565b10156118af576040517f08c379a00000000000000000000000000000000000000000000000000000000081526004016118a690614558565b60405180910390fd5b60008060008087805190602001209050600060066000838152602001908152602001600020805480602002602001604051908101604052809291908181526020016000905b828210156119de57838290600052602060002090600202016040518060800160405290816000820160009054906101000a900473ffffffffffffffffffffffffffffffffffffffff1673ffffffffffffffffffffffffffffffffffffffff1673ffffffffffffffffffffffffffffffffffffffff1681526020016000820160149054906101000a900460ff1660ff1660ff1681526020016000820160159054906101000a900460ff1660038111156119af576119ae613675565b5b60038111156119c1576119c0613675565b5b8152602001600182015481525050815260200190600101906118f4565b50505050905060005b8151811015611ac75760016003811115611a0457611a03613675565b5b828281518110611a1757611a16614578565b5b6020026020010151604001516003811115611a3557611a34613675565b5b03611a4d578580611a45906145a7565b965050611aba565b60026003811115611a6157611a60613675565b5b828281518110611a7457611a73614578565b5b6020026020010151604001516003811115611a9257611a91613675565b5b03611aaa578480611aa2906145a7565b955050611ab9565b8380611ab5906145a7565b9450505b5b80806001019150506119e7565b506000848611611ad8576003611adb565b60025b9050806005600085815260200190815260200160002060020160006101000a81548160ff02191690836005811115611b1657611b15613675565b5b021790555042600560008581526020019081526020016000206007018190555060026005811115611b4a57611b49613675565b5b816005811115611b5d57611b5c613675565b5b03611c185760026003811115611b7657611b75613675565b5b88606001516003811115611b8d57611b8c613675565b5b03611ba2578760800151600181905550611c17565b600380811115611bb557611bb4613675565b5b88606001516003811115611bcc57611bcb613675565b5b03611c16578760a001516000806101000a81548173ffffffffffffffffffffffffffffffffffffffff021916908373ffffffffffffffffffffffffffffffffffffffff1602179055505b5b5b60405180608001604052808481526020018b8152602001826005811115611c4257611c41613675565b5b815260200189606001516003811115611c5e57611c5d613675565b5b81525098505050505050505050919050565b60008054906101000a900473ffffffffffffffffffffffffffffffffffffffff1673ffffffffffffffffffffffffffffffffffffffff163273ffffffffffffffffffffffffffffffffffffffff161480611ccf5750611cce32612a8a565b5b611d0e576040517f08c379a0000000000000000000000000000000000000000000000000000000008152600401611d0590613d6d565b60405180910390fd5b60008054906101000a900473ffffffffffffffffffffffffffffffffffffffff1673ffffffffffffffffffffffffffffffffffffffff163273ffffffffffffffffffffffffffffffffffffffff161480611dda575062278d0060076000600360003273ffffffffffffffffffffffffffffffffffffffff1673ffffffffffffffffffffffffffffffffffffffff16815260200190815260200160002060009054906101000a900460ff1660ff1660ff16815260200190815260200160002054611dd79190613dbc565b42105b611e19576040517f08c379a0000000000000000000000000000000000000000000000000000000008152600401611e1090613e3c565b60405180910390fd5b611e22826113ed565b611e61576040517f08c379a0000000000000000000000000000000000000000000000000000000008152600401611e5890613bdd565b60405180910390fd5b60006003811115611e7557611e74613675565b5b816003811115611e8857611e87613675565b5b03611ec8576040517f08c379a0000000000000000000000000000000000000000000000000000000008152600401611ebf9061463b565b60405180910390fd5b6000611ed383610fcb565b905060016005811115611ee957611ee8613675565b5b81604001516005811115611f0057611eff613675565b5b14611f40576040517f08c379a0000000000000000000000000000000000000000000000000000000008152600401611f37906146a7565b60405180910390fd5b6000600360003273ffffffffffffffffffffffffffffffffffffffff1673ffffffffffffffffffffffffffffffffffffffff16815260200190815260200160002060009054906101000a900460ff169050600084805190602001209050600060066000838152602001908152602001600020805480602002602001604051908101604052809291908181526020016000905b828210156120bc57838290600052602060002090600202016040518060800160405290816000820160009054906101000a900473ffffffffffffffffffffffffffffffffffffffff1673ffffffffffffffffffffffffffffffffffffffff1673ffffffffffffffffffffffffffffffffffffffff1681526020016000820160149054906101000a900460ff1660ff1660ff1681526020016000820160159054906101000a900460ff16600381111561208d5761208c613675565b5b600381111561209f5761209e613675565b5b815260200160018201548152505081526020019060010190611fd2565b50505050905060005b8151811015612167573273ffffffffffffffffffffffffffffffffffffffff168282815181106120f8576120f7614578565b5b60200260200101516000015173ffffffffffffffffffffffffffffffffffffffff160361215a576040517f08c379a000000000000000000000000000000000000000000000000000000000815260040161215190614713565b60405180910390fd5b80806001019150506120c5565b50600060405180608001604052803273ffffffffffffffffffffffffffffffffffffffff1681526020018560ff1681526020018760038111156121ad576121ac613675565b5b81526020014281525090506006600084815260200190815260200160002081908060018154018082558091505060019003906000526020600020906002020160009091909190915060008201518160000160006101000a81548173ffffffffffffffffffffffffffffffffffffffff021916908373ffffffffffffffffffffffffffffffffffffffff16021790555060208201518160000160146101000a81548160ff021916908360ff16021790555060408201518160000160156101000a81548160ff0219169083600381111561228857612287613675565b5b021790555060608201518160010155505050505050505050565b60008054906101000a900473ffffffffffffffffffffffffffffffffffffffff1673ffffffffffffffffffffffffffffffffffffffff163273ffffffffffffffffffffffffffffffffffffffff1614612330576040517f08c379a000000000000000000000000000000000000000000000000000000000815260040161232790613b71565b60405180910390fd5b81600073ffffffffffffffffffffffffffffffffffffffff168173ffffffffffffffffffffffffffffffffffffffff16036123a0576040517f08c379a000000000000000000000000000000000000000000000000000000000815260040161239790614316565b60405180910390fd5b8115612494576123af836105bb565b156123ef576040517f08c379a00000000000000000000000000000000000000000000000000000000081526004016123e69061477f565b60405180910390fd5b6123f883612a8a565b612437576040517f08c379a000000000000000000000000000000000000000000000000000000000815260040161242e906147eb565b60405180910390fd5b6001600260008573ffffffffffffffffffffffffffffffffffffffff1673ffffffffffffffffffffffffffffffffffffffff16815260200190815260200160002060006101000a81548160ff02191690831515021790555061252c565b61249d836105bb565b6124dc576040517f08c379a00000000000000000000000000000000000000000000000000000000081526004016124d390614857565b60405180910390fd5b600260008473ffffffffffffffffffffffffffffffffffffffff1673ffffffffffffffffffffffffffffffffffffffff16815260200190815260200160002060006101000a81549060ff02191690555b505050565b61253961301c565b60008054906101000a900473ffffffffffffffffffffffffffffffffffffffff1673ffffffffffffffffffffffffffffffffffffffff163273ffffffffffffffffffffffffffffffffffffffff16146125c7576040517f08c379a00000000000000000000000000000000000000000000000000000000081526004016125be90613b71565b60405180910390fd5b6125d0826113ed565b61260f576040517f08c379a000000000000000000000000000000000000000000000000000000000815260040161260690613bdd565b60405180910390fd5b600061261a83610fcb565b9050600060058111156126305761262f613675565b5b8160400151600581111561264757612646613675565b5b14612687576040517f08c379a000000000000000000000000000000000000000000000000000000000815260040161267e906148e9565b60405180910390fd5b60008380519060200120905060016005600083815260200190815260200160002060020160006101000a81548160ff021916908360058111156126cd576126cc613675565b5b021790555042600560008381526020019081526020016000206006018190555060405180608001604052808281526020018581526020016001600581111561271857612717613675565b5b81526020018360600151600381111561273457612733613675565b5b81525092505050919050565b60008180519060200120838051906020012014905092915050565b600061276682610904565b6127a5576040517f08c379a000000000000000000000000000000000000000000000000000000000815260040161279c90614382565b60405180910390fd5b6000600760008460ff1660ff1681526020019081526020016000205411612801576040517f08c379a00000000000000000000000000000000000000000000000000000000081526004016127f890614955565b60405180910390fd5b600760008360ff1660ff168152602001908152602001600020549050919050565b60008054906101000a900473ffffffffffffffffffffffffffffffffffffffff1673ffffffffffffffffffffffffffffffffffffffff163273ffffffffffffffffffffffffffffffffffffffff16146128b0576040517f08c379a00000000000000000000000000000000000000000000000000000000081526004016128a790613b71565b60405180910390fd5b80600073ffffffffffffffffffffffffffffffffffffffff168173ffffffffffffffffffffffffffffffffffffffff1603612920576040517f08c379a000000000000000000000000000000000000000000000000000000000815260040161291790614316565b60405180910390fd5b600073ffffffffffffffffffffffffffffffffffffffff168273ffffffffffffffffffffffffffffffffffffffff160361298f576040517f08c379a000000000000000000000000000000000000000000000000000000000815260040161298690614316565b60405180910390fd5b60008054906101000a900473ffffffffffffffffffffffffffffffffffffffff1673ffffffffffffffffffffffffffffffffffffffff168273ffffffffffffffffffffffffffffffffffffffff1603612a1d576040517f08c379a0000000000000000000000000000000000000000000000000000000008152600401612a14906149e7565b60405180910390fd5b816000806101000a81548173ffffffffffffffffffffffffffffffffffffffff021916908373ffffffffffffffffffffffffffffffffffffffff1602179055505050565b60008060009054906101000a900473ffffffffffffffffffffffffffffffffffffffff16905090565b600080600360008473ffffffffffffffffffffffffffffffffffffffff1673ffffffffffffffffffffffffffffffffffffffff16815260200190815260200160002060009054906101000a900460ff1660ff16119050919050565b612aee81610904565b612b2d576040517f08c379a0000000000000000000000000000000000000000000000000000000008152600401612b2490614382565b60405180910390fd5b6001543414612b71576040517f08c379a0000000000000000000000000000000000000000000000000000000008152600401612b6890614a53565b60405180910390fd5b62278d00600760008360ff1660ff16815260200190815260200160002054612b999190613dbc565b4211612bda576040517f08c379a0000000000000000000000000000000000000000000000000000000008152600401612bd190614abf565b60405180910390fd5b42600760008360ff1660ff1681526020019081526020016000208190555050565b612c0361301c565b60008054906101000a900473ffffffffffffffffffffffffffffffffffffffff1673ffffffffffffffffffffffffffffffffffffffff163273ffffffffffffffffffffffffffffffffffffffff1614612c91576040517f08c379a0000000000000000000000000000000000000000000000000000000008152600401612c8890613b71565b60405180910390fd5b612c9a856113ed565b612cd9576040517f08c379a0000000000000000000000000000000000000000000000000000000008152600401612cd090613bdd565b60405180910390fd5b6000612ce486610fcb565b905060006005811115612cfa57612cf9613675565b5b81604001516005811115612d1157612d10613675565b5b14612d51576040517f08c379a0000000000000000000000000000000000000000000000000000000008152600401612d4890614b2b565b60405180910390fd5b6000808651118015612d6e5750612d6c868360200151612740565b155b90506000808610158015612d86575082608001518614155b905060008073ffffffffffffffffffffffffffffffffffffffff168673ffffffffffffffffffffffffffffffffffffffff1614158015612df657508360a0015173ffffffffffffffffffffffffffffffffffffffff168673ffffffffffffffffffffffffffffffffffffffff1614155b905060008380612e035750825b80612e0b5750815b905080612e4d576040517f08c379a0000000000000000000000000000000000000000000000000000000008152600401612e4490614b97565b60405180910390fd5b60008a8051906020012090508415612e845789600560008381526020019081526020016000206001019081612e829190614166565b505b8315612ea6578860056000838152602001908152602001600020600301819055505b8215612f0257876005600083815260200190815260200160002060040160006101000a81548173ffffffffffffffffffffffffffffffffffffffff021916908373ffffffffffffffffffffffffffffffffffffffff1602179055505b60405180608001604052808281526020018c815260200187604001516005811115612f3057612f2f613675565b5b815260200187606001516003811115612f4c57612f4b613675565b5b8152509650505050505050949350505050565b6040518060600160405280600073ffffffffffffffffffffffffffffffffffffffff16815260200160008152602001606081525090565b604051806101200160405280606081526020016060815260200160006005811115612fc457612fc3613675565b5b815260200160006003811115612fdd57612fdc613675565b5b815260200160008152602001600073ffffffffffffffffffffffffffffffffffffffff1681526020016000815260200160008152602001600081525090565b604051806080016040528060008019168152602001606081526020016000600581111561304c5761304b613675565b5b81526020016000600381111561306557613064613675565b5b81525090565b50805461307790613f89565b6000825580601f1061308957506130a8565b601f0160209004906000526020600020908101906130a791906130ab565b5b50565b5b808211156130c45760008160009055506001016130ac565b5090565b6000604051905090565b600080fd5b600080fd5b600073ffffffffffffffffffffffffffffffffffffffff82169050919050565b6000613107826130dc565b9050919050565b613117816130fc565b811461312257600080fd5b50565b6000813590506131348161310e565b92915050565b6000602082840312156131505761314f6130d2565b5b600061315e84828501613125565b91505092915050565b60008115159050919050565b61317c81613167565b82525050565b60006020820190506131976000830184613173565b92915050565b600080fd5b600080fd5b6000601f19601f8301169050919050565b7f4e487b7100000000000000000000000000000000000000000000000000000000600052604160045260246000fd5b6131f0826131a7565b810181811067ffffffffffffffff8211171561320f5761320e6131b8565b5b80604052505050565b60006132226130c8565b905061322e82826131e7565b919050565b600067ffffffffffffffff82111561324e5761324d6131b8565b5b613257826131a7565b9050602081019050919050565b82818337600083830152505050565b600061328661328184613233565b613218565b9050828152602081018484840111156132a2576132a16131a2565b5b6132ad848285613264565b509392505050565b600082601f8301126132ca576132c961319d565b5b81356132da848260208601613273565b91505092915050565b6000819050919050565b6132f6816132e3565b811461330157600080fd5b50565b600081359050613313816132ed565b92915050565b600080604083850312156133305761332f6130d2565b5b600083013567ffffffffffffffff81111561334e5761334d6130d7565b5b61335a858286016132b5565b925050602061336b85828601613304565b9150509250929050565b61337e816130fc565b82525050565b61338d816132e3565b82525050565b600081519050919050565b600082825260208201905092915050565b60005b838110156133cd5780820151818401526020810190506133b2565b60008484015250505050565b60006133e482613393565b6133ee818561339e565b93506133fe8185602086016133af565b613407816131a7565b840191505092915050565b600060608301600083015161342a6000860182613375565b50602083015161343d6020860182613384565b506040830151848203604086015261345582826133d9565b9150508091505092915050565b6000602082019050818103600083015261347c8184613412565b905092915050565b61348d816132e3565b82525050565b60006020820190506134a86000830184613484565b92915050565b600060ff82169050919050565b6134c4816134ae565b81146134cf57600080fd5b50565b6000813590506134e1816134bb565b92915050565b6000602082840312156134fd576134fc6130d2565b5b600061350b848285016134d2565b91505092915050565b60006020828403121561352a576135296130d2565b5b600082013567ffffffffffffffff811115613548576135476130d7565b5b613554848285016132b5565b91505092915050565b6004811061356a57600080fd5b50565b60008135905061357c8161355d565b92915050565b600080600080600060a0868803121561359e5761359d6130d2565b5b600086013567ffffffffffffffff8111156135bc576135bb6130d7565b5b6135c8888289016132b5565b955050602086013567ffffffffffffffff8111156135e9576135e86130d7565b5b6135f5888289016132b5565b94505060406136068882890161356d565b935050606061361788828901613304565b925050608061362888828901613125565b9150509295509295909350565b6000806040838503121561364c5761364b6130d2565b5b600061365a85828601613125565b925050602061366b858286016134d2565b9150509250929050565b7f4e487b7100000000000000000000000000000000000000000000000000000000600052602160045260246000fd5b600681106136b5576136b4613675565b5b50565b60008190506136c6826136a4565b919050565b60006136d6826136b8565b9050919050565b6136e6816136cb565b82525050565b600481106136fd576136fc613675565b5b50565b600081905061370e826136ec565b919050565b600061371e82613700565b9050919050565b61372e81613713565b82525050565b600061012083016000830151848203600086015261375282826133d9565b9150506020830151848203602086015261376c82826133d9565b915050604083015161378160408601826136dd565b5060608301516137946060860182613725565b5060808301516137a76080860182613384565b5060a08301516137ba60a0860182613375565b5060c08301516137cd60c0860182613384565b5060e08301516137e060e0860182613384565b506101008301516137f5610100860182613384565b508091505092915050565b6000602082019050818103600083015261381a8184613734565b905092915050565b6000819050919050565b61383581613822565b82525050565b6000608083016000830151613853600086018261382c565b506020830151848203602086015261386b82826133d9565b915050604083015161388060408601826136dd565b5060608301516138936060860182613725565b508091505092915050565b600060208201905081810360008301526138b8818461383b565b905092915050565b600481106138cd57600080fd5b50565b6000813590506138df816138c0565b92915050565b600080604083850312156138fc576138fb6130d2565b5b600083013567ffffffffffffffff81111561391a576139196130d7565b5b613926858286016132b5565b9250506020613937858286016138d0565b9150509250929050565b61394a81613167565b811461395557600080fd5b50565b60008135905061396781613941565b92915050565b60008060408385031215613984576139836130d2565b5b600061399285828601613125565b92505060206139a385828601613958565b9150509250929050565b600080604083850312156139c4576139c36130d2565b5b600083013567ffffffffffffffff8111156139e2576139e16130d7565b5b6139ee858286016132b5565b925050602083013567ffffffffffffffff811115613a0f57613a0e6130d7565b5b613a1b858286016132b5565b9150509250929050565b613a2e816130fc565b82525050565b6000602082019050613a496000830184613a25565b92915050565b60008060008060808587031215613a6957613a686130d2565b5b600085013567ffffffffffffffff811115613a8757613a866130d7565b5b613a93878288016132b5565b945050602085013567ffffffffffffffff811115613ab457613ab36130d7565b5b613ac0878288016132b5565b9350506040613ad187828801613304565b9250506060613ae287828801613125565b91505092959194509250565b600082825260208201905092915050565b7f4f6e6c7920746865206d616e616765722063616e2063616c6c2074686973206660008201527f756e6374696f6e00000000000000000000000000000000000000000000000000602082015250565b6000613b5b602783613aee565b9150613b6682613aff565b604082019050919050565b60006020820190508181036000830152613b8a81613b4e565b9050919050565b7f546f70696320646f6573206e6f74206578697374730000000000000000000000600082015250565b6000613bc7601583613aee565b9150613bd282613b91565b602082019050919050565b60006020820190508181036000830152613bf681613bba565b9050919050565b7f496e73756666696369656e742066756e64730000000000000000000000000000600082015250565b6000613c33601283613aee565b9150613c3e82613bfd565b602082019050919050565b60006020820190508181036000830152613c6281613c26565b9050919050565b7f4f6e6c7920415050524f564544205350454e5420746f706963732063616e206260008201527f65207573656420666f72207472616e7366657273000000000000000000000000602082015250565b6000613cc5603483613aee565b9150613cd082613c69565b604082019050919050565b60006020820190508181036000830152613cf481613cb8565b9050919050565b7f4f6e6c79207468652067726f7570206c6561646572732063616e2063616c6c2060008201527f746869732066756e6374696f6e00000000000000000000000000000000000000602082015250565b6000613d57602d83613aee565b9150613d6282613cfb565b604082019050919050565b60006020820190508181036000830152613d8681613d4a565b9050919050565b7f4e487b7100000000000000000000000000000000000000000000000000000000600052601160045260246000fd5b6000613dc7826132e3565b9150613dd2836132e3565b9250828201905080821115613dea57613de9613d8d565b5b92915050565b7f546865206c6561646572206d7573742062652064656661756c74657200000000600082015250565b6000613e26601c83613aee565b9150613e3182613df0565b602082019050919050565b60006020820190508181036000830152613e5581613e19565b9050919050565b7f546f70696320616c726561647920657869737473000000000000000000000000600082015250565b6000613e92601483613aee565b9150613e9d82613e5c565b602082019050919050565b60006020820190508181036000830152613ec181613e85565b9050919050565b7f4e6f20616d6f756e7420616c6c6f77656420666f72207468697320636174656760008201527f6f72790000000000000000000000000000000000000000000000000000000000602082015250565b6000613f24602383613aee565b9150613f2f82613ec8565b604082019050919050565b60006020820190508181036000830152613f5381613f17565b9050919050565b7f4e487b7100000000000000000000000000000000000000000000000000000000600052602260045260246000fd5b60006002820490506001821680613fa157607f821691505b602082108103613fb457613fb3613f5a565b5b50919050565b60008190508160005260206000209050919050565b60006020601f8301049050919050565b600082821b905092915050565b60006008830261401c7fffffffffffffffffffffffffffffffffffffffffffffffffffffffffffffffff82613fdf565b6140268683613fdf565b95508019841693508086168417925050509392505050565b6000819050919050565b600061406361405e614059846132e3565b61403e565b6132e3565b9050919050565b6000819050919050565b61407d83614048565b6140916140898261406a565b848454613fec565b825550505050565b600090565b6140a6614099565b6140b1818484614074565b505050565b5b818110156140d5576140ca60008261409e565b6001810190506140b7565b5050565b601f82111561411a576140eb81613fba565b6140f484613fcf565b81016020851015614103578190505b61411761410f85613fcf565b8301826140b6565b50505b505050565b600082821c905092915050565b600061413d6000198460080261411f565b1980831691505092915050565b6000614156838361412c565b9150826002028217905092915050565b61416f82613393565b67ffffffffffffffff811115614188576141876131b8565b5b6141928254613f89565b61419d8282856140d9565b600060209050601f8311600181146141d057600084156141be578287015190505b6141c8858261414a565b865550614230565b601f1984166141de86613fba565b60005b82811015614206578489015182556001820191506020850194506020810190506141e1565b86831015614223578489015161421f601f89168261412c565b8355505b6001600288020188555050505b505050505050565b7f4f6e6c792074686520636f756e63696c206d656d626572732063616e2063616c60008201527f6c20746869732066756e6374696f6e0000000000000000000000000000000000602082015250565b6000614294602f83613aee565b915061429f82614238565b604082019050919050565b600060208201905081810360008301526142c381614287565b9050919050565b7f416464726573732063616e2774206265206e756c6c0000000000000000000000600082015250565b6000614300601583613aee565b915061430b826142ca565b602082019050919050565b6000602082019050818103600083015261432f816142f3565b9050919050565b7f47726f757020646f6573206e6f74206578697374730000000000000000000000600082015250565b600061436c601583613aee565b915061437782614336565b602082019050919050565b6000602082019050818103600083015261439b8161435f565b9050919050565b7f4c656164657220646f6573206e6f742065786973747300000000000000000000600082015250565b60006143d8601683613aee565b91506143e3826143a2565b602082019050919050565b60006020820190508181036000830152614407816143cb565b9050919050565b7f4f6e6c792049444c4520746f706963732063616e2062652072656d6f76656400600082015250565b6000614444601f83613aee565b915061444f8261440e565b602082019050919050565b6000602082019050818103600083015261447381614437565b9050919050565b7f4f6e6c7920564f54494e4720746f706963732063616e20626520636c6f736564600082015250565b60006144b0602083613aee565b91506144bb8261447a565b602082019050919050565b600060208201905081810360008301526144df816144a3565b9050919050565b7f596f752063616e6e6f7420636c6f73652074686520766f74696e67206265636160008201527f75736520746865726520617265206e6f7420656e6f75676820766f7465730000602082015250565b6000614542603e83613aee565b915061454d826144e6565b604082019050919050565b6000602082019050818103600083015261457181614535565b9050919050565b7f4e487b7100000000000000000000000000000000000000000000000000000000600052603260045260246000fd5b60006145b2826132e3565b91507fffffffffffffffffffffffffffffffffffffffffffffffffffffffffffffffff82036145e4576145e3613d8d565b5b600182019050919050565b7f4f7074696f6e2063616e277420626520454d5054590000000000000000000000600082015250565b6000614625601583613aee565b9150614630826145ef565b602082019050919050565b6000602082019050818103600083015261465481614618565b9050919050565b7f4f6e6c7920564f54494e4720746f706963732063616e20626520766f74656400600082015250565b6000614691601f83613aee565b915061469c8261465b565b602082019050919050565b600060208201905081810360008301526146c081614684565b9050919050565b7f4c656164657220616c726561647920766f746564000000000000000000000000600082015250565b60006146fd601483613aee565b9150614708826146c7565b602082019050919050565b6000602082019050818103600083015261472c816146f0565b9050919050565b7f436f756e73656c6f7220616c7265616479206578697374730000000000000000600082015250565b6000614769601883613aee565b915061477482614733565b602082019050919050565b600060208201905081810360008301526147988161475c565b9050919050565b7f436f756e73656c6f72206973206e6f742061206c656164657200000000000000600082015250565b60006147d5601983613aee565b91506147e08261479f565b602082019050919050565b60006020820190508181036000830152614804816147c8565b9050919050565b7f436f756e73656c6f7220646f6573206e6f742065786973747300000000000000600082015250565b6000614841601983613aee565b915061484c8261480b565b602082019050919050565b6000602082019050818103600083015261487081614834565b9050919050565b7f4f6e6c792049444c4520746f706963732063616e206265206f70656e20666f7260008201527f20766f74696e6700000000000000000000000000000000000000000000000000602082015250565b60006148d3602783613aee565b91506148de82614877565b604082019050919050565b60006020820190508181036000830152614902816148c6565b9050919050565b7f5061796d656e74206e6f74206d61646500000000000000000000000000000000600082015250565b600061493f601083613aee565b915061494a82614909565b602082019050919050565b6000602082019050818103600083015261496e81614932565b9050919050565b7f4e6577206d616e616765722063616e2774206265207468652063757272656e7460008201527f206d616e61676572000000000000000000000000000000000000000000000000602082015250565b60006149d1602883613aee565b91506149dc82614975565b604082019050919050565b60006020820190508181036000830152614a00816149c4565b9050919050565b7f496e76616c696420616d6f756e74000000000000000000000000000000000000600082015250565b6000614a3d600e83613aee565b9150614a4882614a07565b602082019050919050565b60006020820190508181036000830152614a6c81614a30565b9050919050565b7f5061796d656e7420616c7265616479206d616465000000000000000000000000600082015250565b6000614aa9601483613aee565b9150614ab482614a73565b602082019050919050565b60006020820190508181036000830152614ad881614a9c565b9050919050565b7f4f6e6c792049444c4520746f706963732063616e206265206564697465640000600082015250565b6000614b15601e83613aee565b9150614b2082614adf565b602082019050919050565b60006020820190508181036000830152614b4481614b08565b9050919050565b7f4e6f206368616e67657300000000000000000000000000000000000000000000600082015250565b6000614b81600a83613aee565b9150614b8c82614b4b565b602082019050919050565b60006020820190508181036000830152614bb081614b74565b905091905056fea2646970667358221220aeff7f0616e46fd1d0e7f26e93d0075c00d45b4a407a74133ac0c1525df554e564736f6c634300081c0033",
          "opcodes": "PUSH1 0x80 PUSH1 0x40 MSTORE PUSH7 0x2386F26FC10000 PUSH1 0x1 SSTORE CALLVALUE DUP1 ISZERO PUSH2 0x1B JUMPI PUSH1 0x0 DUP1 REVERT JUMPDEST POP CALLER PUSH1 0x0 DUP1 PUSH2 0x100 EXP DUP2 SLOAD DUP2 PUSH20 0xFFFFFFFFFFFFFFFFFFFFFFFFFFFFFFFFFFFFFFFF MUL NOT AND SWAP1 DUP4 PUSH20 0xFFFFFFFFFFFFFFFFFFFFFFFFFFFFFFFFFFFFFFFF AND MUL OR SWAP1 SSTORE POP PUSH1 0x0 PUSH1 0x1 SWAP1 POP JUMPDEST PUSH1 0x32 DUP2 PUSH1 0xFF AND GT PUSH2 0xB3 JUMPI PUSH1 0x1 PUSH1 0x4 PUSH1 0x0 DUP4 PUSH1 0xFF AND PUSH1 0xFF AND DUP2 MSTORE PUSH1 0x20 ADD SWAP1 DUP2 MSTORE PUSH1 0x20 ADD PUSH1 0x0 KECCAK256 PUSH1 0x0 PUSH2 0x100 EXP DUP2 SLOAD DUP2 PUSH1 0xFF MUL NOT AND SWAP1 DUP4 ISZERO ISZERO MUL OR SWAP1 SSTORE POP DUP1 DUP1 PUSH2 0xAB SWAP1 PUSH2 0xF5 JUMP JUMPDEST SWAP2 POP POP PUSH2 0x63 JUMP JUMPDEST POP PUSH2 0x11E JUMP JUMPDEST PUSH32 0x4E487B7100000000000000000000000000000000000000000000000000000000 PUSH1 0x0 MSTORE PUSH1 0x11 PUSH1 0x4 MSTORE PUSH1 0x24 PUSH1 0x0 REVERT JUMPDEST PUSH1 0x0 PUSH1 0xFF DUP3 AND SWAP1 POP SWAP2 SWAP1 POP JUMP JUMPDEST PUSH1 0x0 PUSH2 0x100 DUP3 PUSH2 0xE8 JUMP JUMPDEST SWAP2 POP PUSH1 0xFF DUP3 SUB PUSH2 0x113 JUMPI PUSH2 0x112 PUSH2 0xB9 JUMP JUMPDEST JUMPDEST PUSH1 0x1 DUP3 ADD SWAP1 POP SWAP2 SWAP1 POP JUMP JUMPDEST PUSH2 0x4BED DUP1 PUSH2 0x12D PUSH1 0x0 CODECOPY PUSH1 0x0 RETURN INVALID PUSH1 0x80 PUSH1 0x40 MSTORE PUSH1 0x4 CALLDATASIZE LT PUSH2 0x135 JUMPI PUSH1 0x0 CALLDATALOAD PUSH1 0xE0 SHR DUP1 PUSH4 0x8FC5DAD8 GT PUSH2 0xAB JUMPI DUP1 PUSH4 0xC080845C GT PUSH2 0x6F JUMPI DUP1 PUSH4 0xC080845C EQ PUSH2 0x494 JUMPI DUP1 PUSH4 0xD0EBDBE7 EQ PUSH2 0x4D1 JUMPI DUP1 PUSH4 0xD5009584 EQ PUSH2 0x4FA JUMPI DUP1 PUSH4 0xDB512E85 EQ PUSH2 0x525 JUMPI DUP1 PUSH4 0xE179D5FE EQ PUSH2 0x562 JUMPI DUP1 PUSH4 0xEAF5D9DC EQ PUSH2 0x57E JUMPI PUSH2 0x135 JUMP JUMPDEST DUP1 PUSH4 0x8FC5DAD8 EQ PUSH2 0x38B JUMPI DUP1 PUSH4 0x90CA27F3 EQ PUSH2 0x3C8 JUMPI DUP1 PUSH4 0x96FA1DEF EQ PUSH2 0x3F1 JUMPI DUP1 PUSH4 0x9E1BF985 EQ PUSH2 0x41A JUMPI DUP1 PUSH4 0xBED34BBA EQ PUSH2 0x457 JUMPI PUSH2 0x135 JUMP JUMPDEST DUP1 PUSH4 0x43B8C6B1 GT PUSH2 0xFD JUMPI DUP1 PUSH4 0x43B8C6B1 EQ PUSH2 0x259 JUMPI DUP1 PUSH4 0x467267EE EQ PUSH2 0x282 JUMPI DUP1 PUSH4 0x474502D8 EQ PUSH2 0x2AB JUMPI DUP1 PUSH4 0x4816A0F3 EQ PUSH2 0x2E8 JUMPI DUP1 PUSH4 0x78B5749D EQ PUSH2 0x311 JUMPI DUP1 PUSH4 0x7B57EE49 EQ PUSH2 0x34E JUMPI PUSH2 0x135 JUMP JUMPDEST DUP1 PUSH4 0x65AB6D6 EQ PUSH2 0x13A JUMPI DUP1 PUSH4 0x12CB70C7 EQ PUSH2 0x177 JUMPI DUP1 PUSH4 0x1DF8BA77 EQ PUSH2 0x1B4 JUMPI DUP1 PUSH4 0x270A2341 EQ PUSH2 0x1DF JUMPI DUP1 PUSH4 0x2F9F21FE EQ PUSH2 0x21C JUMPI JUMPDEST PUSH1 0x0 DUP1 REVERT JUMPDEST CALLVALUE DUP1 ISZERO PUSH2 0x146 JUMPI PUSH1 0x0 DUP1 REVERT JUMPDEST POP PUSH2 0x161 PUSH1 0x4 DUP1 CALLDATASIZE SUB DUP2 ADD SWAP1 PUSH2 0x15C SWAP2 SWAP1 PUSH2 0x313A JUMP JUMPDEST PUSH2 0x5BB JUMP JUMPDEST PUSH1 0x40 MLOAD PUSH2 0x16E SWAP2 SWAP1 PUSH2 0x3182 JUMP JUMPDEST PUSH1 0x40 MLOAD DUP1 SWAP2 SUB SWAP1 RETURN JUMPDEST CALLVALUE DUP1 ISZERO PUSH2 0x183 JUMPI PUSH1 0x0 DUP1 REVERT JUMPDEST POP PUSH2 0x19E PUSH1 0x4 DUP1 CALLDATASIZE SUB DUP2 ADD SWAP1 PUSH2 0x199 SWAP2 SWAP1 PUSH2 0x3319 JUMP JUMPDEST PUSH2 0x611 JUMP JUMPDEST PUSH1 0x40 MLOAD PUSH2 0x1AB SWAP2 SWAP1 PUSH2 0x3462 JUMP JUMPDEST PUSH1 0x40 MLOAD DUP1 SWAP2 SUB SWAP1 RETURN JUMPDEST CALLVALUE DUP1 ISZERO PUSH2 0x1C0 JUMPI PUSH1 0x0 DUP1 REVERT JUMPDEST POP PUSH2 0x1C9 PUSH2 0x8FA JUMP JUMPDEST PUSH1 0x40 MLOAD PUSH2 0x1D6 SWAP2 SWAP1 PUSH2 0x3493 JUMP JUMPDEST PUSH1 0x40 MLOAD DUP1 SWAP2 SUB SWAP1 RETURN JUMPDEST CALLVALUE DUP1 ISZERO PUSH2 0x1EB JUMPI PUSH1 0x0 DUP1 REVERT JUMPDEST POP PUSH2 0x206 PUSH1 0x4 DUP1 CALLDATASIZE SUB DUP2 ADD SWAP1 PUSH2 0x201 SWAP2 SWAP1 PUSH2 0x34E7 JUMP JUMPDEST PUSH2 0x904 JUMP JUMPDEST PUSH1 0x40 MLOAD PUSH2 0x213 SWAP2 SWAP1 PUSH2 0x3182 JUMP JUMPDEST PUSH1 0x40 MLOAD DUP1 SWAP2 SUB SWAP1 RETURN JUMPDEST CALLVALUE DUP1 ISZERO PUSH2 0x228 JUMPI PUSH1 0x0 DUP1 REVERT JUMPDEST POP PUSH2 0x243 PUSH1 0x4 DUP1 CALLDATASIZE SUB DUP2 ADD SWAP1 PUSH2 0x23E SWAP2 SWAP1 PUSH2 0x3514 JUMP JUMPDEST PUSH2 0x934 JUMP JUMPDEST PUSH1 0x40 MLOAD PUSH2 0x250 SWAP2 SWAP1 PUSH2 0x3493 JUMP JUMPDEST PUSH1 0x40 MLOAD DUP1 SWAP2 SUB SWAP1 RETURN JUMPDEST CALLVALUE DUP1 ISZERO PUSH2 0x265 JUMPI PUSH1 0x0 DUP1 REVERT JUMPDEST POP PUSH2 0x280 PUSH1 0x4 DUP1 CALLDATASIZE SUB DUP2 ADD SWAP1 PUSH2 0x27B SWAP2 SWAP1 PUSH2 0x3582 JUMP JUMPDEST PUSH2 0x960 JUMP JUMPDEST STOP JUMPDEST CALLVALUE DUP1 ISZERO PUSH2 0x28E JUMPI PUSH1 0x0 DUP1 REVERT JUMPDEST POP PUSH2 0x2A9 PUSH1 0x4 DUP1 CALLDATASIZE SUB DUP2 ADD SWAP1 PUSH2 0x2A4 SWAP2 SWAP1 PUSH2 0x3635 JUMP JUMPDEST PUSH2 0xDD4 JUMP JUMPDEST STOP JUMPDEST CALLVALUE DUP1 ISZERO PUSH2 0x2B7 JUMPI PUSH1 0x0 DUP1 REVERT JUMPDEST POP PUSH2 0x2D2 PUSH1 0x4 DUP1 CALLDATASIZE SUB DUP2 ADD SWAP1 PUSH2 0x2CD SWAP2 SWAP1 PUSH2 0x3514 JUMP JUMPDEST PUSH2 0xFCB JUMP JUMPDEST PUSH1 0x40 MLOAD PUSH2 0x2DF SWAP2 SWAP1 PUSH2 0x3800 JUMP JUMPDEST PUSH1 0x40 MLOAD DUP1 SWAP2 SUB SWAP1 RETURN JUMPDEST CALLVALUE DUP1 ISZERO PUSH2 0x2F4 JUMPI PUSH1 0x0 DUP1 REVERT JUMPDEST POP PUSH2 0x30F PUSH1 0x4 DUP1 CALLDATASIZE SUB DUP2 ADD SWAP1 PUSH2 0x30A SWAP2 SWAP1 PUSH2 0x3635 JUMP JUMPDEST PUSH2 0x121E JUMP JUMPDEST STOP JUMPDEST CALLVALUE DUP1 ISZERO PUSH2 0x31D JUMPI PUSH1 0x0 DUP1 REVERT JUMPDEST POP PUSH2 0x338 PUSH1 0x4 DUP1 CALLDATASIZE SUB DUP2 ADD SWAP1 PUSH2 0x333 SWAP2 SWAP1 PUSH2 0x3514 JUMP JUMPDEST PUSH2 0x13ED JUMP JUMPDEST PUSH1 0x40 MLOAD PUSH2 0x345 SWAP2 SWAP1 PUSH2 0x3182 JUMP JUMPDEST PUSH1 0x40 MLOAD DUP1 SWAP2 SUB SWAP1 RETURN JUMPDEST CALLVALUE DUP1 ISZERO PUSH2 0x35A JUMPI PUSH1 0x0 DUP1 REVERT JUMPDEST POP PUSH2 0x375 PUSH1 0x4 DUP1 CALLDATASIZE SUB DUP2 ADD SWAP1 PUSH2 0x370 SWAP2 SWAP1 PUSH2 0x3514 JUMP JUMPDEST PUSH2 0x1405 JUMP JUMPDEST PUSH1 0x40 MLOAD PUSH2 0x382 SWAP2 SWAP1 PUSH2 0x389E JUMP JUMPDEST PUSH1 0x40 MLOAD DUP1 SWAP2 SUB SWAP1 RETURN JUMPDEST CALLVALUE DUP1 ISZERO PUSH2 0x397 JUMPI PUSH1 0x0 DUP1 REVERT JUMPDEST POP PUSH2 0x3B2 PUSH1 0x4 DUP1 CALLDATASIZE SUB DUP2 ADD SWAP1 PUSH2 0x3AD SWAP2 SWAP1 PUSH2 0x3514 JUMP JUMPDEST PUSH2 0x165E JUMP JUMPDEST PUSH1 0x40 MLOAD PUSH2 0x3BF SWAP2 SWAP1 PUSH2 0x389E JUMP JUMPDEST PUSH1 0x40 MLOAD DUP1 SWAP2 SUB SWAP1 RETURN JUMPDEST CALLVALUE DUP1 ISZERO PUSH2 0x3D4 JUMPI PUSH1 0x0 DUP1 REVERT JUMPDEST POP PUSH2 0x3EF PUSH1 0x4 DUP1 CALLDATASIZE SUB DUP2 ADD SWAP1 PUSH2 0x3EA SWAP2 SWAP1 PUSH2 0x38E5 JUMP JUMPDEST PUSH2 0x1C70 JUMP JUMPDEST STOP JUMPDEST CALLVALUE DUP1 ISZERO PUSH2 0x3FD JUMPI PUSH1 0x0 DUP1 REVERT JUMPDEST POP PUSH2 0x418 PUSH1 0x4 DUP1 CALLDATASIZE SUB DUP2 ADD SWAP1 PUSH2 0x413 SWAP2 SWAP1 PUSH2 0x396D JUMP JUMPDEST PUSH2 0x22A2 JUMP JUMPDEST STOP JUMPDEST CALLVALUE DUP1 ISZERO PUSH2 0x426 JUMPI PUSH1 0x0 DUP1 REVERT JUMPDEST POP PUSH2 0x441 PUSH1 0x4 DUP1 CALLDATASIZE SUB DUP2 ADD SWAP1 PUSH2 0x43C SWAP2 SWAP1 PUSH2 0x3514 JUMP JUMPDEST PUSH2 0x2531 JUMP JUMPDEST PUSH1 0x40 MLOAD PUSH2 0x44E SWAP2 SWAP1 PUSH2 0x389E JUMP JUMPDEST PUSH1 0x40 MLOAD DUP1 SWAP2 SUB SWAP1 RETURN JUMPDEST CALLVALUE DUP1 ISZERO PUSH2 0x463 JUMPI PUSH1 0x0 DUP1 REVERT JUMPDEST POP PUSH2 0x47E PUSH1 0x4 DUP1 CALLDATASIZE SUB DUP2 ADD SWAP1 PUSH2 0x479 SWAP2 SWAP1 PUSH2 0x39AD JUMP JUMPDEST PUSH2 0x2740 JUMP JUMPDEST PUSH1 0x40 MLOAD PUSH2 0x48B SWAP2 SWAP1 PUSH2 0x3182 JUMP JUMPDEST PUSH1 0x40 MLOAD DUP1 SWAP2 SUB SWAP1 RETURN JUMPDEST CALLVALUE DUP1 ISZERO PUSH2 0x4A0 JUMPI PUSH1 0x0 DUP1 REVERT JUMPDEST POP PUSH2 0x4BB PUSH1 0x4 DUP1 CALLDATASIZE SUB DUP2 ADD SWAP1 PUSH2 0x4B6 SWAP2 SWAP1 PUSH2 0x34E7 JUMP JUMPDEST PUSH2 0x275B JUMP JUMPDEST PUSH1 0x40 MLOAD PUSH2 0x4C8 SWAP2 SWAP1 PUSH2 0x3493 JUMP JUMPDEST PUSH1 0x40 MLOAD DUP1 SWAP2 SUB SWAP1 RETURN JUMPDEST CALLVALUE DUP1 ISZERO PUSH2 0x4DD JUMPI PUSH1 0x0 DUP1 REVERT JUMPDEST POP PUSH2 0x4F8 PUSH1 0x4 DUP1 CALLDATASIZE SUB DUP2 ADD SWAP1 PUSH2 0x4F3 SWAP2 SWAP1 PUSH2 0x313A JUMP JUMPDEST PUSH2 0x2822 JUMP JUMPDEST STOP JUMPDEST CALLVALUE DUP1 ISZERO PUSH2 0x506 JUMPI PUSH1 0x0 DUP1 REVERT JUMPDEST POP PUSH2 0x50F PUSH2 0x2A61 JUMP JUMPDEST PUSH1 0x40 MLOAD PUSH2 0x51C SWAP2 SWAP1 PUSH2 0x3A34 JUMP JUMPDEST PUSH1 0x40 MLOAD DUP1 SWAP2 SUB SWAP1 RETURN JUMPDEST CALLVALUE DUP1 ISZERO PUSH2 0x531 JUMPI PUSH1 0x0 DUP1 REVERT JUMPDEST POP PUSH2 0x54C PUSH1 0x4 DUP1 CALLDATASIZE SUB DUP2 ADD SWAP1 PUSH2 0x547 SWAP2 SWAP1 PUSH2 0x313A JUMP JUMPDEST PUSH2 0x2A8A JUMP JUMPDEST PUSH1 0x40 MLOAD PUSH2 0x559 SWAP2 SWAP1 PUSH2 0x3182 JUMP JUMPDEST PUSH1 0x40 MLOAD DUP1 SWAP2 SUB SWAP1 RETURN JUMPDEST PUSH2 0x57C PUSH1 0x4 DUP1 CALLDATASIZE SUB DUP2 ADD SWAP1 PUSH2 0x577 SWAP2 SWAP1 PUSH2 0x34E7 JUMP JUMPDEST PUSH2 0x2AE5 JUMP JUMPDEST STOP JUMPDEST CALLVALUE DUP1 ISZERO PUSH2 0x58A JUMPI PUSH1 0x0 DUP1 REVERT JUMPDEST POP PUSH2 0x5A5 PUSH1 0x4 DUP1 CALLDATASIZE SUB DUP2 ADD SWAP1 PUSH2 0x5A0 SWAP2 SWAP1 PUSH2 0x3A4F JUMP JUMPDEST PUSH2 0x2BFB JUMP JUMPDEST PUSH1 0x40 MLOAD PUSH2 0x5B2 SWAP2 SWAP1 PUSH2 0x389E JUMP JUMPDEST PUSH1 0x40 MLOAD DUP1 SWAP2 SUB SWAP1 RETURN JUMPDEST PUSH1 0x0 PUSH1 0x2 PUSH1 0x0 DUP4 PUSH20 0xFFFFFFFFFFFFFFFFFFFFFFFFFFFFFFFFFFFFFFFF AND PUSH20 0xFFFFFFFFFFFFFFFFFFFFFFFFFFFFFFFFFFFFFFFF AND DUP2 MSTORE PUSH1 0x20 ADD SWAP1 DUP2 MSTORE PUSH1 0x20 ADD PUSH1 0x0 KECCAK256 PUSH1 0x0 SWAP1 SLOAD SWAP1 PUSH2 0x100 EXP SWAP1 DIV PUSH1 0xFF AND SWAP1 POP SWAP2 SWAP1 POP JUMP JUMPDEST PUSH2 0x619 PUSH2 0x2F5F JUMP JUMPDEST PUSH1 0x0 DUP1 SLOAD SWAP1 PUSH2 0x100 EXP SWAP1 DIV PUSH20 0xFFFFFFFFFFFFFFFFFFFFFFFFFFFFFFFFFFFFFFFF AND PUSH20 0xFFFFFFFFFFFFFFFFFFFFFFFFFFFFFFFFFFFFFFFF AND ORIGIN PUSH20 0xFFFFFFFFFFFFFFFFFFFFFFFFFFFFFFFFFFFFFFFF AND EQ PUSH2 0x6A7 JUMPI PUSH1 0x40 MLOAD PUSH32 0x8C379A000000000000000000000000000000000000000000000000000000000 DUP2 MSTORE PUSH1 0x4 ADD PUSH2 0x69E SWAP1 PUSH2 0x3B71 JUMP JUMPDEST PUSH1 0x40 MLOAD DUP1 SWAP2 SUB SWAP1 REVERT JUMPDEST PUSH2 0x6B0 DUP4 PUSH2 0x13ED JUMP JUMPDEST PUSH2 0x6EF JUMPI PUSH1 0x40 MLOAD PUSH32 0x8C379A000000000000000000000000000000000000000000000000000000000 DUP2 MSTORE PUSH1 0x4 ADD PUSH2 0x6E6 SWAP1 PUSH2 0x3BDD JUMP JUMPDEST PUSH1 0x40 MLOAD DUP1 SWAP2 SUB SWAP1 REVERT JUMPDEST DUP2 SELFBALANCE LT ISZERO PUSH2 0x732 JUMPI PUSH1 0x40 MLOAD PUSH32 0x8C379A000000000000000000000000000000000000000000000000000000000 DUP2 MSTORE PUSH1 0x4 ADD PUSH2 0x729 SWAP1 PUSH2 0x3C49 JUMP JUMPDEST PUSH1 0x40 MLOAD DUP1 SWAP2 SUB SWAP1 REVERT JUMPDEST PUSH1 0x0 PUSH2 0x73D DUP5 PUSH2 0xFCB JUMP JUMPDEST SWAP1 POP PUSH1 0x2 PUSH1 0x5 DUP2 GT ISZERO PUSH2 0x753 JUMPI PUSH2 0x752 PUSH2 0x3675 JUMP JUMPDEST JUMPDEST DUP2 PUSH1 0x40 ADD MLOAD PUSH1 0x5 DUP2 GT ISZERO PUSH2 0x76A JUMPI PUSH2 0x769 PUSH2 0x3675 JUMP JUMPDEST JUMPDEST EQ DUP1 ISZERO PUSH2 0x79F JUMPI POP PUSH1 0x1 PUSH1 0x3 DUP2 GT ISZERO PUSH2 0x786 JUMPI PUSH2 0x785 PUSH2 0x3675 JUMP JUMPDEST JUMPDEST DUP2 PUSH1 0x60 ADD MLOAD PUSH1 0x3 DUP2 GT ISZERO PUSH2 0x79D JUMPI PUSH2 0x79C PUSH2 0x3675 JUMP JUMPDEST JUMPDEST EQ JUMPDEST PUSH2 0x7DE JUMPI PUSH1 0x40 MLOAD PUSH32 0x8C379A000000000000000000000000000000000000000000000000000000000 DUP2 MSTORE PUSH1 0x4 ADD PUSH2 0x7D5 SWAP1 PUSH2 0x3CDB JUMP JUMPDEST PUSH1 0x40 MLOAD DUP1 SWAP2 SUB SWAP1 REVERT JUMPDEST DUP3 DUP2 PUSH1 0x80 ADD MLOAD LT ISZERO PUSH2 0x825 JUMPI PUSH1 0x40 MLOAD PUSH32 0x8C379A000000000000000000000000000000000000000000000000000000000 DUP2 MSTORE PUSH1 0x4 ADD PUSH2 0x81C SWAP1 PUSH2 0x3C49 JUMP JUMPDEST PUSH1 0x40 MLOAD DUP1 SWAP2 SUB SWAP1 REVERT JUMPDEST DUP1 PUSH1 0xA0 ADD MLOAD PUSH20 0xFFFFFFFFFFFFFFFFFFFFFFFFFFFFFFFFFFFFFFFF AND PUSH2 0x8FC DUP5 SWAP1 DUP2 ISZERO MUL SWAP1 PUSH1 0x40 MLOAD PUSH1 0x0 PUSH1 0x40 MLOAD DUP1 DUP4 SUB DUP2 DUP6 DUP9 DUP9 CALL SWAP4 POP POP POP POP ISZERO DUP1 ISZERO PUSH2 0x86F JUMPI RETURNDATASIZE PUSH1 0x0 DUP1 RETURNDATACOPY RETURNDATASIZE PUSH1 0x0 REVERT JUMPDEST POP PUSH1 0x0 DUP5 DUP1 MLOAD SWAP1 PUSH1 0x20 ADD KECCAK256 SWAP1 POP PUSH1 0x4 PUSH1 0x5 PUSH1 0x0 DUP4 DUP2 MSTORE PUSH1 0x20 ADD SWAP1 DUP2 MSTORE PUSH1 0x20 ADD PUSH1 0x0 KECCAK256 PUSH1 0x2 ADD PUSH1 0x0 PUSH2 0x100 EXP DUP2 SLOAD DUP2 PUSH1 0xFF MUL NOT AND SWAP1 DUP4 PUSH1 0x5 DUP2 GT ISZERO PUSH2 0x8B6 JUMPI PUSH2 0x8B5 PUSH2 0x3675 JUMP JUMPDEST JUMPDEST MUL OR SWAP1 SSTORE POP PUSH1 0x40 MLOAD DUP1 PUSH1 0x60 ADD PUSH1 0x40 MSTORE DUP1 DUP4 PUSH1 0xA0 ADD MLOAD PUSH20 0xFFFFFFFFFFFFFFFFFFFFFFFFFFFFFFFFFFFFFFFF AND DUP2 MSTORE PUSH1 0x20 ADD DUP6 DUP2 MSTORE PUSH1 0x20 ADD DUP7 DUP2 MSTORE POP SWAP3 POP POP POP SWAP3 SWAP2 POP POP JUMP JUMPDEST PUSH1 0x0 PUSH1 0x1 SLOAD SWAP1 POP SWAP1 JUMP JUMPDEST PUSH1 0x0 PUSH1 0x4 PUSH1 0x0 DUP4 PUSH1 0xFF AND PUSH1 0xFF AND DUP2 MSTORE PUSH1 0x20 ADD SWAP1 DUP2 MSTORE PUSH1 0x20 ADD PUSH1 0x0 KECCAK256 PUSH1 0x0 SWAP1 SLOAD SWAP1 PUSH2 0x100 EXP SWAP1 DIV PUSH1 0xFF AND SWAP1 POP SWAP2 SWAP1 POP JUMP JUMPDEST PUSH1 0x0 DUP1 DUP3 DUP1 MLOAD SWAP1 PUSH1 0x20 ADD KECCAK256 SWAP1 POP PUSH1 0x6 PUSH1 0x0 DUP3 DUP2 MSTORE PUSH1 0x20 ADD SWAP1 DUP2 MSTORE PUSH1 0x20 ADD PUSH1 0x0 KECCAK256 DUP1 SLOAD SWAP1 POP SWAP2 POP POP SWAP2 SWAP1 POP JUMP JUMPDEST PUSH1 0x0 DUP1 SLOAD SWAP1 PUSH2 0x100 EXP SWAP1 DIV PUSH20 0xFFFFFFFFFFFFFFFFFFFFFFFFFFFFFFFFFFFFFFFF AND PUSH20 0xFFFFFFFFFFFFFFFFFFFFFFFFFFFFFFFFFFFFFFFF AND ORIGIN PUSH20 0xFFFFFFFFFFFFFFFFFFFFFFFFFFFFFFFFFFFFFFFF AND EQ DUP1 PUSH2 0x9BF JUMPI POP PUSH2 0x9BE ORIGIN PUSH2 0x2A8A JUMP JUMPDEST JUMPDEST PUSH2 0x9FE JUMPI PUSH1 0x40 MLOAD PUSH32 0x8C379A000000000000000000000000000000000000000000000000000000000 DUP2 MSTORE PUSH1 0x4 ADD PUSH2 0x9F5 SWAP1 PUSH2 0x3D6D JUMP JUMPDEST PUSH1 0x40 MLOAD DUP1 SWAP2 SUB SWAP1 REVERT JUMPDEST PUSH1 0x0 DUP1 SLOAD SWAP1 PUSH2 0x100 EXP SWAP1 DIV PUSH20 0xFFFFFFFFFFFFFFFFFFFFFFFFFFFFFFFFFFFFFFFF AND PUSH20 0xFFFFFFFFFFFFFFFFFFFFFFFFFFFFFFFFFFFFFFFF AND ORIGIN PUSH20 0xFFFFFFFFFFFFFFFFFFFFFFFFFFFFFFFFFFFFFFFF AND EQ DUP1 PUSH2 0xACA JUMPI POP PUSH3 0x278D00 PUSH1 0x7 PUSH1 0x0 PUSH1 0x3 PUSH1 0x0 ORIGIN PUSH20 0xFFFFFFFFFFFFFFFFFFFFFFFFFFFFFFFFFFFFFFFF AND PUSH20 0xFFFFFFFFFFFFFFFFFFFFFFFFFFFFFFFFFFFFFFFF AND DUP2 MSTORE PUSH1 0x20 ADD SWAP1 DUP2 MSTORE PUSH1 0x20 ADD PUSH1 0x0 KECCAK256 PUSH1 0x0 SWAP1 SLOAD SWAP1 PUSH2 0x100 EXP SWAP1 DIV PUSH1 0xFF AND PUSH1 0xFF AND PUSH1 0xFF AND DUP2 MSTORE PUSH1 0x20 ADD SWAP1 DUP2 MSTORE PUSH1 0x20 ADD PUSH1 0x0 KECCAK256 SLOAD PUSH2 0xAC7 SWAP2 SWAP1 PUSH2 0x3DBC JUMP JUMPDEST TIMESTAMP LT JUMPDEST PUSH2 0xB09 JUMPI PUSH1 0x40 MLOAD PUSH32 0x8C379A000000000000000000000000000000000000000000000000000000000 DUP2 MSTORE PUSH1 0x4 ADD PUSH2 0xB00 SWAP1 PUSH2 0x3E3C JUMP JUMPDEST PUSH1 0x40 MLOAD DUP1 SWAP2 SUB SWAP1 REVERT JUMPDEST PUSH2 0xB12 DUP6 PUSH2 0x13ED JUMP JUMPDEST ISZERO PUSH2 0xB52 JUMPI PUSH1 0x40 MLOAD PUSH32 0x8C379A000000000000000000000000000000000000000000000000000000000 DUP2 MSTORE PUSH1 0x4 ADD PUSH2 0xB49 SWAP1 PUSH2 0x3EA8 JUMP JUMPDEST PUSH1 0x40 MLOAD DUP1 SWAP2 SUB SWAP1 REVERT JUMPDEST PUSH1 0x0 DUP3 GT ISZERO PUSH2 0xBF2 JUMPI PUSH1 0x1 PUSH1 0x3 DUP2 GT ISZERO PUSH2 0xB6F JUMPI PUSH2 0xB6E PUSH2 0x3675 JUMP JUMPDEST JUMPDEST DUP4 PUSH1 0x3 DUP2 GT ISZERO PUSH2 0xB82 JUMPI PUSH2 0xB81 PUSH2 0x3675 JUMP JUMPDEST JUMPDEST EQ DUP1 PUSH2 0xBB2 JUMPI POP PUSH1 0x2 PUSH1 0x3 DUP2 GT ISZERO PUSH2 0xB9D JUMPI PUSH2 0xB9C PUSH2 0x3675 JUMP JUMPDEST JUMPDEST DUP4 PUSH1 0x3 DUP2 GT ISZERO PUSH2 0xBB0 JUMPI PUSH2 0xBAF PUSH2 0x3675 JUMP JUMPDEST JUMPDEST EQ JUMPDEST PUSH2 0xBF1 JUMPI PUSH1 0x40 MLOAD PUSH32 0x8C379A000000000000000000000000000000000000000000000000000000000 DUP2 MSTORE PUSH1 0x4 ADD PUSH2 0xBE8 SWAP1 PUSH2 0x3F3A JUMP JUMPDEST PUSH1 0x40 MLOAD DUP1 SWAP2 SUB SWAP1 REVERT JUMPDEST JUMPDEST PUSH1 0x0 PUSH1 0x40 MLOAD DUP1 PUSH2 0x120 ADD PUSH1 0x40 MSTORE DUP1 DUP8 DUP2 MSTORE PUSH1 0x20 ADD DUP7 DUP2 MSTORE PUSH1 0x20 ADD PUSH1 0x0 PUSH1 0x5 DUP2 GT ISZERO PUSH2 0xC20 JUMPI PUSH2 0xC1F PUSH2 0x3675 JUMP JUMPDEST JUMPDEST DUP2 MSTORE PUSH1 0x20 ADD DUP6 PUSH1 0x3 DUP2 GT ISZERO PUSH2 0xC38 JUMPI PUSH2 0xC37 PUSH2 0x3675 JUMP JUMPDEST JUMPDEST DUP2 MSTORE PUSH1 0x20 ADD DUP5 DUP2 MSTORE PUSH1 0x20 ADD PUSH1 0x0 PUSH20 0xFFFFFFFFFFFFFFFFFFFFFFFFFFFFFFFFFFFFFFFF AND DUP5 PUSH20 0xFFFFFFFFFFFFFFFFFFFFFFFFFFFFFFFFFFFFFFFF AND SUB PUSH2 0xC7D JUMPI ORIGIN PUSH2 0xC7F JUMP JUMPDEST DUP4 JUMPDEST PUSH20 0xFFFFFFFFFFFFFFFFFFFFFFFFFFFFFFFFFFFFFFFF AND DUP2 MSTORE PUSH1 0x20 ADD TIMESTAMP DUP2 MSTORE PUSH1 0x20 ADD PUSH1 0x0 DUP2 MSTORE PUSH1 0x20 ADD PUSH1 0x0 DUP2 MSTORE POP SWAP1 POP DUP1 PUSH1 0x5 PUSH1 0x0 DUP4 PUSH1 0x0 ADD MLOAD DUP1 MLOAD SWAP1 PUSH1 0x20 ADD KECCAK256 DUP2 MSTORE PUSH1 0x20 ADD SWAP1 DUP2 MSTORE PUSH1 0x20 ADD PUSH1 0x0 KECCAK256 PUSH1 0x0 DUP3 ADD MLOAD DUP2 PUSH1 0x0 ADD SWAP1 DUP2 PUSH2 0xCE2 SWAP2 SWAP1 PUSH2 0x4166 JUMP JUMPDEST POP PUSH1 0x20 DUP3 ADD MLOAD DUP2 PUSH1 0x1 ADD SWAP1 DUP2 PUSH2 0xCF8 SWAP2 SWAP1 PUSH2 0x4166 JUMP JUMPDEST POP PUSH1 0x40 DUP3 ADD MLOAD DUP2 PUSH1 0x2 ADD PUSH1 0x0 PUSH2 0x100 EXP DUP2 SLOAD DUP2 PUSH1 0xFF MUL NOT AND SWAP1 DUP4 PUSH1 0x5 DUP2 GT ISZERO PUSH2 0xD24 JUMPI PUSH2 0xD23 PUSH2 0x3675 JUMP JUMPDEST JUMPDEST MUL OR SWAP1 SSTORE POP PUSH1 0x60 DUP3 ADD MLOAD DUP2 PUSH1 0x2 ADD PUSH1 0x1 PUSH2 0x100 EXP DUP2 SLOAD DUP2 PUSH1 0xFF MUL NOT AND SWAP1 DUP4 PUSH1 0x3 DUP2 GT ISZERO PUSH2 0xD54 JUMPI PUSH2 0xD53 PUSH2 0x3675 JUMP JUMPDEST JUMPDEST MUL OR SWAP1 SSTORE POP PUSH1 0x80 DUP3 ADD MLOAD DUP2 PUSH1 0x3 ADD SSTORE PUSH1 0xA0 DUP3 ADD MLOAD DUP2 PUSH1 0x4 ADD PUSH1 0x0 PUSH2 0x100 EXP DUP2 SLOAD DUP2 PUSH20 0xFFFFFFFFFFFFFFFFFFFFFFFFFFFFFFFFFFFFFFFF MUL NOT AND SWAP1 DUP4 PUSH20 0xFFFFFFFFFFFFFFFFFFFFFFFFFFFFFFFFFFFFFFFF AND MUL OR SWAP1 SSTORE POP PUSH1 0xC0 DUP3 ADD MLOAD DUP2 PUSH1 0x5 ADD SSTORE PUSH1 0xE0 DUP3 ADD MLOAD DUP2 PUSH1 0x6 ADD SSTORE PUSH2 0x100 DUP3 ADD MLOAD DUP2 PUSH1 0x7 ADD SSTORE SWAP1 POP POP POP POP POP POP POP POP JUMP JUMPDEST PUSH1 0x0 DUP1 SLOAD SWAP1 PUSH2 0x100 EXP SWAP1 DIV PUSH20 0xFFFFFFFFFFFFFFFFFFFFFFFFFFFFFFFFFFFFFFFF AND PUSH20 0xFFFFFFFFFFFFFFFFFFFFFFFFFFFFFFFFFFFFFFFF AND ORIGIN PUSH20 0xFFFFFFFFFFFFFFFFFFFFFFFFFFFFFFFFFFFFFFFF AND EQ DUP1 PUSH2 0xE77 JUMPI POP PUSH1 0x2 PUSH1 0x0 ORIGIN PUSH20 0xFFFFFFFFFFFFFFFFFFFFFFFFFFFFFFFFFFFFFFFF AND PUSH20 0xFFFFFFFFFFFFFFFFFFFFFFFFFFFFFFFFFFFFFFFF AND DUP2 MSTORE PUSH1 0x20 ADD SWAP1 DUP2 MSTORE PUSH1 0x20 ADD PUSH1 0x0 KECCAK256 PUSH1 0x0 SWAP1 SLOAD SWAP1 PUSH2 0x100 EXP SWAP1 DIV PUSH1 0xFF AND JUMPDEST PUSH2 0xEB6 JUMPI PUSH1 0x40 MLOAD PUSH32 0x8C379A000000000000000000000000000000000000000000000000000000000 DUP2 MSTORE PUSH1 0x4 ADD PUSH2 0xEAD SWAP1 PUSH2 0x42AA JUMP JUMPDEST PUSH1 0x40 MLOAD DUP1 SWAP2 SUB SWAP1 REVERT JUMPDEST DUP2 PUSH1 0x0 PUSH20 0xFFFFFFFFFFFFFFFFFFFFFFFFFFFFFFFFFFFFFFFF AND DUP2 PUSH20 0xFFFFFFFFFFFFFFFFFFFFFFFFFFFFFFFFFFFFFFFF AND SUB PUSH2 0xF26 JUMPI PUSH1 0x40 MLOAD PUSH32 0x8C379A000000000000000000000000000000000000000000000000000000000 DUP2 MSTORE PUSH1 0x4 ADD PUSH2 0xF1D SWAP1 PUSH2 0x4316 JUMP JUMPDEST PUSH1 0x40 MLOAD DUP1 SWAP2 SUB SWAP1 REVERT JUMPDEST PUSH2 0xF2F DUP3 PUSH2 0x904 JUMP JUMPDEST PUSH2 0xF6E JUMPI PUSH1 0x40 MLOAD PUSH32 0x8C379A000000000000000000000000000000000000000000000000000000000 DUP2 MSTORE PUSH1 0x4 ADD PUSH2 0xF65 SWAP1 PUSH2 0x4382 JUMP JUMPDEST PUSH1 0x40 MLOAD DUP1 SWAP2 SUB SWAP1 REVERT JUMPDEST DUP2 PUSH1 0x3 PUSH1 0x0 DUP6 PUSH20 0xFFFFFFFFFFFFFFFFFFFFFFFFFFFFFFFFFFFFFFFF AND PUSH20 0xFFFFFFFFFFFFFFFFFFFFFFFFFFFFFFFFFFFFFFFF AND DUP2 MSTORE PUSH1 0x20 ADD SWAP1 DUP2 MSTORE PUSH1 0x20 ADD PUSH1 0x0 KECCAK256 PUSH1 0x0 PUSH2 0x100 EXP DUP2 SLOAD DUP2 PUSH1 0xFF MUL NOT AND SWAP1 DUP4 PUSH1 0xFF AND MUL OR SWAP1 SSTORE POP POP POP POP JUMP JUMPDEST PUSH2 0xFD3 PUSH2 0x2F96 JUMP JUMPDEST PUSH1 0x0 DUP3 DUP1 MLOAD SWAP1 PUSH1 0x20 ADD KECCAK256 SWAP1 POP PUSH1 0x5 PUSH1 0x0 DUP3 DUP2 MSTORE PUSH1 0x20 ADD SWAP1 DUP2 MSTORE PUSH1 0x20 ADD PUSH1 0x0 KECCAK256 PUSH1 0x40 MLOAD DUP1 PUSH2 0x120 ADD PUSH1 0x40 MSTORE SWAP1 DUP2 PUSH1 0x0 DUP3 ADD DUP1 SLOAD PUSH2 0x100E SWAP1 PUSH2 0x3F89 JUMP JUMPDEST DUP1 PUSH1 0x1F ADD PUSH1 0x20 DUP1 SWAP2 DIV MUL PUSH1 0x20 ADD PUSH1 0x40 MLOAD SWAP1 DUP2 ADD PUSH1 0x40 MSTORE DUP1 SWAP3 SWAP2 SWAP1 DUP2 DUP2 MSTORE PUSH1 0x20 ADD DUP3 DUP1 SLOAD PUSH2 0x103A SWAP1 PUSH2 0x3F89 JUMP JUMPDEST DUP1 ISZERO PUSH2 0x1087 JUMPI DUP1 PUSH1 0x1F LT PUSH2 0x105C JUMPI PUSH2 0x100 DUP1 DUP4 SLOAD DIV MUL DUP4 MSTORE SWAP2 PUSH1 0x20 ADD SWAP2 PUSH2 0x1087 JUMP JUMPDEST DUP3 ADD SWAP2 SWAP1 PUSH1 0x0 MSTORE PUSH1 0x20 PUSH1 0x0 KECCAK256 SWAP1 JUMPDEST DUP2 SLOAD DUP2 MSTORE SWAP1 PUSH1 0x1 ADD SWAP1 PUSH1 0x20 ADD DUP1 DUP4 GT PUSH2 0x106A JUMPI DUP3 SWAP1 SUB PUSH1 0x1F AND DUP3 ADD SWAP2 JUMPDEST POP POP POP POP POP DUP2 MSTORE PUSH1 0x20 ADD PUSH1 0x1 DUP3 ADD DUP1 SLOAD PUSH2 0x10A0 SWAP1 PUSH2 0x3F89 JUMP JUMPDEST DUP1 PUSH1 0x1F ADD PUSH1 0x20 DUP1 SWAP2 DIV MUL PUSH1 0x20 ADD PUSH1 0x40 MLOAD SWAP1 DUP2 ADD PUSH1 0x40 MSTORE DUP1 SWAP3 SWAP2 SWAP1 DUP2 DUP2 MSTORE PUSH1 0x20 ADD DUP3 DUP1 SLOAD PUSH2 0x10CC SWAP1 PUSH2 0x3F89 JUMP JUMPDEST DUP1 ISZERO PUSH2 0x1119 JUMPI DUP1 PUSH1 0x1F LT PUSH2 0x10EE JUMPI PUSH2 0x100 DUP1 DUP4 SLOAD DIV MUL DUP4 MSTORE SWAP2 PUSH1 0x20 ADD SWAP2 PUSH2 0x1119 JUMP JUMPDEST DUP3 ADD SWAP2 SWAP1 PUSH1 0x0 MSTORE PUSH1 0x20 PUSH1 0x0 KECCAK256 SWAP1 JUMPDEST DUP2 SLOAD DUP2 MSTORE SWAP1 PUSH1 0x1 ADD SWAP1 PUSH1 0x20 ADD DUP1 DUP4 GT PUSH2 0x10FC JUMPI DUP3 SWAP1 SUB PUSH1 0x1F AND DUP3 ADD SWAP2 JUMPDEST POP POP POP POP POP DUP2 MSTORE PUSH1 0x20 ADD PUSH1 0x2 DUP3 ADD PUSH1 0x0 SWAP1 SLOAD SWAP1 PUSH2 0x100 EXP SWAP1 DIV PUSH1 0xFF AND PUSH1 0x5 DUP2 GT ISZERO PUSH2 0x1147 JUMPI PUSH2 0x1146 PUSH2 0x3675 JUMP JUMPDEST JUMPDEST PUSH1 0x5 DUP2 GT ISZERO PUSH2 0x1159 JUMPI PUSH2 0x1158 PUSH2 0x3675 JUMP JUMPDEST JUMPDEST DUP2 MSTORE PUSH1 0x20 ADD PUSH1 0x2 DUP3 ADD PUSH1 0x1 SWAP1 SLOAD SWAP1 PUSH2 0x100 EXP SWAP1 DIV PUSH1 0xFF AND PUSH1 0x3 DUP2 GT ISZERO PUSH2 0x1182 JUMPI PUSH2 0x1181 PUSH2 0x3675 JUMP JUMPDEST JUMPDEST PUSH1 0x3 DUP2 GT ISZERO PUSH2 0x1194 JUMPI PUSH2 0x1193 PUSH2 0x3675 JUMP JUMPDEST JUMPDEST DUP2 MSTORE PUSH1 0x20 ADD PUSH1 0x3 DUP3 ADD SLOAD DUP2 MSTORE PUSH1 0x20 ADD PUSH1 0x4 DUP3 ADD PUSH1 0x0 SWAP1 SLOAD SWAP1 PUSH2 0x100 EXP SWAP1 DIV PUSH20 0xFFFFFFFFFFFFFFFFFFFFFFFFFFFFFFFFFFFFFFFF AND PUSH20 0xFFFFFFFFFFFFFFFFFFFFFFFFFFFFFFFFFFFFFFFF AND PUSH20 0xFFFFFFFFFFFFFFFFFFFFFFFFFFFFFFFFFFFFFFFF AND DUP2 MSTORE PUSH1 0x20 ADD PUSH1 0x5 DUP3 ADD SLOAD DUP2 MSTORE PUSH1 0x20 ADD PUSH1 0x6 DUP3 ADD SLOAD DUP2 MSTORE PUSH1 0x20 ADD PUSH1 0x7 DUP3 ADD SLOAD DUP2 MSTORE POP POP SWAP2 POP POP SWAP2 SWAP1 POP JUMP JUMPDEST PUSH1 0x0 DUP1 SLOAD SWAP1 PUSH2 0x100 EXP SWAP1 DIV PUSH20 0xFFFFFFFFFFFFFFFFFFFFFFFFFFFFFFFFFFFFFFFF AND PUSH20 0xFFFFFFFFFFFFFFFFFFFFFFFFFFFFFFFFFFFFFFFF AND ORIGIN PUSH20 0xFFFFFFFFFFFFFFFFFFFFFFFFFFFFFFFFFFFFFFFF AND EQ PUSH2 0x12AC JUMPI PUSH1 0x40 MLOAD PUSH32 0x8C379A000000000000000000000000000000000000000000000000000000000 DUP2 MSTORE PUSH1 0x4 ADD PUSH2 0x12A3 SWAP1 PUSH2 0x3B71 JUMP JUMPDEST PUSH1 0x40 MLOAD DUP1 SWAP2 SUB SWAP1 REVERT JUMPDEST PUSH2 0x12B5 DUP2 PUSH2 0x904 JUMP JUMPDEST PUSH2 0x12F4 JUMPI PUSH1 0x40 MLOAD PUSH32 0x8C379A000000000000000000000000000000000000000000000000000000000 DUP2 MSTORE PUSH1 0x4 ADD PUSH2 0x12EB SWAP1 PUSH2 0x4382 JUMP JUMPDEST PUSH1 0x40 MLOAD DUP1 SWAP2 SUB SWAP1 REVERT JUMPDEST PUSH2 0x12FD DUP3 PUSH2 0x2A8A JUMP JUMPDEST PUSH2 0x133C JUMPI PUSH1 0x40 MLOAD PUSH32 0x8C379A000000000000000000000000000000000000000000000000000000000 DUP2 MSTORE PUSH1 0x4 ADD PUSH2 0x1333 SWAP1 PUSH2 0x43EE JUMP JUMPDEST PUSH1 0x40 MLOAD DUP1 SWAP2 SUB SWAP1 REVERT JUMPDEST PUSH1 0x3 PUSH1 0x0 DUP4 PUSH20 0xFFFFFFFFFFFFFFFFFFFFFFFFFFFFFFFFFFFFFFFF AND PUSH20 0xFFFFFFFFFFFFFFFFFFFFFFFFFFFFFFFFFFFFFFFF AND DUP2 MSTORE PUSH1 0x20 ADD SWAP1 DUP2 MSTORE PUSH1 0x20 ADD PUSH1 0x0 KECCAK256 PUSH1 0x0 PUSH2 0x100 EXP DUP2 SLOAD SWAP1 PUSH1 0xFF MUL NOT AND SWAP1 SSTORE PUSH2 0x1394 DUP3 PUSH2 0x5BB JUMP JUMPDEST ISZERO PUSH2 0x13E9 JUMPI PUSH1 0x2 PUSH1 0x0 DUP4 PUSH20 0xFFFFFFFFFFFFFFFFFFFFFFFFFFFFFFFFFFFFFFFF AND PUSH20 0xFFFFFFFFFFFFFFFFFFFFFFFFFFFFFFFFFFFFFFFF AND DUP2 MSTORE PUSH1 0x20 ADD SWAP1 DUP2 MSTORE PUSH1 0x20 ADD PUSH1 0x0 KECCAK256 PUSH1 0x0 PUSH2 0x100 EXP DUP2 SLOAD SWAP1 PUSH1 0xFF MUL NOT AND SWAP1 SSTORE JUMPDEST POP POP JUMP JUMPDEST PUSH1 0x0 DUP1 PUSH2 0x13F9 DUP4 PUSH2 0xFCB JUMP JUMPDEST PUSH1 0xC0 ADD MLOAD GT SWAP1 POP SWAP2 SWAP1 POP JUMP JUMPDEST PUSH2 0x140D PUSH2 0x301C JUMP JUMPDEST PUSH1 0x0 DUP1 SLOAD SWAP1 PUSH2 0x100 EXP SWAP1 DIV PUSH20 0xFFFFFFFFFFFFFFFFFFFFFFFFFFFFFFFFFFFFFFFF AND PUSH20 0xFFFFFFFFFFFFFFFFFFFFFFFFFFFFFFFFFFFFFFFF AND ORIGIN PUSH20 0xFFFFFFFFFFFFFFFFFFFFFFFFFFFFFFFFFFFFFFFF AND EQ PUSH2 0x149B JUMPI PUSH1 0x40 MLOAD PUSH32 0x8C379A000000000000000000000000000000000000000000000000000000000 DUP2 MSTORE PUSH1 0x4 ADD PUSH2 0x1492 SWAP1 PUSH2 0x3B71 JUMP JUMPDEST PUSH1 0x40 MLOAD DUP1 SWAP2 SUB SWAP1 REVERT JUMPDEST PUSH2 0x14A4 DUP3 PUSH2 0x13ED JUMP JUMPDEST PUSH2 0x14E3 JUMPI PUSH1 0x40 MLOAD PUSH32 0x8C379A000000000000000000000000000000000000000000000000000000000 DUP2 MSTORE PUSH1 0x4 ADD PUSH2 0x14DA SWAP1 PUSH2 0x3BDD JUMP JUMPDEST PUSH1 0x40 MLOAD DUP1 SWAP2 SUB SWAP1 REVERT JUMPDEST PUSH1 0x0 PUSH2 0x14EE DUP4 PUSH2 0xFCB JUMP JUMPDEST SWAP1 POP PUSH1 0x0 PUSH1 0x5 DUP2 GT ISZERO PUSH2 0x1504 JUMPI PUSH2 0x1503 PUSH2 0x3675 JUMP JUMPDEST JUMPDEST DUP2 PUSH1 0x40 ADD MLOAD PUSH1 0x5 DUP2 GT ISZERO PUSH2 0x151B JUMPI PUSH2 0x151A PUSH2 0x3675 JUMP JUMPDEST JUMPDEST EQ PUSH2 0x155B JUMPI PUSH1 0x40 MLOAD PUSH32 0x8C379A000000000000000000000000000000000000000000000000000000000 DUP2 MSTORE PUSH1 0x4 ADD PUSH2 0x1552 SWAP1 PUSH2 0x445A JUMP JUMPDEST PUSH1 0x40 MLOAD DUP1 SWAP2 SUB SWAP1 REVERT JUMPDEST PUSH1 0x0 DUP4 DUP1 MLOAD SWAP1 PUSH1 0x20 ADD KECCAK256 SWAP1 POP PUSH1 0x5 PUSH1 0x0 DUP3 DUP2 MSTORE PUSH1 0x20 ADD SWAP1 DUP2 MSTORE PUSH1 0x20 ADD PUSH1 0x0 KECCAK256 PUSH1 0x0 DUP1 DUP3 ADD PUSH1 0x0 PUSH2 0x158B SWAP2 SWAP1 PUSH2 0x306B JUMP JUMPDEST PUSH1 0x1 DUP3 ADD PUSH1 0x0 PUSH2 0x159B SWAP2 SWAP1 PUSH2 0x306B JUMP JUMPDEST PUSH1 0x2 DUP3 ADD PUSH1 0x0 PUSH2 0x100 EXP DUP2 SLOAD SWAP1 PUSH1 0xFF MUL NOT AND SWAP1 SSTORE PUSH1 0x2 DUP3 ADD PUSH1 0x1 PUSH2 0x100 EXP DUP2 SLOAD SWAP1 PUSH1 0xFF MUL NOT AND SWAP1 SSTORE PUSH1 0x3 DUP3 ADD PUSH1 0x0 SWAP1 SSTORE PUSH1 0x4 DUP3 ADD PUSH1 0x0 PUSH2 0x100 EXP DUP2 SLOAD SWAP1 PUSH20 0xFFFFFFFFFFFFFFFFFFFFFFFFFFFFFFFFFFFFFFFF MUL NOT AND SWAP1 SSTORE PUSH1 0x5 DUP3 ADD PUSH1 0x0 SWAP1 SSTORE PUSH1 0x6 DUP3 ADD PUSH1 0x0 SWAP1 SSTORE PUSH1 0x7 DUP3 ADD PUSH1 0x0 SWAP1 SSTORE POP POP PUSH1 0x40 MLOAD DUP1 PUSH1 0x80 ADD PUSH1 0x40 MSTORE DUP1 DUP3 DUP2 MSTORE PUSH1 0x20 ADD DUP6 DUP2 MSTORE PUSH1 0x20 ADD PUSH1 0x5 DUP1 DUP2 GT ISZERO PUSH2 0x1636 JUMPI PUSH2 0x1635 PUSH2 0x3675 JUMP JUMPDEST JUMPDEST DUP2 MSTORE PUSH1 0x20 ADD DUP4 PUSH1 0x60 ADD MLOAD PUSH1 0x3 DUP2 GT ISZERO PUSH2 0x1652 JUMPI PUSH2 0x1651 PUSH2 0x3675 JUMP JUMPDEST JUMPDEST DUP2 MSTORE POP SWAP3 POP POP POP SWAP2 SWAP1 POP JUMP JUMPDEST PUSH2 0x1666 PUSH2 0x301C JUMP JUMPDEST PUSH1 0x0 DUP1 SLOAD SWAP1 PUSH2 0x100 EXP SWAP1 DIV PUSH20 0xFFFFFFFFFFFFFFFFFFFFFFFFFFFFFFFFFFFFFFFF AND PUSH20 0xFFFFFFFFFFFFFFFFFFFFFFFFFFFFFFFFFFFFFFFF AND ORIGIN PUSH20 0xFFFFFFFFFFFFFFFFFFFFFFFFFFFFFFFFFFFFFFFF AND EQ PUSH2 0x16F4 JUMPI PUSH1 0x40 MLOAD PUSH32 0x8C379A000000000000000000000000000000000000000000000000000000000 DUP2 MSTORE PUSH1 0x4 ADD PUSH2 0x16EB SWAP1 PUSH2 0x3B71 JUMP JUMPDEST PUSH1 0x40 MLOAD DUP1 SWAP2 SUB SWAP1 REVERT JUMPDEST PUSH1 0x0 PUSH2 0x16FF DUP4 PUSH2 0xFCB JUMP JUMPDEST SWAP1 POP PUSH1 0x0 DUP2 PUSH1 0xC0 ADD MLOAD GT PUSH2 0x1748 JUMPI PUSH1 0x40 MLOAD PUSH32 0x8C379A000000000000000000000000000000000000000000000000000000000 DUP2 MSTORE PUSH1 0x4 ADD PUSH2 0x173F SWAP1 PUSH2 0x3BDD JUMP JUMPDEST PUSH1 0x40 MLOAD DUP1 SWAP2 SUB SWAP1 REVERT JUMPDEST PUSH1 0x1 PUSH1 0x5 DUP2 GT ISZERO PUSH2 0x175C JUMPI PUSH2 0x175B PUSH2 0x3675 JUMP JUMPDEST JUMPDEST DUP2 PUSH1 0x40 ADD MLOAD PUSH1 0x5 DUP2 GT ISZERO PUSH2 0x1773 JUMPI PUSH2 0x1772 PUSH2 0x3675 JUMP JUMPDEST JUMPDEST EQ PUSH2 0x17B3 JUMPI PUSH1 0x40 MLOAD PUSH32 0x8C379A000000000000000000000000000000000000000000000000000000000 DUP2 MSTORE PUSH1 0x4 ADD PUSH2 0x17AA SWAP1 PUSH2 0x44C6 JUMP JUMPDEST PUSH1 0x40 MLOAD DUP1 SWAP2 SUB SWAP1 REVERT JUMPDEST PUSH1 0x0 PUSH1 0x3 SWAP1 POP PUSH1 0x1 PUSH1 0x3 DUP2 GT ISZERO PUSH2 0x17CD JUMPI PUSH2 0x17CC PUSH2 0x3675 JUMP JUMPDEST JUMPDEST DUP3 PUSH1 0x60 ADD MLOAD PUSH1 0x3 DUP2 GT ISZERO PUSH2 0x17E4 JUMPI PUSH2 0x17E3 PUSH2 0x3675 JUMP JUMPDEST JUMPDEST SUB PUSH2 0x17F2 JUMPI PUSH1 0x9 SWAP1 POP PUSH2 0x1861 JUMP JUMPDEST PUSH1 0x2 PUSH1 0x3 DUP2 GT ISZERO PUSH2 0x1806 JUMPI PUSH2 0x1805 PUSH2 0x3675 JUMP JUMPDEST JUMPDEST DUP3 PUSH1 0x60 ADD MLOAD PUSH1 0x3 DUP2 GT ISZERO PUSH2 0x181D JUMPI PUSH2 0x181C PUSH2 0x3675 JUMP JUMPDEST JUMPDEST SUB PUSH2 0x182B JUMPI PUSH1 0xC SWAP1 POP PUSH2 0x1860 JUMP JUMPDEST PUSH1 0x3 DUP1 DUP2 GT ISZERO PUSH2 0x183E JUMPI PUSH2 0x183D PUSH2 0x3675 JUMP JUMPDEST JUMPDEST DUP3 PUSH1 0x60 ADD MLOAD PUSH1 0x3 DUP2 GT ISZERO PUSH2 0x1855 JUMPI PUSH2 0x1854 PUSH2 0x3675 JUMP JUMPDEST JUMPDEST SUB PUSH2 0x185F JUMPI PUSH1 0x12 SWAP1 POP JUMPDEST JUMPDEST JUMPDEST DUP1 PUSH1 0xFF AND PUSH2 0x186E DUP6 PUSH2 0x934 JUMP JUMPDEST LT ISZERO PUSH2 0x18AF JUMPI PUSH1 0x40 MLOAD PUSH32 0x8C379A000000000000000000000000000000000000000000000000000000000 DUP2 MSTORE PUSH1 0x4 ADD PUSH2 0x18A6 SWAP1 PUSH2 0x4558 JUMP JUMPDEST PUSH1 0x40 MLOAD DUP1 SWAP2 SUB SWAP1 REVERT JUMPDEST PUSH1 0x0 DUP1 PUSH1 0x0 DUP1 DUP8 DUP1 MLOAD SWAP1 PUSH1 0x20 ADD KECCAK256 SWAP1 POP PUSH1 0x0 PUSH1 0x6 PUSH1 0x0 DUP4 DUP2 MSTORE PUSH1 0x20 ADD SWAP1 DUP2 MSTORE PUSH1 0x20 ADD PUSH1 0x0 KECCAK256 DUP1 SLOAD DUP1 PUSH1 0x20 MUL PUSH1 0x20 ADD PUSH1 0x40 MLOAD SWAP1 DUP2 ADD PUSH1 0x40 MSTORE DUP1 SWAP3 SWAP2 SWAP1 DUP2 DUP2 MSTORE PUSH1 0x20 ADD PUSH1 0x0 SWAP1 JUMPDEST DUP3 DUP3 LT ISZERO PUSH2 0x19DE JUMPI DUP4 DUP3 SWAP1 PUSH1 0x0 MSTORE PUSH1 0x20 PUSH1 0x0 KECCAK256 SWAP1 PUSH1 0x2 MUL ADD PUSH1 0x40 MLOAD DUP1 PUSH1 0x80 ADD PUSH1 0x40 MSTORE SWAP1 DUP2 PUSH1 0x0 DUP3 ADD PUSH1 0x0 SWAP1 SLOAD SWAP1 PUSH2 0x100 EXP SWAP1 DIV PUSH20 0xFFFFFFFFFFFFFFFFFFFFFFFFFFFFFFFFFFFFFFFF AND PUSH20 0xFFFFFFFFFFFFFFFFFFFFFFFFFFFFFFFFFFFFFFFF AND PUSH20 0xFFFFFFFFFFFFFFFFFFFFFFFFFFFFFFFFFFFFFFFF AND DUP2 MSTORE PUSH1 0x20 ADD PUSH1 0x0 DUP3 ADD PUSH1 0x14 SWAP1 SLOAD SWAP1 PUSH2 0x100 EXP SWAP1 DIV PUSH1 0xFF AND PUSH1 0xFF AND PUSH1 0xFF AND DUP2 MSTORE PUSH1 0x20 ADD PUSH1 0x0 DUP3 ADD PUSH1 0x15 SWAP1 SLOAD SWAP1 PUSH2 0x100 EXP SWAP1 DIV PUSH1 0xFF AND PUSH1 0x3 DUP2 GT ISZERO PUSH2 0x19AF JUMPI PUSH2 0x19AE PUSH2 0x3675 JUMP JUMPDEST JUMPDEST PUSH1 0x3 DUP2 GT ISZERO PUSH2 0x19C1 JUMPI PUSH2 0x19C0 PUSH2 0x3675 JUMP JUMPDEST JUMPDEST DUP2 MSTORE PUSH1 0x20 ADD PUSH1 0x1 DUP3 ADD SLOAD DUP2 MSTORE POP POP DUP2 MSTORE PUSH1 0x20 ADD SWAP1 PUSH1 0x1 ADD SWAP1 PUSH2 0x18F4 JUMP JUMPDEST POP POP POP POP SWAP1 POP PUSH1 0x0 JUMPDEST DUP2 MLOAD DUP2 LT ISZERO PUSH2 0x1AC7 JUMPI PUSH1 0x1 PUSH1 0x3 DUP2 GT ISZERO PUSH2 0x1A04 JUMPI PUSH2 0x1A03 PUSH2 0x3675 JUMP JUMPDEST JUMPDEST DUP3 DUP3 DUP2 MLOAD DUP2 LT PUSH2 0x1A17 JUMPI PUSH2 0x1A16 PUSH2 0x4578 JUMP JUMPDEST JUMPDEST PUSH1 0x20 MUL PUSH1 0x20 ADD ADD MLOAD PUSH1 0x40 ADD MLOAD PUSH1 0x3 DUP2 GT ISZERO PUSH2 0x1A35 JUMPI PUSH2 0x1A34 PUSH2 0x3675 JUMP JUMPDEST JUMPDEST SUB PUSH2 0x1A4D JUMPI DUP6 DUP1 PUSH2 0x1A45 SWAP1 PUSH2 0x45A7 JUMP JUMPDEST SWAP7 POP POP PUSH2 0x1ABA JUMP JUMPDEST PUSH1 0x2 PUSH1 0x3 DUP2 GT ISZERO PUSH2 0x1A61 JUMPI PUSH2 0x1A60 PUSH2 0x3675 JUMP JUMPDEST JUMPDEST DUP3 DUP3 DUP2 MLOAD DUP2 LT PUSH2 0x1A74 JUMPI PUSH2 0x1A73 PUSH2 0x4578 JUMP JUMPDEST JUMPDEST PUSH1 0x20 MUL PUSH1 0x20 ADD ADD MLOAD PUSH1 0x40 ADD MLOAD PUSH1 0x3 DUP2 GT ISZERO PUSH2 0x1A92 JUMPI PUSH2 0x1A91 PUSH2 0x3675 JUMP JUMPDEST JUMPDEST SUB PUSH2 0x1AAA JUMPI DUP5 DUP1 PUSH2 0x1AA2 SWAP1 PUSH2 0x45A7 JUMP JUMPDEST SWAP6 POP POP PUSH2 0x1AB9 JUMP JUMPDEST DUP4 DUP1 PUSH2 0x1AB5 SWAP1 PUSH2 0x45A7 JUMP JUMPDEST SWAP5 POP POP JUMPDEST JUMPDEST DUP1 DUP1 PUSH1 0x1 ADD SWAP2 POP POP PUSH2 0x19E7 JUMP JUMPDEST POP PUSH1 0x0 DUP5 DUP7 GT PUSH2 0x1AD8 JUMPI PUSH1 0x3 PUSH2 0x1ADB JUMP JUMPDEST PUSH1 0x2 JUMPDEST SWAP1 POP DUP1 PUSH1 0x5 PUSH1 0x0 DUP6 DUP2 MSTORE PUSH1 0x20 ADD SWAP1 DUP2 MSTORE PUSH1 0x20 ADD PUSH1 0x0 KECCAK256 PUSH1 0x2 ADD PUSH1 0x0 PUSH2 0x100 EXP DUP2 SLOAD DUP2 PUSH1 0xFF MUL NOT AND SWAP1 DUP4 PUSH1 0x5 DUP2 GT ISZERO PUSH2 0x1B16 JUMPI PUSH2 0x1B15 PUSH2 0x3675 JUMP JUMPDEST JUMPDEST MUL OR SWAP1 SSTORE POP TIMESTAMP PUSH1 0x5 PUSH1 0x0 DUP6 DUP2 MSTORE PUSH1 0x20 ADD SWAP1 DUP2 MSTORE PUSH1 0x20 ADD PUSH1 0x0 KECCAK256 PUSH1 0x7 ADD DUP2 SWAP1 SSTORE POP PUSH1 0x2 PUSH1 0x5 DUP2 GT ISZERO PUSH2 0x1B4A JUMPI PUSH2 0x1B49 PUSH2 0x3675 JUMP JUMPDEST JUMPDEST DUP2 PUSH1 0x5 DUP2 GT ISZERO PUSH2 0x1B5D JUMPI PUSH2 0x1B5C PUSH2 0x3675 JUMP JUMPDEST JUMPDEST SUB PUSH2 0x1C18 JUMPI PUSH1 0x2 PUSH1 0x3 DUP2 GT ISZERO PUSH2 0x1B76 JUMPI PUSH2 0x1B75 PUSH2 0x3675 JUMP JUMPDEST JUMPDEST DUP9 PUSH1 0x60 ADD MLOAD PUSH1 0x3 DUP2 GT ISZERO PUSH2 0x1B8D JUMPI PUSH2 0x1B8C PUSH2 0x3675 JUMP JUMPDEST JUMPDEST SUB PUSH2 0x1BA2 JUMPI DUP8 PUSH1 0x80 ADD MLOAD PUSH1 0x1 DUP2 SWAP1 SSTORE POP PUSH2 0x1C17 JUMP JUMPDEST PUSH1 0x3 DUP1 DUP2 GT ISZERO PUSH2 0x1BB5 JUMPI PUSH2 0x1BB4 PUSH2 0x3675 JUMP JUMPDEST JUMPDEST DUP9 PUSH1 0x60 ADD MLOAD PUSH1 0x3 DUP2 GT ISZERO PUSH2 0x1BCC JUMPI PUSH2 0x1BCB PUSH2 0x3675 JUMP JUMPDEST JUMPDEST SUB PUSH2 0x1C16 JUMPI DUP8 PUSH1 0xA0 ADD MLOAD PUSH1 0x0 DUP1 PUSH2 0x100 EXP DUP2 SLOAD DUP2 PUSH20 0xFFFFFFFFFFFFFFFFFFFFFFFFFFFFFFFFFFFFFFFF MUL NOT AND SWAP1 DUP4 PUSH20 0xFFFFFFFFFFFFFFFFFFFFFFFFFFFFFFFFFFFFFFFF AND MUL OR SWAP1 SSTORE POP JUMPDEST JUMPDEST JUMPDEST PUSH1 0x40 MLOAD DUP1 PUSH1 0x80 ADD PUSH1 0x40 MSTORE DUP1 DUP5 DUP2 MSTORE PUSH1 0x20 ADD DUP12 DUP2 MSTORE PUSH1 0x20 ADD DUP3 PUSH1 0x5 DUP2 GT ISZERO PUSH2 0x1C42 JUMPI PUSH2 0x1C41 PUSH2 0x3675 JUMP JUMPDEST JUMPDEST DUP2 MSTORE PUSH1 0x20 ADD DUP10 PUSH1 0x60 ADD MLOAD PUSH1 0x3 DUP2 GT ISZERO PUSH2 0x1C5E JUMPI PUSH2 0x1C5D PUSH2 0x3675 JUMP JUMPDEST JUMPDEST DUP2 MSTORE POP SWAP9 POP POP POP POP POP POP POP POP POP SWAP2 SWAP1 POP JUMP JUMPDEST PUSH1 0x0 DUP1 SLOAD SWAP1 PUSH2 0x100 EXP SWAP1 DIV PUSH20 0xFFFFFFFFFFFFFFFFFFFFFFFFFFFFFFFFFFFFFFFF AND PUSH20 0xFFFFFFFFFFFFFFFFFFFFFFFFFFFFFFFFFFFFFFFF AND ORIGIN PUSH20 0xFFFFFFFFFFFFFFFFFFFFFFFFFFFFFFFFFFFFFFFF AND EQ DUP1 PUSH2 0x1CCF JUMPI POP PUSH2 0x1CCE ORIGIN PUSH2 0x2A8A JUMP JUMPDEST JUMPDEST PUSH2 0x1D0E JUMPI PUSH1 0x40 MLOAD PUSH32 0x8C379A000000000000000000000000000000000000000000000000000000000 DUP2 MSTORE PUSH1 0x4 ADD PUSH2 0x1D05 SWAP1 PUSH2 0x3D6D JUMP JUMPDEST PUSH1 0x40 MLOAD DUP1 SWAP2 SUB SWAP1 REVERT JUMPDEST PUSH1 0x0 DUP1 SLOAD SWAP1 PUSH2 0x100 EXP SWAP1 DIV PUSH20 0xFFFFFFFFFFFFFFFFFFFFFFFFFFFFFFFFFFFFFFFF AND PUSH20 0xFFFFFFFFFFFFFFFFFFFFFFFFFFFFFFFFFFFFFFFF AND ORIGIN PUSH20 0xFFFFFFFFFFFFFFFFFFFFFFFFFFFFFFFFFFFFFFFF AND EQ DUP1 PUSH2 0x1DDA JUMPI POP PUSH3 0x278D00 PUSH1 0x7 PUSH1 0x0 PUSH1 0x3 PUSH1 0x0 ORIGIN PUSH20 0xFFFFFFFFFFFFFFFFFFFFFFFFFFFFFFFFFFFFFFFF AND PUSH20 0xFFFFFFFFFFFFFFFFFFFFFFFFFFFFFFFFFFFFFFFF AND DUP2 MSTORE PUSH1 0x20 ADD SWAP1 DUP2 MSTORE PUSH1 0x20 ADD PUSH1 0x0 KECCAK256 PUSH1 0x0 SWAP1 SLOAD SWAP1 PUSH2 0x100 EXP SWAP1 DIV PUSH1 0xFF AND PUSH1 0xFF AND PUSH1 0xFF AND DUP2 MSTORE PUSH1 0x20 ADD SWAP1 DUP2 MSTORE PUSH1 0x20 ADD PUSH1 0x0 KECCAK256 SLOAD PUSH2 0x1DD7 SWAP2 SWAP1 PUSH2 0x3DBC JUMP JUMPDEST TIMESTAMP LT JUMPDEST PUSH2 0x1E19 JUMPI PUSH1 0x40 MLOAD PUSH32 0x8C379A000000000000000000000000000000000000000000000000000000000 DUP2 MSTORE PUSH1 0x4 ADD PUSH2 0x1E10 SWAP1 PUSH2 0x3E3C JUMP JUMPDEST PUSH1 0x40 MLOAD DUP1 SWAP2 SUB SWAP1 REVERT JUMPDEST PUSH2 0x1E22 DUP3 PUSH2 0x13ED JUMP JUMPDEST PUSH2 0x1E61 JUMPI PUSH1 0x40 MLOAD PUSH32 0x8C379A000000000000000000000000000000000000000000000000000000000 DUP2 MSTORE PUSH1 0x4 ADD PUSH2 0x1E58 SWAP1 PUSH2 0x3BDD JUMP JUMPDEST PUSH1 0x40 MLOAD DUP1 SWAP2 SUB SWAP1 REVERT JUMPDEST PUSH1 0x0 PUSH1 0x3 DUP2 GT ISZERO PUSH2 0x1E75 JUMPI PUSH2 0x1E74 PUSH2 0x3675 JUMP JUMPDEST JUMPDEST DUP2 PUSH1 0x3 DUP2 GT ISZERO PUSH2 0x1E88 JUMPI PUSH2 0x1E87 PUSH2 0x3675 JUMP JUMPDEST JUMPDEST SUB PUSH2 0x1EC8 JUMPI PUSH1 0x40 MLOAD PUSH32 0x8C379A000000000000000000000000000000000000000000000000000000000 DUP2 MSTORE PUSH1 0x4 ADD PUSH2 0x1EBF SWAP1 PUSH2 0x463B JUMP JUMPDEST PUSH1 0x40 MLOAD DUP1 SWAP2 SUB SWAP1 REVERT JUMPDEST PUSH1 0x0 PUSH2 0x1ED3 DUP4 PUSH2 0xFCB JUMP JUMPDEST SWAP1 POP PUSH1 0x1 PUSH1 0x5 DUP2 GT ISZERO PUSH2 0x1EE9 JUMPI PUSH2 0x1EE8 PUSH2 0x3675 JUMP JUMPDEST JUMPDEST DUP2 PUSH1 0x40 ADD MLOAD PUSH1 0x5 DUP2 GT ISZERO PUSH2 0x1F00 JUMPI PUSH2 0x1EFF PUSH2 0x3675 JUMP JUMPDEST JUMPDEST EQ PUSH2 0x1F40 JUMPI PUSH1 0x40 MLOAD PUSH32 0x8C379A000000000000000000000000000000000000000000000000000000000 DUP2 MSTORE PUSH1 0x4 ADD PUSH2 0x1F37 SWAP1 PUSH2 0x46A7 JUMP JUMPDEST PUSH1 0x40 MLOAD DUP1 SWAP2 SUB SWAP1 REVERT JUMPDEST PUSH1 0x0 PUSH1 0x3 PUSH1 0x0 ORIGIN PUSH20 0xFFFFFFFFFFFFFFFFFFFFFFFFFFFFFFFFFFFFFFFF AND PUSH20 0xFFFFFFFFFFFFFFFFFFFFFFFFFFFFFFFFFFFFFFFF AND DUP2 MSTORE PUSH1 0x20 ADD SWAP1 DUP2 MSTORE PUSH1 0x20 ADD PUSH1 0x0 KECCAK256 PUSH1 0x0 SWAP1 SLOAD SWAP1 PUSH2 0x100 EXP SWAP1 DIV PUSH1 0xFF AND SWAP1 POP PUSH1 0x0 DUP5 DUP1 MLOAD SWAP1 PUSH1 0x20 ADD KECCAK256 SWAP1 POP PUSH1 0x0 PUSH1 0x6 PUSH1 0x0 DUP4 DUP2 MSTORE PUSH1 0x20 ADD SWAP1 DUP2 MSTORE PUSH1 0x20 ADD PUSH1 0x0 KECCAK256 DUP1 SLOAD DUP1 PUSH1 0x20 MUL PUSH1 0x20 ADD PUSH1 0x40 MLOAD SWAP1 DUP2 ADD PUSH1 0x40 MSTORE DUP1 SWAP3 SWAP2 SWAP1 DUP2 DUP2 MSTORE PUSH1 0x20 ADD PUSH1 0x0 SWAP1 JUMPDEST DUP3 DUP3 LT ISZERO PUSH2 0x20BC JUMPI DUP4 DUP3 SWAP1 PUSH1 0x0 MSTORE PUSH1 0x20 PUSH1 0x0 KECCAK256 SWAP1 PUSH1 0x2 MUL ADD PUSH1 0x40 MLOAD DUP1 PUSH1 0x80 ADD PUSH1 0x40 MSTORE SWAP1 DUP2 PUSH1 0x0 DUP3 ADD PUSH1 0x0 SWAP1 SLOAD SWAP1 PUSH2 0x100 EXP SWAP1 DIV PUSH20 0xFFFFFFFFFFFFFFFFFFFFFFFFFFFFFFFFFFFFFFFF AND PUSH20 0xFFFFFFFFFFFFFFFFFFFFFFFFFFFFFFFFFFFFFFFF AND PUSH20 0xFFFFFFFFFFFFFFFFFFFFFFFFFFFFFFFFFFFFFFFF AND DUP2 MSTORE PUSH1 0x20 ADD PUSH1 0x0 DUP3 ADD PUSH1 0x14 SWAP1 SLOAD SWAP1 PUSH2 0x100 EXP SWAP1 DIV PUSH1 0xFF AND PUSH1 0xFF AND PUSH1 0xFF AND DUP2 MSTORE PUSH1 0x20 ADD PUSH1 0x0 DUP3 ADD PUSH1 0x15 SWAP1 SLOAD SWAP1 PUSH2 0x100 EXP SWAP1 DIV PUSH1 0xFF AND PUSH1 0x3 DUP2 GT ISZERO PUSH2 0x208D JUMPI PUSH2 0x208C PUSH2 0x3675 JUMP JUMPDEST JUMPDEST PUSH1 0x3 DUP2 GT ISZERO PUSH2 0x209F JUMPI PUSH2 0x209E PUSH2 0x3675 JUMP JUMPDEST JUMPDEST DUP2 MSTORE PUSH1 0x20 ADD PUSH1 0x1 DUP3 ADD SLOAD DUP2 MSTORE POP POP DUP2 MSTORE PUSH1 0x20 ADD SWAP1 PUSH1 0x1 ADD SWAP1 PUSH2 0x1FD2 JUMP JUMPDEST POP POP POP POP SWAP1 POP PUSH1 0x0 JUMPDEST DUP2 MLOAD DUP2 LT ISZERO PUSH2 0x2167 JUMPI ORIGIN PUSH20 0xFFFFFFFFFFFFFFFFFFFFFFFFFFFFFFFFFFFFFFFF AND DUP3 DUP3 DUP2 MLOAD DUP2 LT PUSH2 0x20F8 JUMPI PUSH2 0x20F7 PUSH2 0x4578 JUMP JUMPDEST JUMPDEST PUSH1 0x20 MUL PUSH1 0x20 ADD ADD MLOAD PUSH1 0x0 ADD MLOAD PUSH20 0xFFFFFFFFFFFFFFFFFFFFFFFFFFFFFFFFFFFFFFFF AND SUB PUSH2 0x215A JUMPI PUSH1 0x40 MLOAD PUSH32 0x8C379A000000000000000000000000000000000000000000000000000000000 DUP2 MSTORE PUSH1 0x4 ADD PUSH2 0x2151 SWAP1 PUSH2 0x4713 JUMP JUMPDEST PUSH1 0x40 MLOAD DUP1 SWAP2 SUB SWAP1 REVERT JUMPDEST DUP1 DUP1 PUSH1 0x1 ADD SWAP2 POP POP PUSH2 0x20C5 JUMP JUMPDEST POP PUSH1 0x0 PUSH1 0x40 MLOAD DUP1 PUSH1 0x80 ADD PUSH1 0x40 MSTORE DUP1 ORIGIN PUSH20 0xFFFFFFFFFFFFFFFFFFFFFFFFFFFFFFFFFFFFFFFF AND DUP2 MSTORE PUSH1 0x20 ADD DUP6 PUSH1 0xFF AND DUP2 MSTORE PUSH1 0x20 ADD DUP8 PUSH1 0x3 DUP2 GT ISZERO PUSH2 0x21AD JUMPI PUSH2 0x21AC PUSH2 0x3675 JUMP JUMPDEST JUMPDEST DUP2 MSTORE PUSH1 0x20 ADD TIMESTAMP DUP2 MSTORE POP SWAP1 POP PUSH1 0x6 PUSH1 0x0 DUP5 DUP2 MSTORE PUSH1 0x20 ADD SWAP1 DUP2 MSTORE PUSH1 0x20 ADD PUSH1 0x0 KECCAK256 DUP2 SWAP1 DUP1 PUSH1 0x1 DUP2 SLOAD ADD DUP1 DUP3 SSTORE DUP1 SWAP2 POP POP PUSH1 0x1 SWAP1 SUB SWAP1 PUSH1 0x0 MSTORE PUSH1 0x20 PUSH1 0x0 KECCAK256 SWAP1 PUSH1 0x2 MUL ADD PUSH1 0x0 SWAP1 SWAP2 SWAP1 SWAP2 SWAP1 SWAP2 POP PUSH1 0x0 DUP3 ADD MLOAD DUP2 PUSH1 0x0 ADD PUSH1 0x0 PUSH2 0x100 EXP DUP2 SLOAD DUP2 PUSH20 0xFFFFFFFFFFFFFFFFFFFFFFFFFFFFFFFFFFFFFFFF MUL NOT AND SWAP1 DUP4 PUSH20 0xFFFFFFFFFFFFFFFFFFFFFFFFFFFFFFFFFFFFFFFF AND MUL OR SWAP1 SSTORE POP PUSH1 0x20 DUP3 ADD MLOAD DUP2 PUSH1 0x0 ADD PUSH1 0x14 PUSH2 0x100 EXP DUP2 SLOAD DUP2 PUSH1 0xFF MUL NOT AND SWAP1 DUP4 PUSH1 0xFF AND MUL OR SWAP1 SSTORE POP PUSH1 0x40 DUP3 ADD MLOAD DUP2 PUSH1 0x0 ADD PUSH1 0x15 PUSH2 0x100 EXP DUP2 SLOAD DUP2 PUSH1 0xFF MUL NOT AND SWAP1 DUP4 PUSH1 0x3 DUP2 GT ISZERO PUSH2 0x2288 JUMPI PUSH2 0x2287 PUSH2 0x3675 JUMP JUMPDEST JUMPDEST MUL OR SWAP1 SSTORE POP PUSH1 0x60 DUP3 ADD MLOAD DUP2 PUSH1 0x1 ADD SSTORE POP POP POP POP POP POP POP POP POP JUMP JUMPDEST PUSH1 0x0 DUP1 SLOAD SWAP1 PUSH2 0x100 EXP SWAP1 DIV PUSH20 0xFFFFFFFFFFFFFFFFFFFFFFFFFFFFFFFFFFFFFFFF AND PUSH20 0xFFFFFFFFFFFFFFFFFFFFFFFFFFFFFFFFFFFFFFFF AND ORIGIN PUSH20 0xFFFFFFFFFFFFFFFFFFFFFFFFFFFFFFFFFFFFFFFF AND EQ PUSH2 0x2330 JUMPI PUSH1 0x40 MLOAD PUSH32 0x8C379A000000000000000000000000000000000000000000000000000000000 DUP2 MSTORE PUSH1 0x4 ADD PUSH2 0x2327 SWAP1 PUSH2 0x3B71 JUMP JUMPDEST PUSH1 0x40 MLOAD DUP1 SWAP2 SUB SWAP1 REVERT JUMPDEST DUP2 PUSH1 0x0 PUSH20 0xFFFFFFFFFFFFFFFFFFFFFFFFFFFFFFFFFFFFFFFF AND DUP2 PUSH20 0xFFFFFFFFFFFFFFFFFFFFFFFFFFFFFFFFFFFFFFFF AND SUB PUSH2 0x23A0 JUMPI PUSH1 0x40 MLOAD PUSH32 0x8C379A000000000000000000000000000000000000000000000000000000000 DUP2 MSTORE PUSH1 0x4 ADD PUSH2 0x2397 SWAP1 PUSH2 0x4316 JUMP JUMPDEST PUSH1 0x40 MLOAD DUP1 SWAP2 SUB SWAP1 REVERT JUMPDEST DUP2 ISZERO PUSH2 0x2494 JUMPI PUSH2 0x23AF DUP4 PUSH2 0x5BB JUMP JUMPDEST ISZERO PUSH2 0x23EF JUMPI PUSH1 0x40 MLOAD PUSH32 0x8C379A000000000000000000000000000000000000000000000000000000000 DUP2 MSTORE PUSH1 0x4 ADD PUSH2 0x23E6 SWAP1 PUSH2 0x477F JUMP JUMPDEST PUSH1 0x40 MLOAD DUP1 SWAP2 SUB SWAP1 REVERT JUMPDEST PUSH2 0x23F8 DUP4 PUSH2 0x2A8A JUMP JUMPDEST PUSH2 0x2437 JUMPI PUSH1 0x40 MLOAD PUSH32 0x8C379A000000000000000000000000000000000000000000000000000000000 DUP2 MSTORE PUSH1 0x4 ADD PUSH2 0x242E SWAP1 PUSH2 0x47EB JUMP JUMPDEST PUSH1 0x40 MLOAD DUP1 SWAP2 SUB SWAP1 REVERT JUMPDEST PUSH1 0x1 PUSH1 0x2 PUSH1 0x0 DUP6 PUSH20 0xFFFFFFFFFFFFFFFFFFFFFFFFFFFFFFFFFFFFFFFF AND PUSH20 0xFFFFFFFFFFFFFFFFFFFFFFFFFFFFFFFFFFFFFFFF AND DUP2 MSTORE PUSH1 0x20 ADD SWAP1 DUP2 MSTORE PUSH1 0x20 ADD PUSH1 0x0 KECCAK256 PUSH1 0x0 PUSH2 0x100 EXP DUP2 SLOAD DUP2 PUSH1 0xFF MUL NOT AND SWAP1 DUP4 ISZERO ISZERO MUL OR SWAP1 SSTORE POP PUSH2 0x252C JUMP JUMPDEST PUSH2 0x249D DUP4 PUSH2 0x5BB JUMP JUMPDEST PUSH2 0x24DC JUMPI PUSH1 0x40 MLOAD PUSH32 0x8C379A000000000000000000000000000000000000000000000000000000000 DUP2 MSTORE PUSH1 0x4 ADD PUSH2 0x24D3 SWAP1 PUSH2 0x4857 JUMP JUMPDEST PUSH1 0x40 MLOAD DUP1 SWAP2 SUB SWAP1 REVERT JUMPDEST PUSH1 0x2 PUSH1 0x0 DUP5 PUSH20 0xFFFFFFFFFFFFFFFFFFFFFFFFFFFFFFFFFFFFFFFF AND PUSH20 0xFFFFFFFFFFFFFFFFFFFFFFFFFFFFFFFFFFFFFFFF AND DUP2 MSTORE PUSH1 0x20 ADD SWAP1 DUP2 MSTORE PUSH1 0x20 ADD PUSH1 0x0 KECCAK256 PUSH1 0x0 PUSH2 0x100 EXP DUP2 SLOAD SWAP1 PUSH1 0xFF MUL NOT AND SWAP1 SSTORE JUMPDEST POP POP POP JUMP JUMPDEST PUSH2 0x2539 PUSH2 0x301C JUMP JUMPDEST PUSH1 0x0 DUP1 SLOAD SWAP1 PUSH2 0x100 EXP SWAP1 DIV PUSH20 0xFFFFFFFFFFFFFFFFFFFFFFFFFFFFFFFFFFFFFFFF AND PUSH20 0xFFFFFFFFFFFFFFFFFFFFFFFFFFFFFFFFFFFFFFFF AND ORIGIN PUSH20 0xFFFFFFFFFFFFFFFFFFFFFFFFFFFFFFFFFFFFFFFF AND EQ PUSH2 0x25C7 JUMPI PUSH1 0x40 MLOAD PUSH32 0x8C379A000000000000000000000000000000000000000000000000000000000 DUP2 MSTORE PUSH1 0x4 ADD PUSH2 0x25BE SWAP1 PUSH2 0x3B71 JUMP JUMPDEST PUSH1 0x40 MLOAD DUP1 SWAP2 SUB SWAP1 REVERT JUMPDEST PUSH2 0x25D0 DUP3 PUSH2 0x13ED JUMP JUMPDEST PUSH2 0x260F JUMPI PUSH1 0x40 MLOAD PUSH32 0x8C379A000000000000000000000000000000000000000000000000000000000 DUP2 MSTORE PUSH1 0x4 ADD PUSH2 0x2606 SWAP1 PUSH2 0x3BDD JUMP JUMPDEST PUSH1 0x40 MLOAD DUP1 SWAP2 SUB SWAP1 REVERT JUMPDEST PUSH1 0x0 PUSH2 0x261A DUP4 PUSH2 0xFCB JUMP JUMPDEST SWAP1 POP PUSH1 0x0 PUSH1 0x5 DUP2 GT ISZERO PUSH2 0x2630 JUMPI PUSH2 0x262F PUSH2 0x3675 JUMP JUMPDEST JUMPDEST DUP2 PUSH1 0x40 ADD MLOAD PUSH1 0x5 DUP2 GT ISZERO PUSH2 0x2647 JUMPI PUSH2 0x2646 PUSH2 0x3675 JUMP JUMPDEST JUMPDEST EQ PUSH2 0x2687 JUMPI PUSH1 0x40 MLOAD PUSH32 0x8C379A000000000000000000000000000000000000000000000000000000000 DUP2 MSTORE PUSH1 0x4 ADD PUSH2 0x267E SWAP1 PUSH2 0x48E9 JUMP JUMPDEST PUSH1 0x40 MLOAD DUP1 SWAP2 SUB SWAP1 REVERT JUMPDEST PUSH1 0x0 DUP4 DUP1 MLOAD SWAP1 PUSH1 0x20 ADD KECCAK256 SWAP1 POP PUSH1 0x1 PUSH1 0x5 PUSH1 0x0 DUP4 DUP2 MSTORE PUSH1 0x20 ADD SWAP1 DUP2 MSTORE PUSH1 0x20 ADD PUSH1 0x0 KECCAK256 PUSH1 0x2 ADD PUSH1 0x0 PUSH2 0x100 EXP DUP2 SLOAD DUP2 PUSH1 0xFF MUL NOT AND SWAP1 DUP4 PUSH1 0x5 DUP2 GT ISZERO PUSH2 0x26CD JUMPI PUSH2 0x26CC PUSH2 0x3675 JUMP JUMPDEST JUMPDEST MUL OR SWAP1 SSTORE POP TIMESTAMP PUSH1 0x5 PUSH1 0x0 DUP4 DUP2 MSTORE PUSH1 0x20 ADD SWAP1 DUP2 MSTORE PUSH1 0x20 ADD PUSH1 0x0 KECCAK256 PUSH1 0x6 ADD DUP2 SWAP1 SSTORE POP PUSH1 0x40 MLOAD DUP1 PUSH1 0x80 ADD PUSH1 0x40 MSTORE DUP1 DUP3 DUP2 MSTORE PUSH1 0x20 ADD DUP6 DUP2 MSTORE PUSH1 0x20 ADD PUSH1 0x1 PUSH1 0x5 DUP2 GT ISZERO PUSH2 0x2718 JUMPI PUSH2 0x2717 PUSH2 0x3675 JUMP JUMPDEST JUMPDEST DUP2 MSTORE PUSH1 0x20 ADD DUP4 PUSH1 0x60 ADD MLOAD PUSH1 0x3 DUP2 GT ISZERO PUSH2 0x2734 JUMPI PUSH2 0x2733 PUSH2 0x3675 JUMP JUMPDEST JUMPDEST DUP2 MSTORE POP SWAP3 POP POP POP SWAP2 SWAP1 POP JUMP JUMPDEST PUSH1 0x0 DUP2 DUP1 MLOAD SWAP1 PUSH1 0x20 ADD KECCAK256 DUP4 DUP1 MLOAD SWAP1 PUSH1 0x20 ADD KECCAK256 EQ SWAP1 POP SWAP3 SWAP2 POP POP JUMP JUMPDEST PUSH1 0x0 PUSH2 0x2766 DUP3 PUSH2 0x904 JUMP JUMPDEST PUSH2 0x27A5 JUMPI PUSH1 0x40 MLOAD PUSH32 0x8C379A000000000000000000000000000000000000000000000000000000000 DUP2 MSTORE PUSH1 0x4 ADD PUSH2 0x279C SWAP1 PUSH2 0x4382 JUMP JUMPDEST PUSH1 0x40 MLOAD DUP1 SWAP2 SUB SWAP1 REVERT JUMPDEST PUSH1 0x0 PUSH1 0x7 PUSH1 0x0 DUP5 PUSH1 0xFF AND PUSH1 0xFF AND DUP2 MSTORE PUSH1 0x20 ADD SWAP1 DUP2 MSTORE PUSH1 0x20 ADD PUSH1 0x0 KECCAK256 SLOAD GT PUSH2 0x2801 JUMPI PUSH1 0x40 MLOAD PUSH32 0x8C379A000000000000000000000000000000000000000000000000000000000 DUP2 MSTORE PUSH1 0x4 ADD PUSH2 0x27F8 SWAP1 PUSH2 0x4955 JUMP JUMPDEST PUSH1 0x40 MLOAD DUP1 SWAP2 SUB SWAP1 REVERT JUMPDEST PUSH1 0x7 PUSH1 0x0 DUP4 PUSH1 0xFF AND PUSH1 0xFF AND DUP2 MSTORE PUSH1 0x20 ADD SWAP1 DUP2 MSTORE PUSH1 0x20 ADD PUSH1 0x0 KECCAK256 SLOAD SWAP1 POP SWAP2 SWAP1 POP JUMP JUMPDEST PUSH1 0x0 DUP1 SLOAD SWAP1 PUSH2 0x100 EXP SWAP1 DIV PUSH20 0xFFFFFFFFFFFFFFFFFFFFFFFFFFFFFFFFFFFFFFFF AND PUSH20 0xFFFFFFFFFFFFFFFFFFFFFFFFFFFFFFFFFFFFFFFF AND ORIGIN PUSH20 0xFFFFFFFFFFFFFFFFFFFFFFFFFFFFFFFFFFFFFFFF AND EQ PUSH2 0x28B0 JUMPI PUSH1 0x40 MLOAD PUSH32 0x8C379A000000000000000000000000000000000000000000000000000000000 DUP2 MSTORE PUSH1 0x4 ADD PUSH2 0x28A7 SWAP1 PUSH2 0x3B71 JUMP JUMPDEST PUSH1 0x40 MLOAD DUP1 SWAP2 SUB SWAP1 REVERT JUMPDEST DUP1 PUSH1 0x0 PUSH20 0xFFFFFFFFFFFFFFFFFFFFFFFFFFFFFFFFFFFFFFFF AND DUP2 PUSH20 0xFFFFFFFFFFFFFFFFFFFFFFFFFFFFFFFFFFFFFFFF AND SUB PUSH2 0x2920 JUMPI PUSH1 0x40 MLOAD PUSH32 0x8C379A000000000000000000000000000000000000000000000000000000000 DUP2 MSTORE PUSH1 0x4 ADD PUSH2 0x2917 SWAP1 PUSH2 0x4316 JUMP JUMPDEST PUSH1 0x40 MLOAD DUP1 SWAP2 SUB SWAP1 REVERT JUMPDEST PUSH1 0x0 PUSH20 0xFFFFFFFFFFFFFFFFFFFFFFFFFFFFFFFFFFFFFFFF AND DUP3 PUSH20 0xFFFFFFFFFFFFFFFFFFFFFFFFFFFFFFFFFFFFFFFF AND SUB PUSH2 0x298F JUMPI PUSH1 0x40 MLOAD PUSH32 0x8C379A000000000000000000000000000000000000000000000000000000000 DUP2 MSTORE PUSH1 0x4 ADD PUSH2 0x2986 SWAP1 PUSH2 0x4316 JUMP JUMPDEST PUSH1 0x40 MLOAD DUP1 SWAP2 SUB SWAP1 REVERT JUMPDEST PUSH1 0x0 DUP1 SLOAD SWAP1 PUSH2 0x100 EXP SWAP1 DIV PUSH20 0xFFFFFFFFFFFFFFFFFFFFFFFFFFFFFFFFFFFFFFFF AND PUSH20 0xFFFFFFFFFFFFFFFFFFFFFFFFFFFFFFFFFFFFFFFF AND DUP3 PUSH20 0xFFFFFFFFFFFFFFFFFFFFFFFFFFFFFFFFFFFFFFFF AND SUB PUSH2 0x2A1D JUMPI PUSH1 0x40 MLOAD PUSH32 0x8C379A000000000000000000000000000000000000000000000000000000000 DUP2 MSTORE PUSH1 0x4 ADD PUSH2 0x2A14 SWAP1 PUSH2 0x49E7 JUMP JUMPDEST PUSH1 0x40 MLOAD DUP1 SWAP2 SUB SWAP1 REVERT JUMPDEST DUP2 PUSH1 0x0 DUP1 PUSH2 0x100 EXP DUP2 SLOAD DUP2 PUSH20 0xFFFFFFFFFFFFFFFFFFFFFFFFFFFFFFFFFFFFFFFF MUL NOT AND SWAP1 DUP4 PUSH20 0xFFFFFFFFFFFFFFFFFFFFFFFFFFFFFFFFFFFFFFFF AND MUL OR SWAP1 SSTORE POP POP POP JUMP JUMPDEST PUSH1 0x0 DUP1 PUSH1 0x0 SWAP1 SLOAD SWAP1 PUSH2 0x100 EXP SWAP1 DIV PUSH20 0xFFFFFFFFFFFFFFFFFFFFFFFFFFFFFFFFFFFFFFFF AND SWAP1 POP SWAP1 JUMP JUMPDEST PUSH1 0x0 DUP1 PUSH1 0x3 PUSH1 0x0 DUP5 PUSH20 0xFFFFFFFFFFFFFFFFFFFFFFFFFFFFFFFFFFFFFFFF AND PUSH20 0xFFFFFFFFFFFFFFFFFFFFFFFFFFFFFFFFFFFFFFFF AND DUP2 MSTORE PUSH1 0x20 ADD SWAP1 DUP2 MSTORE PUSH1 0x20 ADD PUSH1 0x0 KECCAK256 PUSH1 0x0 SWAP1 SLOAD SWAP1 PUSH2 0x100 EXP SWAP1 DIV PUSH1 0xFF AND PUSH1 0xFF AND GT SWAP1 POP SWAP2 SWAP1 POP JUMP JUMPDEST PUSH2 0x2AEE DUP2 PUSH2 0x904 JUMP JUMPDEST PUSH2 0x2B2D JUMPI PUSH1 0x40 MLOAD PUSH32 0x8C379A000000000000000000000000000000000000000000000000000000000 DUP2 MSTORE PUSH1 0x4 ADD PUSH2 0x2B24 SWAP1 PUSH2 0x4382 JUMP JUMPDEST PUSH1 0x40 MLOAD DUP1 SWAP2 SUB SWAP1 REVERT JUMPDEST PUSH1 0x1 SLOAD CALLVALUE EQ PUSH2 0x2B71 JUMPI PUSH1 0x40 MLOAD PUSH32 0x8C379A000000000000000000000000000000000000000000000000000000000 DUP2 MSTORE PUSH1 0x4 ADD PUSH2 0x2B68 SWAP1 PUSH2 0x4A53 JUMP JUMPDEST PUSH1 0x40 MLOAD DUP1 SWAP2 SUB SWAP1 REVERT JUMPDEST PUSH3 0x278D00 PUSH1 0x7 PUSH1 0x0 DUP4 PUSH1 0xFF AND PUSH1 0xFF AND DUP2 MSTORE PUSH1 0x20 ADD SWAP1 DUP2 MSTORE PUSH1 0x20 ADD PUSH1 0x0 KECCAK256 SLOAD PUSH2 0x2B99 SWAP2 SWAP1 PUSH2 0x3DBC JUMP JUMPDEST TIMESTAMP GT PUSH2 0x2BDA JUMPI PUSH1 0x40 MLOAD PUSH32 0x8C379A000000000000000000000000000000000000000000000000000000000 DUP2 MSTORE PUSH1 0x4 ADD PUSH2 0x2BD1 SWAP1 PUSH2 0x4ABF JUMP JUMPDEST PUSH1 0x40 MLOAD DUP1 SWAP2 SUB SWAP1 REVERT JUMPDEST TIMESTAMP PUSH1 0x7 PUSH1 0x0 DUP4 PUSH1 0xFF AND PUSH1 0xFF AND DUP2 MSTORE PUSH1 0x20 ADD SWAP1 DUP2 MSTORE PUSH1 0x20 ADD PUSH1 0x0 KECCAK256 DUP2 SWAP1 SSTORE POP POP JUMP JUMPDEST PUSH2 0x2C03 PUSH2 0x301C JUMP JUMPDEST PUSH1 0x0 DUP1 SLOAD SWAP1 PUSH2 0x100 EXP SWAP1 DIV PUSH20 0xFFFFFFFFFFFFFFFFFFFFFFFFFFFFFFFFFFFFFFFF AND PUSH20 0xFFFFFFFFFFFFFFFFFFFFFFFFFFFFFFFFFFFFFFFF AND ORIGIN PUSH20 0xFFFFFFFFFFFFFFFFFFFFFFFFFFFFFFFFFFFFFFFF AND EQ PUSH2 0x2C91 JUMPI PUSH1 0x40 MLOAD PUSH32 0x8C379A000000000000000000000000000000000000000000000000000000000 DUP2 MSTORE PUSH1 0x4 ADD PUSH2 0x2C88 SWAP1 PUSH2 0x3B71 JUMP JUMPDEST PUSH1 0x40 MLOAD DUP1 SWAP2 SUB SWAP1 REVERT JUMPDEST PUSH2 0x2C9A DUP6 PUSH2 0x13ED JUMP JUMPDEST PUSH2 0x2CD9 JUMPI PUSH1 0x40 MLOAD PUSH32 0x8C379A000000000000000000000000000000000000000000000000000000000 DUP2 MSTORE PUSH1 0x4 ADD PUSH2 0x2CD0 SWAP1 PUSH2 0x3BDD JUMP JUMPDEST PUSH1 0x40 MLOAD DUP1 SWAP2 SUB SWAP1 REVERT JUMPDEST PUSH1 0x0 PUSH2 0x2CE4 DUP7 PUSH2 0xFCB JUMP JUMPDEST SWAP1 POP PUSH1 0x0 PUSH1 0x5 DUP2 GT ISZERO PUSH2 0x2CFA JUMPI PUSH2 0x2CF9 PUSH2 0x3675 JUMP JUMPDEST JUMPDEST DUP2 PUSH1 0x40 ADD MLOAD PUSH1 0x5 DUP2 GT ISZERO PUSH2 0x2D11 JUMPI PUSH2 0x2D10 PUSH2 0x3675 JUMP JUMPDEST JUMPDEST EQ PUSH2 0x2D51 JUMPI PUSH1 0x40 MLOAD PUSH32 0x8C379A000000000000000000000000000000000000000000000000000000000 DUP2 MSTORE PUSH1 0x4 ADD PUSH2 0x2D48 SWAP1 PUSH2 0x4B2B JUMP JUMPDEST PUSH1 0x40 MLOAD DUP1 SWAP2 SUB SWAP1 REVERT JUMPDEST PUSH1 0x0 DUP1 DUP7 MLOAD GT DUP1 ISZERO PUSH2 0x2D6E JUMPI POP PUSH2 0x2D6C DUP7 DUP4 PUSH1 0x20 ADD MLOAD PUSH2 0x2740 JUMP JUMPDEST ISZERO JUMPDEST SWAP1 POP PUSH1 0x0 DUP1 DUP7 LT ISZERO DUP1 ISZERO PUSH2 0x2D86 JUMPI POP DUP3 PUSH1 0x80 ADD MLOAD DUP7 EQ ISZERO JUMPDEST SWAP1 POP PUSH1 0x0 DUP1 PUSH20 0xFFFFFFFFFFFFFFFFFFFFFFFFFFFFFFFFFFFFFFFF AND DUP7 PUSH20 0xFFFFFFFFFFFFFFFFFFFFFFFFFFFFFFFFFFFFFFFF AND EQ ISZERO DUP1 ISZERO PUSH2 0x2DF6 JUMPI POP DUP4 PUSH1 0xA0 ADD MLOAD PUSH20 0xFFFFFFFFFFFFFFFFFFFFFFFFFFFFFFFFFFFFFFFF AND DUP7 PUSH20 0xFFFFFFFFFFFFFFFFFFFFFFFFFFFFFFFFFFFFFFFF AND EQ ISZERO JUMPDEST SWAP1 POP PUSH1 0x0 DUP4 DUP1 PUSH2 0x2E03 JUMPI POP DUP3 JUMPDEST DUP1 PUSH2 0x2E0B JUMPI POP DUP2 JUMPDEST SWAP1 POP DUP1 PUSH2 0x2E4D JUMPI PUSH1 0x40 MLOAD PUSH32 0x8C379A000000000000000000000000000000000000000000000000000000000 DUP2 MSTORE PUSH1 0x4 ADD PUSH2 0x2E44 SWAP1 PUSH2 0x4B97 JUMP JUMPDEST PUSH1 0x40 MLOAD DUP1 SWAP2 SUB SWAP1 REVERT JUMPDEST PUSH1 0x0 DUP11 DUP1 MLOAD SWAP1 PUSH1 0x20 ADD KECCAK256 SWAP1 POP DUP5 ISZERO PUSH2 0x2E84 JUMPI DUP10 PUSH1 0x5 PUSH1 0x0 DUP4 DUP2 MSTORE PUSH1 0x20 ADD SWAP1 DUP2 MSTORE PUSH1 0x20 ADD PUSH1 0x0 KECCAK256 PUSH1 0x1 ADD SWAP1 DUP2 PUSH2 0x2E82 SWAP2 SWAP1 PUSH2 0x4166 JUMP JUMPDEST POP JUMPDEST DUP4 ISZERO PUSH2 0x2EA6 JUMPI DUP9 PUSH1 0x5 PUSH1 0x0 DUP4 DUP2 MSTORE PUSH1 0x20 ADD SWAP1 DUP2 MSTORE PUSH1 0x20 ADD PUSH1 0x0 KECCAK256 PUSH1 0x3 ADD DUP2 SWAP1 SSTORE POP JUMPDEST DUP3 ISZERO PUSH2 0x2F02 JUMPI DUP8 PUSH1 0x5 PUSH1 0x0 DUP4 DUP2 MSTORE PUSH1 0x20 ADD SWAP1 DUP2 MSTORE PUSH1 0x20 ADD PUSH1 0x0 KECCAK256 PUSH1 0x4 ADD PUSH1 0x0 PUSH2 0x100 EXP DUP2 SLOAD DUP2 PUSH20 0xFFFFFFFFFFFFFFFFFFFFFFFFFFFFFFFFFFFFFFFF MUL NOT AND SWAP1 DUP4 PUSH20 0xFFFFFFFFFFFFFFFFFFFFFFFFFFFFFFFFFFFFFFFF AND MUL OR SWAP1 SSTORE POP JUMPDEST PUSH1 0x40 MLOAD DUP1 PUSH1 0x80 ADD PUSH1 0x40 MSTORE DUP1 DUP3 DUP2 MSTORE PUSH1 0x20 ADD DUP13 DUP2 MSTORE PUSH1 0x20 ADD DUP8 PUSH1 0x40 ADD MLOAD PUSH1 0x5 DUP2 GT ISZERO PUSH2 0x2F30 JUMPI PUSH2 0x2F2F PUSH2 0x3675 JUMP JUMPDEST JUMPDEST DUP2 MSTORE PUSH1 0x20 ADD DUP8 PUSH1 0x60 ADD MLOAD PUSH1 0x3 DUP2 GT ISZERO PUSH2 0x2F4C JUMPI PUSH2 0x2F4B PUSH2 0x3675 JUMP JUMPDEST JUMPDEST DUP2 MSTORE POP SWAP7 POP POP POP POP POP POP POP SWAP5 SWAP4 POP POP POP POP JUMP JUMPDEST PUSH1 0x40 MLOAD DUP1 PUSH1 0x60 ADD PUSH1 0x40 MSTORE DUP1 PUSH1 0x0 PUSH20 0xFFFFFFFFFFFFFFFFFFFFFFFFFFFFFFFFFFFFFFFF AND DUP2 MSTORE PUSH1 0x20 ADD PUSH1 0x0 DUP2 MSTORE PUSH1 0x20 ADD PUSH1 0x60 DUP2 MSTORE POP SWAP1 JUMP JUMPDEST PUSH1 0x40 MLOAD DUP1 PUSH2 0x120 ADD PUSH1 0x40 MSTORE DUP1 PUSH1 0x60 DUP2 MSTORE PUSH1 0x20 ADD PUSH1 0x60 DUP2 MSTORE PUSH1 0x20 ADD PUSH1 0x0 PUSH1 0x5 DUP2 GT ISZERO PUSH2 0x2FC4 JUMPI PUSH2 0x2FC3 PUSH2 0x3675 JUMP JUMPDEST JUMPDEST DUP2 MSTORE PUSH1 0x20 ADD PUSH1 0x0 PUSH1 0x3 DUP2 GT ISZERO PUSH2 0x2FDD JUMPI PUSH2 0x2FDC PUSH2 0x3675 JUMP JUMPDEST JUMPDEST DUP2 MSTORE PUSH1 0x20 ADD PUSH1 0x0 DUP2 MSTORE PUSH1 0x20 ADD PUSH1 0x0 PUSH20 0xFFFFFFFFFFFFFFFFFFFFFFFFFFFFFFFFFFFFFFFF AND DUP2 MSTORE PUSH1 0x20 ADD PUSH1 0x0 DUP2 MSTORE PUSH1 0x20 ADD PUSH1 0x0 DUP2 MSTORE PUSH1 0x20 ADD PUSH1 0x0 DUP2 MSTORE POP SWAP1 JUMP JUMPDEST PUSH1 0x40 MLOAD DUP1 PUSH1 0x80 ADD PUSH1 0x40 MSTORE DUP1 PUSH1 0x0 DUP1 NOT AND DUP2 MSTORE PUSH1 0x20 ADD PUSH1 0x60 DUP2 MSTORE PUSH1 0x20 ADD PUSH1 0x0 PUSH1 0x5 DUP2 GT ISZERO PUSH2 0x304C JUMPI PUSH2 0x304B PUSH2 0x3675 JUMP JUMPDEST JUMPDEST DUP2 MSTORE PUSH1 0x20 ADD PUSH1 0x0 PUSH1 0x3 DUP2 GT ISZERO PUSH2 0x3065 JUMPI PUSH2 0x3064 PUSH2 0x3675 JUMP JUMPDEST JUMPDEST DUP2 MSTORE POP SWAP1 JUMP JUMPDEST POP DUP1 SLOAD PUSH2 0x3077 SWAP1 PUSH2 0x3F89 JUMP JUMPDEST PUSH1 0x0 DUP3 SSTORE DUP1 PUSH1 0x1F LT PUSH2 0x3089 JUMPI POP PUSH2 0x30A8 JUMP JUMPDEST PUSH1 0x1F ADD PUSH1 0x20 SWAP1 DIV SWAP1 PUSH1 0x0 MSTORE PUSH1 0x20 PUSH1 0x0 KECCAK256 SWAP1 DUP2 ADD SWAP1 PUSH2 0x30A7 SWAP2 SWAP1 PUSH2 0x30AB JUMP JUMPDEST JUMPDEST POP JUMP JUMPDEST JUMPDEST DUP1 DUP3 GT ISZERO PUSH2 0x30C4 JUMPI PUSH1 0x0 DUP2 PUSH1 0x0 SWAP1 SSTORE POP PUSH1 0x1 ADD PUSH2 0x30AC JUMP JUMPDEST POP SWAP1 JUMP JUMPDEST PUSH1 0x0 PUSH1 0x40 MLOAD SWAP1 POP SWAP1 JUMP JUMPDEST PUSH1 0x0 DUP1 REVERT JUMPDEST PUSH1 0x0 DUP1 REVERT JUMPDEST PUSH1 0x0 PUSH20 0xFFFFFFFFFFFFFFFFFFFFFFFFFFFFFFFFFFFFFFFF DUP3 AND SWAP1 POP SWAP2 SWAP1 POP JUMP JUMPDEST PUSH1 0x0 PUSH2 0x3107 DUP3 PUSH2 0x30DC JUMP JUMPDEST SWAP1 POP SWAP2 SWAP1 POP JUMP JUMPDEST PUSH2 0x3117 DUP2 PUSH2 0x30FC JUMP JUMPDEST DUP2 EQ PUSH2 0x3122 JUMPI PUSH1 0x0 DUP1 REVERT JUMPDEST POP JUMP JUMPDEST PUSH1 0x0 DUP2 CALLDATALOAD SWAP1 POP PUSH2 0x3134 DUP2 PUSH2 0x310E JUMP JUMPDEST SWAP3 SWAP2 POP POP JUMP JUMPDEST PUSH1 0x0 PUSH1 0x20 DUP3 DUP5 SUB SLT ISZERO PUSH2 0x3150 JUMPI PUSH2 0x314F PUSH2 0x30D2 JUMP JUMPDEST JUMPDEST PUSH1 0x0 PUSH2 0x315E DUP5 DUP3 DUP6 ADD PUSH2 0x3125 JUMP JUMPDEST SWAP2 POP POP SWAP3 SWAP2 POP POP JUMP JUMPDEST PUSH1 0x0 DUP2 ISZERO ISZERO SWAP1 POP SWAP2 SWAP1 POP JUMP JUMPDEST PUSH2 0x317C DUP2 PUSH2 0x3167 JUMP JUMPDEST DUP3 MSTORE POP POP JUMP JUMPDEST PUSH1 0x0 PUSH1 0x20 DUP3 ADD SWAP1 POP PUSH2 0x3197 PUSH1 0x0 DUP4 ADD DUP5 PUSH2 0x3173 JUMP JUMPDEST SWAP3 SWAP2 POP POP JUMP JUMPDEST PUSH1 0x0 DUP1 REVERT JUMPDEST PUSH1 0x0 DUP1 REVERT JUMPDEST PUSH1 0x0 PUSH1 0x1F NOT PUSH1 0x1F DUP4 ADD AND SWAP1 POP SWAP2 SWAP1 POP JUMP JUMPDEST PUSH32 0x4E487B7100000000000000000000000000000000000000000000000000000000 PUSH1 0x0 MSTORE PUSH1 0x41 PUSH1 0x4 MSTORE PUSH1 0x24 PUSH1 0x0 REVERT JUMPDEST PUSH2 0x31F0 DUP3 PUSH2 0x31A7 JUMP JUMPDEST DUP2 ADD DUP2 DUP2 LT PUSH8 0xFFFFFFFFFFFFFFFF DUP3 GT OR ISZERO PUSH2 0x320F JUMPI PUSH2 0x320E PUSH2 0x31B8 JUMP JUMPDEST JUMPDEST DUP1 PUSH1 0x40 MSTORE POP POP POP JUMP JUMPDEST PUSH1 0x0 PUSH2 0x3222 PUSH2 0x30C8 JUMP JUMPDEST SWAP1 POP PUSH2 0x322E DUP3 DUP3 PUSH2 0x31E7 JUMP JUMPDEST SWAP2 SWAP1 POP JUMP JUMPDEST PUSH1 0x0 PUSH8 0xFFFFFFFFFFFFFFFF DUP3 GT ISZERO PUSH2 0x324E JUMPI PUSH2 0x324D PUSH2 0x31B8 JUMP JUMPDEST JUMPDEST PUSH2 0x3257 DUP3 PUSH2 0x31A7 JUMP JUMPDEST SWAP1 POP PUSH1 0x20 DUP2 ADD SWAP1 POP SWAP2 SWAP1 POP JUMP JUMPDEST DUP3 DUP2 DUP4 CALLDATACOPY PUSH1 0x0 DUP4 DUP4 ADD MSTORE POP POP POP JUMP JUMPDEST PUSH1 0x0 PUSH2 0x3286 PUSH2 0x3281 DUP5 PUSH2 0x3233 JUMP JUMPDEST PUSH2 0x3218 JUMP JUMPDEST SWAP1 POP DUP3 DUP2 MSTORE PUSH1 0x20 DUP2 ADD DUP5 DUP5 DUP5 ADD GT ISZERO PUSH2 0x32A2 JUMPI PUSH2 0x32A1 PUSH2 0x31A2 JUMP JUMPDEST JUMPDEST PUSH2 0x32AD DUP5 DUP3 DUP6 PUSH2 0x3264 JUMP JUMPDEST POP SWAP4 SWAP3 POP POP POP JUMP JUMPDEST PUSH1 0x0 DUP3 PUSH1 0x1F DUP4 ADD SLT PUSH2 0x32CA JUMPI PUSH2 0x32C9 PUSH2 0x319D JUMP JUMPDEST JUMPDEST DUP2 CALLDATALOAD PUSH2 0x32DA DUP5 DUP3 PUSH1 0x20 DUP7 ADD PUSH2 0x3273 JUMP JUMPDEST SWAP2 POP POP SWAP3 SWAP2 POP POP JUMP JUMPDEST PUSH1 0x0 DUP2 SWAP1 POP SWAP2 SWAP1 POP JUMP JUMPDEST PUSH2 0x32F6 DUP2 PUSH2 0x32E3 JUMP JUMPDEST DUP2 EQ PUSH2 0x3301 JUMPI PUSH1 0x0 DUP1 REVERT JUMPDEST POP JUMP JUMPDEST PUSH1 0x0 DUP2 CALLDATALOAD SWAP1 POP PUSH2 0x3313 DUP2 PUSH2 0x32ED JUMP JUMPDEST SWAP3 SWAP2 POP POP JUMP JUMPDEST PUSH1 0x0 DUP1 PUSH1 0x40 DUP4 DUP6 SUB SLT ISZERO PUSH2 0x3330 JUMPI PUSH2 0x332F PUSH2 0x30D2 JUMP JUMPDEST JUMPDEST PUSH1 0x0 DUP4 ADD CALLDATALOAD PUSH8 0xFFFFFFFFFFFFFFFF DUP2 GT ISZERO PUSH2 0x334E JUMPI PUSH2 0x334D PUSH2 0x30D7 JUMP JUMPDEST JUMPDEST PUSH2 0x335A DUP6 DUP3 DUP7 ADD PUSH2 0x32B5 JUMP JUMPDEST SWAP3 POP POP PUSH1 0x20 PUSH2 0x336B DUP6 DUP3 DUP7 ADD PUSH2 0x3304 JUMP JUMPDEST SWAP2 POP POP SWAP3 POP SWAP3 SWAP1 POP JUMP JUMPDEST PUSH2 0x337E DUP2 PUSH2 0x30FC JUMP JUMPDEST DUP3 MSTORE POP POP JUMP JUMPDEST PUSH2 0x338D DUP2 PUSH2 0x32E3 JUMP JUMPDEST DUP3 MSTORE POP POP JUMP JUMPDEST PUSH1 0x0 DUP2 MLOAD SWAP1 POP SWAP2 SWAP1 POP JUMP JUMPDEST PUSH1 0x0 DUP3 DUP3 MSTORE PUSH1 0x20 DUP3 ADD SWAP1 POP SWAP3 SWAP2 POP POP JUMP JUMPDEST PUSH1 0x0 JUMPDEST DUP4 DUP2 LT ISZERO PUSH2 0x33CD JUMPI DUP1 DUP3 ADD MLOAD DUP2 DUP5 ADD MSTORE PUSH1 0x20 DUP2 ADD SWAP1 POP PUSH2 0x33B2 JUMP JUMPDEST PUSH1 0x0 DUP5 DUP5 ADD MSTORE POP POP POP POP JUMP JUMPDEST PUSH1 0x0 PUSH2 0x33E4 DUP3 PUSH2 0x3393 JUMP JUMPDEST PUSH2 0x33EE DUP2 DUP6 PUSH2 0x339E JUMP JUMPDEST SWAP4 POP PUSH2 0x33FE DUP2 DUP6 PUSH1 0x20 DUP7 ADD PUSH2 0x33AF JUMP JUMPDEST PUSH2 0x3407 DUP2 PUSH2 0x31A7 JUMP JUMPDEST DUP5 ADD SWAP2 POP POP SWAP3 SWAP2 POP POP JUMP JUMPDEST PUSH1 0x0 PUSH1 0x60 DUP4 ADD PUSH1 0x0 DUP4 ADD MLOAD PUSH2 0x342A PUSH1 0x0 DUP7 ADD DUP3 PUSH2 0x3375 JUMP JUMPDEST POP PUSH1 0x20 DUP4 ADD MLOAD PUSH2 0x343D PUSH1 0x20 DUP7 ADD DUP3 PUSH2 0x3384 JUMP JUMPDEST POP PUSH1 0x40 DUP4 ADD MLOAD DUP5 DUP3 SUB PUSH1 0x40 DUP7 ADD MSTORE PUSH2 0x3455 DUP3 DUP3 PUSH2 0x33D9 JUMP JUMPDEST SWAP2 POP POP DUP1 SWAP2 POP POP SWAP3 SWAP2 POP POP JUMP JUMPDEST PUSH1 0x0 PUSH1 0x20 DUP3 ADD SWAP1 POP DUP2 DUP2 SUB PUSH1 0x0 DUP4 ADD MSTORE PUSH2 0x347C DUP2 DUP5 PUSH2 0x3412 JUMP JUMPDEST SWAP1 POP SWAP3 SWAP2 POP POP JUMP JUMPDEST PUSH2 0x348D DUP2 PUSH2 0x32E3 JUMP JUMPDEST DUP3 MSTORE POP POP JUMP JUMPDEST PUSH1 0x0 PUSH1 0x20 DUP3 ADD SWAP1 POP PUSH2 0x34A8 PUSH1 0x0 DUP4 ADD DUP5 PUSH2 0x3484 JUMP JUMPDEST SWAP3 SWAP2 POP POP JUMP JUMPDEST PUSH1 0x0 PUSH1 0xFF DUP3 AND SWAP1 POP SWAP2 SWAP1 POP JUMP JUMPDEST PUSH2 0x34C4 DUP2 PUSH2 0x34AE JUMP JUMPDEST DUP2 EQ PUSH2 0x34CF JUMPI PUSH1 0x0 DUP1 REVERT JUMPDEST POP JUMP JUMPDEST PUSH1 0x0 DUP2 CALLDATALOAD SWAP1 POP PUSH2 0x34E1 DUP2 PUSH2 0x34BB JUMP JUMPDEST SWAP3 SWAP2 POP POP JUMP JUMPDEST PUSH1 0x0 PUSH1 0x20 DUP3 DUP5 SUB SLT ISZERO PUSH2 0x34FD JUMPI PUSH2 0x34FC PUSH2 0x30D2 JUMP JUMPDEST JUMPDEST PUSH1 0x0 PUSH2 0x350B DUP5 DUP3 DUP6 ADD PUSH2 0x34D2 JUMP JUMPDEST SWAP2 POP POP SWAP3 SWAP2 POP POP JUMP JUMPDEST PUSH1 0x0 PUSH1 0x20 DUP3 DUP5 SUB SLT ISZERO PUSH2 0x352A JUMPI PUSH2 0x3529 PUSH2 0x30D2 JUMP JUMPDEST JUMPDEST PUSH1 0x0 DUP3 ADD CALLDATALOAD PUSH8 0xFFFFFFFFFFFFFFFF DUP2 GT ISZERO PUSH2 0x3548 JUMPI PUSH2 0x3547 PUSH2 0x30D7 JUMP JUMPDEST JUMPDEST PUSH2 0x3554 DUP5 DUP3 DUP6 ADD PUSH2 0x32B5 JUMP JUMPDEST SWAP2 POP POP SWAP3 SWAP2 POP POP JUMP JUMPDEST PUSH1 0x4 DUP2 LT PUSH2 0x356A JUMPI PUSH1 0x0 DUP1 REVERT JUMPDEST POP JUMP JUMPDEST PUSH1 0x0 DUP2 CALLDATALOAD SWAP1 POP PUSH2 0x357C DUP2 PUSH2 0x355D JUMP JUMPDEST SWAP3 SWAP2 POP POP JUMP JUMPDEST PUSH1 0x0 DUP1 PUSH1 0x0 DUP1 PUSH1 0x0 PUSH1 0xA0 DUP7 DUP9 SUB SLT ISZERO PUSH2 0x359E JUMPI PUSH2 0x359D PUSH2 0x30D2 JUMP JUMPDEST JUMPDEST PUSH1 0x0 DUP7 ADD CALLDATALOAD PUSH8 0xFFFFFFFFFFFFFFFF DUP2 GT ISZERO PUSH2 0x35BC JUMPI PUSH2 0x35BB PUSH2 0x30D7 JUMP JUMPDEST JUMPDEST PUSH2 0x35C8 DUP9 DUP3 DUP10 ADD PUSH2 0x32B5 JUMP JUMPDEST SWAP6 POP POP PUSH1 0x20 DUP7 ADD CALLDATALOAD PUSH8 0xFFFFFFFFFFFFFFFF DUP2 GT ISZERO PUSH2 0x35E9 JUMPI PUSH2 0x35E8 PUSH2 0x30D7 JUMP JUMPDEST JUMPDEST PUSH2 0x35F5 DUP9 DUP3 DUP10 ADD PUSH2 0x32B5 JUMP JUMPDEST SWAP5 POP POP PUSH1 0x40 PUSH2 0x3606 DUP9 DUP3 DUP10 ADD PUSH2 0x356D JUMP JUMPDEST SWAP4 POP POP PUSH1 0x60 PUSH2 0x3617 DUP9 DUP3 DUP10 ADD PUSH2 0x3304 JUMP JUMPDEST SWAP3 POP POP PUSH1 0x80 PUSH2 0x3628 DUP9 DUP3 DUP10 ADD PUSH2 0x3125 JUMP JUMPDEST SWAP2 POP POP SWAP3 SWAP6 POP SWAP3 SWAP6 SWAP1 SWAP4 POP JUMP JUMPDEST PUSH1 0x0 DUP1 PUSH1 0x40 DUP4 DUP6 SUB SLT ISZERO PUSH2 0x364C JUMPI PUSH2 0x364B PUSH2 0x30D2 JUMP JUMPDEST JUMPDEST PUSH1 0x0 PUSH2 0x365A DUP6 DUP3 DUP7 ADD PUSH2 0x3125 JUMP JUMPDEST SWAP3 POP POP PUSH1 0x20 PUSH2 0x366B DUP6 DUP3 DUP7 ADD PUSH2 0x34D2 JUMP JUMPDEST SWAP2 POP POP SWAP3 POP SWAP3 SWAP1 POP JUMP JUMPDEST PUSH32 0x4E487B7100000000000000000000000000000000000000000000000000000000 PUSH1 0x0 MSTORE PUSH1 0x21 PUSH1 0x4 MSTORE PUSH1 0x24 PUSH1 0x0 REVERT JUMPDEST PUSH1 0x6 DUP2 LT PUSH2 0x36B5 JUMPI PUSH2 0x36B4 PUSH2 0x3675 JUMP JUMPDEST JUMPDEST POP JUMP JUMPDEST PUSH1 0x0 DUP2 SWAP1 POP PUSH2 0x36C6 DUP3 PUSH2 0x36A4 JUMP JUMPDEST SWAP2 SWAP1 POP JUMP JUMPDEST PUSH1 0x0 PUSH2 0x36D6 DUP3 PUSH2 0x36B8 JUMP JUMPDEST SWAP1 POP SWAP2 SWAP1 POP JUMP JUMPDEST PUSH2 0x36E6 DUP2 PUSH2 0x36CB JUMP JUMPDEST DUP3 MSTORE POP POP JUMP JUMPDEST PUSH1 0x4 DUP2 LT PUSH2 0x36FD JUMPI PUSH2 0x36FC PUSH2 0x3675 JUMP JUMPDEST JUMPDEST POP JUMP JUMPDEST PUSH1 0x0 DUP2 SWAP1 POP PUSH2 0x370E DUP3 PUSH2 0x36EC JUMP JUMPDEST SWAP2 SWAP1 POP JUMP JUMPDEST PUSH1 0x0 PUSH2 0x371E DUP3 PUSH2 0x3700 JUMP JUMPDEST SWAP1 POP SWAP2 SWAP1 POP JUMP JUMPDEST PUSH2 0x372E DUP2 PUSH2 0x3713 JUMP JUMPDEST DUP3 MSTORE POP POP JUMP JUMPDEST PUSH1 0x0 PUSH2 0x120 DUP4 ADD PUSH1 0x0 DUP4 ADD MLOAD DUP5 DUP3 SUB PUSH1 0x0 DUP7 ADD MSTORE PUSH2 0x3752 DUP3 DUP3 PUSH2 0x33D9 JUMP JUMPDEST SWAP2 POP POP PUSH1 0x20 DUP4 ADD MLOAD DUP5 DUP3 SUB PUSH1 0x20 DUP7 ADD MSTORE PUSH2 0x376C DUP3 DUP3 PUSH2 0x33D9 JUMP JUMPDEST SWAP2 POP POP PUSH1 0x40 DUP4 ADD MLOAD PUSH2 0x3781 PUSH1 0x40 DUP7 ADD DUP3 PUSH2 0x36DD JUMP JUMPDEST POP PUSH1 0x60 DUP4 ADD MLOAD PUSH2 0x3794 PUSH1 0x60 DUP7 ADD DUP3 PUSH2 0x3725 JUMP JUMPDEST POP PUSH1 0x80 DUP4 ADD MLOAD PUSH2 0x37A7 PUSH1 0x80 DUP7 ADD DUP3 PUSH2 0x3384 JUMP JUMPDEST POP PUSH1 0xA0 DUP4 ADD MLOAD PUSH2 0x37BA PUSH1 0xA0 DUP7 ADD DUP3 PUSH2 0x3375 JUMP JUMPDEST POP PUSH1 0xC0 DUP4 ADD MLOAD PUSH2 0x37CD PUSH1 0xC0 DUP7 ADD DUP3 PUSH2 0x3384 JUMP JUMPDEST POP PUSH1 0xE0 DUP4 ADD MLOAD PUSH2 0x37E0 PUSH1 0xE0 DUP7 ADD DUP3 PUSH2 0x3384 JUMP JUMPDEST POP PUSH2 0x100 DUP4 ADD MLOAD PUSH2 0x37F5 PUSH2 0x100 DUP7 ADD DUP3 PUSH2 0x3384 JUMP JUMPDEST POP DUP1 SWAP2 POP POP SWAP3 SWAP2 POP POP JUMP JUMPDEST PUSH1 0x0 PUSH1 0x20 DUP3 ADD SWAP1 POP DUP2 DUP2 SUB PUSH1 0x0 DUP4 ADD MSTORE PUSH2 0x381A DUP2 DUP5 PUSH2 0x3734 JUMP JUMPDEST SWAP1 POP SWAP3 SWAP2 POP POP JUMP JUMPDEST PUSH1 0x0 DUP2 SWAP1 POP SWAP2 SWAP1 POP JUMP JUMPDEST PUSH2 0x3835 DUP2 PUSH2 0x3822 JUMP JUMPDEST DUP3 MSTORE POP POP JUMP JUMPDEST PUSH1 0x0 PUSH1 0x80 DUP4 ADD PUSH1 0x0 DUP4 ADD MLOAD PUSH2 0x3853 PUSH1 0x0 DUP7 ADD DUP3 PUSH2 0x382C JUMP JUMPDEST POP PUSH1 0x20 DUP4 ADD MLOAD DUP5 DUP3 SUB PUSH1 0x20 DUP7 ADD MSTORE PUSH2 0x386B DUP3 DUP3 PUSH2 0x33D9 JUMP JUMPDEST SWAP2 POP POP PUSH1 0x40 DUP4 ADD MLOAD PUSH2 0x3880 PUSH1 0x40 DUP7 ADD DUP3 PUSH2 0x36DD JUMP JUMPDEST POP PUSH1 0x60 DUP4 ADD MLOAD PUSH2 0x3893 PUSH1 0x60 DUP7 ADD DUP3 PUSH2 0x3725 JUMP JUMPDEST POP DUP1 SWAP2 POP POP SWAP3 SWAP2 POP POP JUMP JUMPDEST PUSH1 0x0 PUSH1 0x20 DUP3 ADD SWAP1 POP DUP2 DUP2 SUB PUSH1 0x0 DUP4 ADD MSTORE PUSH2 0x38B8 DUP2 DUP5 PUSH2 0x383B JUMP JUMPDEST SWAP1 POP SWAP3 SWAP2 POP POP JUMP JUMPDEST PUSH1 0x4 DUP2 LT PUSH2 0x38CD JUMPI PUSH1 0x0 DUP1 REVERT JUMPDEST POP JUMP JUMPDEST PUSH1 0x0 DUP2 CALLDATALOAD SWAP1 POP PUSH2 0x38DF DUP2 PUSH2 0x38C0 JUMP JUMPDEST SWAP3 SWAP2 POP POP JUMP JUMPDEST PUSH1 0x0 DUP1 PUSH1 0x40 DUP4 DUP6 SUB SLT ISZERO PUSH2 0x38FC JUMPI PUSH2 0x38FB PUSH2 0x30D2 JUMP JUMPDEST JUMPDEST PUSH1 0x0 DUP4 ADD CALLDATALOAD PUSH8 0xFFFFFFFFFFFFFFFF DUP2 GT ISZERO PUSH2 0x391A JUMPI PUSH2 0x3919 PUSH2 0x30D7 JUMP JUMPDEST JUMPDEST PUSH2 0x3926 DUP6 DUP3 DUP7 ADD PUSH2 0x32B5 JUMP JUMPDEST SWAP3 POP POP PUSH1 0x20 PUSH2 0x3937 DUP6 DUP3 DUP7 ADD PUSH2 0x38D0 JUMP JUMPDEST SWAP2 POP POP SWAP3 POP SWAP3 SWAP1 POP JUMP JUMPDEST PUSH2 0x394A DUP2 PUSH2 0x3167 JUMP JUMPDEST DUP2 EQ PUSH2 0x3955 JUMPI PUSH1 0x0 DUP1 REVERT JUMPDEST POP JUMP JUMPDEST PUSH1 0x0 DUP2 CALLDATALOAD SWAP1 POP PUSH2 0x3967 DUP2 PUSH2 0x3941 JUMP JUMPDEST SWAP3 SWAP2 POP POP JUMP JUMPDEST PUSH1 0x0 DUP1 PUSH1 0x40 DUP4 DUP6 SUB SLT ISZERO PUSH2 0x3984 JUMPI PUSH2 0x3983 PUSH2 0x30D2 JUMP JUMPDEST JUMPDEST PUSH1 0x0 PUSH2 0x3992 DUP6 DUP3 DUP7 ADD PUSH2 0x3125 JUMP JUMPDEST SWAP3 POP POP PUSH1 0x20 PUSH2 0x39A3 DUP6 DUP3 DUP7 ADD PUSH2 0x3958 JUMP JUMPDEST SWAP2 POP POP SWAP3 POP SWAP3 SWAP1 POP JUMP JUMPDEST PUSH1 0x0 DUP1 PUSH1 0x40 DUP4 DUP6 SUB SLT ISZERO PUSH2 0x39C4 JUMPI PUSH2 0x39C3 PUSH2 0x30D2 JUMP JUMPDEST JUMPDEST PUSH1 0x0 DUP4 ADD CALLDATALOAD PUSH8 0xFFFFFFFFFFFFFFFF DUP2 GT ISZERO PUSH2 0x39E2 JUMPI PUSH2 0x39E1 PUSH2 0x30D7 JUMP JUMPDEST JUMPDEST PUSH2 0x39EE DUP6 DUP3 DUP7 ADD PUSH2 0x32B5 JUMP JUMPDEST SWAP3 POP POP PUSH1 0x20 DUP4 ADD CALLDATALOAD PUSH8 0xFFFFFFFFFFFFFFFF DUP2 GT ISZERO PUSH2 0x3A0F JUMPI PUSH2 0x3A0E PUSH2 0x30D7 JUMP JUMPDEST JUMPDEST PUSH2 0x3A1B DUP6 DUP3 DUP7 ADD PUSH2 0x32B5 JUMP JUMPDEST SWAP2 POP POP SWAP3 POP SWAP3 SWAP1 POP JUMP JUMPDEST PUSH2 0x3A2E DUP2 PUSH2 0x30FC JUMP JUMPDEST DUP3 MSTORE POP POP JUMP JUMPDEST PUSH1 0x0 PUSH1 0x20 DUP3 ADD SWAP1 POP PUSH2 0x3A49 PUSH1 0x0 DUP4 ADD DUP5 PUSH2 0x3A25 JUMP JUMPDEST SWAP3 SWAP2 POP POP JUMP JUMPDEST PUSH1 0x0 DUP1 PUSH1 0x0 DUP1 PUSH1 0x80 DUP6 DUP8 SUB SLT ISZERO PUSH2 0x3A69 JUMPI PUSH2 0x3A68 PUSH2 0x30D2 JUMP JUMPDEST JUMPDEST PUSH1 0x0 DUP6 ADD CALLDATALOAD PUSH8 0xFFFFFFFFFFFFFFFF DUP2 GT ISZERO PUSH2 0x3A87 JUMPI PUSH2 0x3A86 PUSH2 0x30D7 JUMP JUMPDEST JUMPDEST PUSH2 0x3A93 DUP8 DUP3 DUP9 ADD PUSH2 0x32B5 JUMP JUMPDEST SWAP5 POP POP PUSH1 0x20 DUP6 ADD CALLDATALOAD PUSH8 0xFFFFFFFFFFFFFFFF DUP2 GT ISZERO PUSH2 0x3AB4 JUMPI PUSH2 0x3AB3 PUSH2 0x30D7 JUMP JUMPDEST JUMPDEST PUSH2 0x3AC0 DUP8 DUP3 DUP9 ADD PUSH2 0x32B5 JUMP JUMPDEST SWAP4 POP POP PUSH1 0x40 PUSH2 0x3AD1 DUP8 DUP3 DUP9 ADD PUSH2 0x3304 JUMP JUMPDEST SWAP3 POP POP PUSH1 0x60 PUSH2 0x3AE2 DUP8 DUP3 DUP9 ADD PUSH2 0x3125 JUMP JUMPDEST SWAP2 POP POP SWAP3 SWAP6 SWAP2 SWAP5 POP SWAP3 POP JUMP JUMPDEST PUSH1 0x0 DUP3 DUP3 MSTORE PUSH1 0x20 DUP3 ADD SWAP1 POP SWAP3 SWAP2 POP POP JUMP JUMPDEST PUSH32 0x4F6E6C7920746865206D616E616765722063616E2063616C6C20746869732066 PUSH1 0x0 DUP3 ADD MSTORE PUSH32 0x756E6374696F6E00000000000000000000000000000000000000000000000000 PUSH1 0x20 DUP3 ADD MSTORE POP JUMP JUMPDEST PUSH1 0x0 PUSH2 0x3B5B PUSH1 0x27 DUP4 PUSH2 0x3AEE JUMP JUMPDEST SWAP2 POP PUSH2 0x3B66 DUP3 PUSH2 0x3AFF JUMP JUMPDEST PUSH1 0x40 DUP3 ADD SWAP1 POP SWAP2 SWAP1 POP JUMP JUMPDEST PUSH1 0x0 PUSH1 0x20 DUP3 ADD SWAP1 POP DUP2 DUP2 SUB PUSH1 0x0 DUP4 ADD MSTORE PUSH2 0x3B8A DUP2 PUSH2 0x3B4E JUMP JUMPDEST SWAP1 POP SWAP2 SWAP1 POP JUMP JUMPDEST PUSH32 0x546F70696320646F6573206E6F74206578697374730000000000000000000000 PUSH1 0x0 DUP3 ADD MSTORE POP JUMP JUMPDEST PUSH1 0x0 PUSH2 0x3BC7 PUSH1 0x15 DUP4 PUSH2 0x3AEE JUMP JUMPDEST SWAP2 POP PUSH2 0x3BD2 DUP3 PUSH2 0x3B91 JUMP JUMPDEST PUSH1 0x20 DUP3 ADD SWAP1 POP SWAP2 SWAP1 POP JUMP JUMPDEST PUSH1 0x0 PUSH1 0x20 DUP3 ADD SWAP1 POP DUP2 DUP2 SUB PUSH1 0x0 DUP4 ADD MSTORE PUSH2 0x3BF6 DUP2 PUSH2 0x3BBA JUMP JUMPDEST SWAP1 POP SWAP2 SWAP1 POP JUMP JUMPDEST PUSH32 0x496E73756666696369656E742066756E64730000000000000000000000000000 PUSH1 0x0 DUP3 ADD MSTORE POP JUMP JUMPDEST PUSH1 0x0 PUSH2 0x3C33 PUSH1 0x12 DUP4 PUSH2 0x3AEE JUMP JUMPDEST SWAP2 POP PUSH2 0x3C3E DUP3 PUSH2 0x3BFD JUMP JUMPDEST PUSH1 0x20 DUP3 ADD SWAP1 POP SWAP2 SWAP1 POP JUMP JUMPDEST PUSH1 0x0 PUSH1 0x20 DUP3 ADD SWAP1 POP DUP2 DUP2 SUB PUSH1 0x0 DUP4 ADD MSTORE PUSH2 0x3C62 DUP2 PUSH2 0x3C26 JUMP JUMPDEST SWAP1 POP SWAP2 SWAP1 POP JUMP JUMPDEST PUSH32 0x4F6E6C7920415050524F564544205350454E5420746F706963732063616E2062 PUSH1 0x0 DUP3 ADD MSTORE PUSH32 0x65207573656420666F72207472616E7366657273000000000000000000000000 PUSH1 0x20 DUP3 ADD MSTORE POP JUMP JUMPDEST PUSH1 0x0 PUSH2 0x3CC5 PUSH1 0x34 DUP4 PUSH2 0x3AEE JUMP JUMPDEST SWAP2 POP PUSH2 0x3CD0 DUP3 PUSH2 0x3C69 JUMP JUMPDEST PUSH1 0x40 DUP3 ADD SWAP1 POP SWAP2 SWAP1 POP JUMP JUMPDEST PUSH1 0x0 PUSH1 0x20 DUP3 ADD SWAP1 POP DUP2 DUP2 SUB PUSH1 0x0 DUP4 ADD MSTORE PUSH2 0x3CF4 DUP2 PUSH2 0x3CB8 JUMP JUMPDEST SWAP1 POP SWAP2 SWAP1 POP JUMP JUMPDEST PUSH32 0x4F6E6C79207468652067726F7570206C6561646572732063616E2063616C6C20 PUSH1 0x0 DUP3 ADD MSTORE PUSH32 0x746869732066756E6374696F6E00000000000000000000000000000000000000 PUSH1 0x20 DUP3 ADD MSTORE POP JUMP JUMPDEST PUSH1 0x0 PUSH2 0x3D57 PUSH1 0x2D DUP4 PUSH2 0x3AEE JUMP JUMPDEST SWAP2 POP PUSH2 0x3D62 DUP3 PUSH2 0x3CFB JUMP JUMPDEST PUSH1 0x40 DUP3 ADD SWAP1 POP SWAP2 SWAP1 POP JUMP JUMPDEST PUSH1 0x0 PUSH1 0x20 DUP3 ADD SWAP1 POP DUP2 DUP2 SUB PUSH1 0x0 DUP4 ADD MSTORE PUSH2 0x3D86 DUP2 PUSH2 0x3D4A JUMP JUMPDEST SWAP1 POP SWAP2 SWAP1 POP JUMP JUMPDEST PUSH32 0x4E487B7100000000000000000000000000000000000000000000000000000000 PUSH1 0x0 MSTORE PUSH1 0x11 PUSH1 0x4 MSTORE PUSH1 0x24 PUSH1 0x0 REVERT JUMPDEST PUSH1 0x0 PUSH2 0x3DC7 DUP3 PUSH2 0x32E3 JUMP JUMPDEST SWAP2 POP PUSH2 0x3DD2 DUP4 PUSH2 0x32E3 JUMP JUMPDEST SWAP3 POP DUP3 DUP3 ADD SWAP1 POP DUP1 DUP3 GT ISZERO PUSH2 0x3DEA JUMPI PUSH2 0x3DE9 PUSH2 0x3D8D JUMP JUMPDEST JUMPDEST SWAP3 SWAP2 POP POP JUMP JUMPDEST PUSH32 0x546865206C6561646572206D7573742062652064656661756C74657200000000 PUSH1 0x0 DUP3 ADD MSTORE POP JUMP JUMPDEST PUSH1 0x0 PUSH2 0x3E26 PUSH1 0x1C DUP4 PUSH2 0x3AEE JUMP JUMPDEST SWAP2 POP PUSH2 0x3E31 DUP3 PUSH2 0x3DF0 JUMP JUMPDEST PUSH1 0x20 DUP3 ADD SWAP1 POP SWAP2 SWAP1 POP JUMP JUMPDEST PUSH1 0x0 PUSH1 0x20 DUP3 ADD SWAP1 POP DUP2 DUP2 SUB PUSH1 0x0 DUP4 ADD MSTORE PUSH2 0x3E55 DUP2 PUSH2 0x3E19 JUMP JUMPDEST SWAP1 POP SWAP2 SWAP1 POP JUMP JUMPDEST PUSH32 0x546F70696320616C726561647920657869737473000000000000000000000000 PUSH1 0x0 DUP3 ADD MSTORE POP JUMP JUMPDEST PUSH1 0x0 PUSH2 0x3E92 PUSH1 0x14 DUP4 PUSH2 0x3AEE JUMP JUMPDEST SWAP2 POP PUSH2 0x3E9D DUP3 PUSH2 0x3E5C JUMP JUMPDEST PUSH1 0x20 DUP3 ADD SWAP1 POP SWAP2 SWAP1 POP JUMP JUMPDEST PUSH1 0x0 PUSH1 0x20 DUP3 ADD SWAP1 POP DUP2 DUP2 SUB PUSH1 0x0 DUP4 ADD MSTORE PUSH2 0x3EC1 DUP2 PUSH2 0x3E85 JUMP JUMPDEST SWAP1 POP SWAP2 SWAP1 POP JUMP JUMPDEST PUSH32 0x4E6F20616D6F756E7420616C6C6F77656420666F722074686973206361746567 PUSH1 0x0 DUP3 ADD MSTORE PUSH32 0x6F72790000000000000000000000000000000000000000000000000000000000 PUSH1 0x20 DUP3 ADD MSTORE POP JUMP JUMPDEST PUSH1 0x0 PUSH2 0x3F24 PUSH1 0x23 DUP4 PUSH2 0x3AEE JUMP JUMPDEST SWAP2 POP PUSH2 0x3F2F DUP3 PUSH2 0x3EC8 JUMP JUMPDEST PUSH1 0x40 DUP3 ADD SWAP1 POP SWAP2 SWAP1 POP JUMP JUMPDEST PUSH1 0x0 PUSH1 0x20 DUP3 ADD SWAP1 POP DUP2 DUP2 SUB PUSH1 0x0 DUP4 ADD MSTORE PUSH2 0x3F53 DUP2 PUSH2 0x3F17 JUMP JUMPDEST SWAP1 POP SWAP2 SWAP1 POP JUMP JUMPDEST PUSH32 0x4E487B7100000000000000000000000000000000000000000000000000000000 PUSH1 0x0 MSTORE PUSH1 0x22 PUSH1 0x4 MSTORE PUSH1 0x24 PUSH1 0x0 REVERT JUMPDEST PUSH1 0x0 PUSH1 0x2 DUP3 DIV SWAP1 POP PUSH1 0x1 DUP3 AND DUP1 PUSH2 0x3FA1 JUMPI PUSH1 0x7F DUP3 AND SWAP2 POP JUMPDEST PUSH1 0x20 DUP3 LT DUP2 SUB PUSH2 0x3FB4 JUMPI PUSH2 0x3FB3 PUSH2 0x3F5A JUMP JUMPDEST JUMPDEST POP SWAP2 SWAP1 POP JUMP JUMPDEST PUSH1 0x0 DUP2 SWAP1 POP DUP2 PUSH1 0x0 MSTORE PUSH1 0x20 PUSH1 0x0 KECCAK256 SWAP1 POP SWAP2 SWAP1 POP JUMP JUMPDEST PUSH1 0x0 PUSH1 0x20 PUSH1 0x1F DUP4 ADD DIV SWAP1 POP SWAP2 SWAP1 POP JUMP JUMPDEST PUSH1 0x0 DUP3 DUP3 SHL SWAP1 POP SWAP3 SWAP2 POP POP JUMP JUMPDEST PUSH1 0x0 PUSH1 0x8 DUP4 MUL PUSH2 0x401C PUSH32 0xFFFFFFFFFFFFFFFFFFFFFFFFFFFFFFFFFFFFFFFFFFFFFFFFFFFFFFFFFFFFFFFF DUP3 PUSH2 0x3FDF JUMP JUMPDEST PUSH2 0x4026 DUP7 DUP4 PUSH2 0x3FDF JUMP JUMPDEST SWAP6 POP DUP1 NOT DUP5 AND SWAP4 POP DUP1 DUP7 AND DUP5 OR SWAP3 POP POP POP SWAP4 SWAP3 POP POP POP JUMP JUMPDEST PUSH1 0x0 DUP2 SWAP1 POP SWAP2 SWAP1 POP JUMP JUMPDEST PUSH1 0x0 PUSH2 0x4063 PUSH2 0x405E PUSH2 0x4059 DUP5 PUSH2 0x32E3 JUMP JUMPDEST PUSH2 0x403E JUMP JUMPDEST PUSH2 0x32E3 JUMP JUMPDEST SWAP1 POP SWAP2 SWAP1 POP JUMP JUMPDEST PUSH1 0x0 DUP2 SWAP1 POP SWAP2 SWAP1 POP JUMP JUMPDEST PUSH2 0x407D DUP4 PUSH2 0x4048 JUMP JUMPDEST PUSH2 0x4091 PUSH2 0x4089 DUP3 PUSH2 0x406A JUMP JUMPDEST DUP5 DUP5 SLOAD PUSH2 0x3FEC JUMP JUMPDEST DUP3 SSTORE POP POP POP POP JUMP JUMPDEST PUSH1 0x0 SWAP1 JUMP JUMPDEST PUSH2 0x40A6 PUSH2 0x4099 JUMP JUMPDEST PUSH2 0x40B1 DUP2 DUP5 DUP5 PUSH2 0x4074 JUMP JUMPDEST POP POP POP JUMP JUMPDEST JUMPDEST DUP2 DUP2 LT ISZERO PUSH2 0x40D5 JUMPI PUSH2 0x40CA PUSH1 0x0 DUP3 PUSH2 0x409E JUMP JUMPDEST PUSH1 0x1 DUP2 ADD SWAP1 POP PUSH2 0x40B7 JUMP JUMPDEST POP POP JUMP JUMPDEST PUSH1 0x1F DUP3 GT ISZERO PUSH2 0x411A JUMPI PUSH2 0x40EB DUP2 PUSH2 0x3FBA JUMP JUMPDEST PUSH2 0x40F4 DUP5 PUSH2 0x3FCF JUMP JUMPDEST DUP2 ADD PUSH1 0x20 DUP6 LT ISZERO PUSH2 0x4103 JUMPI DUP2 SWAP1 POP JUMPDEST PUSH2 0x4117 PUSH2 0x410F DUP6 PUSH2 0x3FCF JUMP JUMPDEST DUP4 ADD DUP3 PUSH2 0x40B6 JUMP JUMPDEST POP POP JUMPDEST POP POP POP JUMP JUMPDEST PUSH1 0x0 DUP3 DUP3 SHR SWAP1 POP SWAP3 SWAP2 POP POP JUMP JUMPDEST PUSH1 0x0 PUSH2 0x413D PUSH1 0x0 NOT DUP5 PUSH1 0x8 MUL PUSH2 0x411F JUMP JUMPDEST NOT DUP1 DUP4 AND SWAP2 POP POP SWAP3 SWAP2 POP POP JUMP JUMPDEST PUSH1 0x0 PUSH2 0x4156 DUP4 DUP4 PUSH2 0x412C JUMP JUMPDEST SWAP2 POP DUP3 PUSH1 0x2 MUL DUP3 OR SWAP1 POP SWAP3 SWAP2 POP POP JUMP JUMPDEST PUSH2 0x416F DUP3 PUSH2 0x3393 JUMP JUMPDEST PUSH8 0xFFFFFFFFFFFFFFFF DUP2 GT ISZERO PUSH2 0x4188 JUMPI PUSH2 0x4187 PUSH2 0x31B8 JUMP JUMPDEST JUMPDEST PUSH2 0x4192 DUP3 SLOAD PUSH2 0x3F89 JUMP JUMPDEST PUSH2 0x419D DUP3 DUP3 DUP6 PUSH2 0x40D9 JUMP JUMPDEST PUSH1 0x0 PUSH1 0x20 SWAP1 POP PUSH1 0x1F DUP4 GT PUSH1 0x1 DUP2 EQ PUSH2 0x41D0 JUMPI PUSH1 0x0 DUP5 ISZERO PUSH2 0x41BE JUMPI DUP3 DUP8 ADD MLOAD SWAP1 POP JUMPDEST PUSH2 0x41C8 DUP6 DUP3 PUSH2 0x414A JUMP JUMPDEST DUP7 SSTORE POP PUSH2 0x4230 JUMP JUMPDEST PUSH1 0x1F NOT DUP5 AND PUSH2 0x41DE DUP7 PUSH2 0x3FBA JUMP JUMPDEST PUSH1 0x0 JUMPDEST DUP3 DUP2 LT ISZERO PUSH2 0x4206 JUMPI DUP5 DUP10 ADD MLOAD DUP3 SSTORE PUSH1 0x1 DUP3 ADD SWAP2 POP PUSH1 0x20 DUP6 ADD SWAP5 POP PUSH1 0x20 DUP2 ADD SWAP1 POP PUSH2 0x41E1 JUMP JUMPDEST DUP7 DUP4 LT ISZERO PUSH2 0x4223 JUMPI DUP5 DUP10 ADD MLOAD PUSH2 0x421F PUSH1 0x1F DUP10 AND DUP3 PUSH2 0x412C JUMP JUMPDEST DUP4 SSTORE POP JUMPDEST PUSH1 0x1 PUSH1 0x2 DUP9 MUL ADD DUP9 SSTORE POP POP POP JUMPDEST POP POP POP POP POP POP JUMP JUMPDEST PUSH32 0x4F6E6C792074686520636F756E63696C206D656D626572732063616E2063616C PUSH1 0x0 DUP3 ADD MSTORE PUSH32 0x6C20746869732066756E6374696F6E0000000000000000000000000000000000 PUSH1 0x20 DUP3 ADD MSTORE POP JUMP JUMPDEST PUSH1 0x0 PUSH2 0x4294 PUSH1 0x2F DUP4 PUSH2 0x3AEE JUMP JUMPDEST SWAP2 POP PUSH2 0x429F DUP3 PUSH2 0x4238 JUMP JUMPDEST PUSH1 0x40 DUP3 ADD SWAP1 POP SWAP2 SWAP1 POP JUMP JUMPDEST PUSH1 0x0 PUSH1 0x20 DUP3 ADD SWAP1 POP DUP2 DUP2 SUB PUSH1 0x0 DUP4 ADD MSTORE PUSH2 0x42C3 DUP2 PUSH2 0x4287 JUMP JUMPDEST SWAP1 POP SWAP2 SWAP1 POP JUMP JUMPDEST PUSH32 0x416464726573732063616E2774206265206E756C6C0000000000000000000000 PUSH1 0x0 DUP3 ADD MSTORE POP JUMP JUMPDEST PUSH1 0x0 PUSH2 0x4300 PUSH1 0x15 DUP4 PUSH2 0x3AEE JUMP JUMPDEST SWAP2 POP PUSH2 0x430B DUP3 PUSH2 0x42CA JUMP JUMPDEST PUSH1 0x20 DUP3 ADD SWAP1 POP SWAP2 SWAP1 POP JUMP JUMPDEST PUSH1 0x0 PUSH1 0x20 DUP3 ADD SWAP1 POP DUP2 DUP2 SUB PUSH1 0x0 DUP4 ADD MSTORE PUSH2 0x432F DUP2 PUSH2 0x42F3 JUMP JUMPDEST SWAP1 POP SWAP2 SWAP1 POP JUMP JUMPDEST PUSH32 0x47726F757020646F6573206E6F74206578697374730000000000000000000000 PUSH1 0x0 DUP3 ADD MSTORE POP JUMP JUMPDEST PUSH1 0x0 PUSH2 0x436C PUSH1 0x15 DUP4 PUSH2 0x3AEE JUMP JUMPDEST SWAP2 POP PUSH2 0x4377 DUP3 PUSH2 0x4336 JUMP JUMPDEST PUSH1 0x20 DUP3 ADD SWAP1 POP SWAP2 SWAP1 POP JUMP JUMPDEST PUSH1 0x0 PUSH1 0x20 DUP3 ADD SWAP1 POP DUP2 DUP2 SUB PUSH1 0x0 DUP4 ADD MSTORE PUSH2 0x439B DUP2 PUSH2 0x435F JUMP JUMPDEST SWAP1 POP SWAP2 SWAP1 POP JUMP JUMPDEST PUSH32 0x4C656164657220646F6573206E6F742065786973747300000000000000000000 PUSH1 0x0 DUP3 ADD MSTORE POP JUMP JUMPDEST PUSH1 0x0 PUSH2 0x43D8 PUSH1 0x16 DUP4 PUSH2 0x3AEE JUMP JUMPDEST SWAP2 POP PUSH2 0x43E3 DUP3 PUSH2 0x43A2 JUMP JUMPDEST PUSH1 0x20 DUP3 ADD SWAP1 POP SWAP2 SWAP1 POP JUMP JUMPDEST PUSH1 0x0 PUSH1 0x20 DUP3 ADD SWAP1 POP DUP2 DUP2 SUB PUSH1 0x0 DUP4 ADD MSTORE PUSH2 0x4407 DUP2 PUSH2 0x43CB JUMP JUMPDEST SWAP1 POP SWAP2 SWAP1 POP JUMP JUMPDEST PUSH32 0x4F6E6C792049444C4520746F706963732063616E2062652072656D6F76656400 PUSH1 0x0 DUP3 ADD MSTORE POP JUMP JUMPDEST PUSH1 0x0 PUSH2 0x4444 PUSH1 0x1F DUP4 PUSH2 0x3AEE JUMP JUMPDEST SWAP2 POP PUSH2 0x444F DUP3 PUSH2 0x440E JUMP JUMPDEST PUSH1 0x20 DUP3 ADD SWAP1 POP SWAP2 SWAP1 POP JUMP JUMPDEST PUSH1 0x0 PUSH1 0x20 DUP3 ADD SWAP1 POP DUP2 DUP2 SUB PUSH1 0x0 DUP4 ADD MSTORE PUSH2 0x4473 DUP2 PUSH2 0x4437 JUMP JUMPDEST SWAP1 POP SWAP2 SWAP1 POP JUMP JUMPDEST PUSH32 0x4F6E6C7920564F54494E4720746F706963732063616E20626520636C6F736564 PUSH1 0x0 DUP3 ADD MSTORE POP JUMP JUMPDEST PUSH1 0x0 PUSH2 0x44B0 PUSH1 0x20 DUP4 PUSH2 0x3AEE JUMP JUMPDEST SWAP2 POP PUSH2 0x44BB DUP3 PUSH2 0x447A JUMP JUMPDEST PUSH1 0x20 DUP3 ADD SWAP1 POP SWAP2 SWAP1 POP JUMP JUMPDEST PUSH1 0x0 PUSH1 0x20 DUP3 ADD SWAP1 POP DUP2 DUP2 SUB PUSH1 0x0 DUP4 ADD MSTORE PUSH2 0x44DF DUP2 PUSH2 0x44A3 JUMP JUMPDEST SWAP1 POP SWAP2 SWAP1 POP JUMP JUMPDEST PUSH32 0x596F752063616E6E6F7420636C6F73652074686520766F74696E672062656361 PUSH1 0x0 DUP3 ADD MSTORE PUSH32 0x75736520746865726520617265206E6F7420656E6F75676820766F7465730000 PUSH1 0x20 DUP3 ADD MSTORE POP JUMP JUMPDEST PUSH1 0x0 PUSH2 0x4542 PUSH1 0x3E DUP4 PUSH2 0x3AEE JUMP JUMPDEST SWAP2 POP PUSH2 0x454D DUP3 PUSH2 0x44E6 JUMP JUMPDEST PUSH1 0x40 DUP3 ADD SWAP1 POP SWAP2 SWAP1 POP JUMP JUMPDEST PUSH1 0x0 PUSH1 0x20 DUP3 ADD SWAP1 POP DUP2 DUP2 SUB PUSH1 0x0 DUP4 ADD MSTORE PUSH2 0x4571 DUP2 PUSH2 0x4535 JUMP JUMPDEST SWAP1 POP SWAP2 SWAP1 POP JUMP JUMPDEST PUSH32 0x4E487B7100000000000000000000000000000000000000000000000000000000 PUSH1 0x0 MSTORE PUSH1 0x32 PUSH1 0x4 MSTORE PUSH1 0x24 PUSH1 0x0 REVERT JUMPDEST PUSH1 0x0 PUSH2 0x45B2 DUP3 PUSH2 0x32E3 JUMP JUMPDEST SWAP2 POP PUSH32 0xFFFFFFFFFFFFFFFFFFFFFFFFFFFFFFFFFFFFFFFFFFFFFFFFFFFFFFFFFFFFFFFF DUP3 SUB PUSH2 0x45E4 JUMPI PUSH2 0x45E3 PUSH2 0x3D8D JUMP JUMPDEST JUMPDEST PUSH1 0x1 DUP3 ADD SWAP1 POP SWAP2 SWAP1 POP JUMP JUMPDEST PUSH32 0x4F7074696F6E2063616E277420626520454D5054590000000000000000000000 PUSH1 0x0 DUP3 ADD MSTORE POP JUMP JUMPDEST PUSH1 0x0 PUSH2 0x4625 PUSH1 0x15 DUP4 PUSH2 0x3AEE JUMP JUMPDEST SWAP2 POP PUSH2 0x4630 DUP3 PUSH2 0x45EF JUMP JUMPDEST PUSH1 0x20 DUP3 ADD SWAP1 POP SWAP2 SWAP1 POP JUMP JUMPDEST PUSH1 0x0 PUSH1 0x20 DUP3 ADD SWAP1 POP DUP2 DUP2 SUB PUSH1 0x0 DUP4 ADD MSTORE PUSH2 0x4654 DUP2 PUSH2 0x4618 JUMP JUMPDEST SWAP1 POP SWAP2 SWAP1 POP JUMP JUMPDEST PUSH32 0x4F6E6C7920564F54494E4720746F706963732063616E20626520766F74656400 PUSH1 0x0 DUP3 ADD MSTORE POP JUMP JUMPDEST PUSH1 0x0 PUSH2 0x4691 PUSH1 0x1F DUP4 PUSH2 0x3AEE JUMP JUMPDEST SWAP2 POP PUSH2 0x469C DUP3 PUSH2 0x465B JUMP JUMPDEST PUSH1 0x20 DUP3 ADD SWAP1 POP SWAP2 SWAP1 POP JUMP JUMPDEST PUSH1 0x0 PUSH1 0x20 DUP3 ADD SWAP1 POP DUP2 DUP2 SUB PUSH1 0x0 DUP4 ADD MSTORE PUSH2 0x46C0 DUP2 PUSH2 0x4684 JUMP JUMPDEST SWAP1 POP SWAP2 SWAP1 POP JUMP JUMPDEST PUSH32 0x4C656164657220616C726561647920766F746564000000000000000000000000 PUSH1 0x0 DUP3 ADD MSTORE POP JUMP JUMPDEST PUSH1 0x0 PUSH2 0x46FD PUSH1 0x14 DUP4 PUSH2 0x3AEE JUMP JUMPDEST SWAP2 POP PUSH2 0x4708 DUP3 PUSH2 0x46C7 JUMP JUMPDEST PUSH1 0x20 DUP3 ADD SWAP1 POP SWAP2 SWAP1 POP JUMP JUMPDEST PUSH1 0x0 PUSH1 0x20 DUP3 ADD SWAP1 POP DUP2 DUP2 SUB PUSH1 0x0 DUP4 ADD MSTORE PUSH2 0x472C DUP2 PUSH2 0x46F0 JUMP JUMPDEST SWAP1 POP SWAP2 SWAP1 POP JUMP JUMPDEST PUSH32 0x436F756E73656C6F7220616C7265616479206578697374730000000000000000 PUSH1 0x0 DUP3 ADD MSTORE POP JUMP JUMPDEST PUSH1 0x0 PUSH2 0x4769 PUSH1 0x18 DUP4 PUSH2 0x3AEE JUMP JUMPDEST SWAP2 POP PUSH2 0x4774 DUP3 PUSH2 0x4733 JUMP JUMPDEST PUSH1 0x20 DUP3 ADD SWAP1 POP SWAP2 SWAP1 POP JUMP JUMPDEST PUSH1 0x0 PUSH1 0x20 DUP3 ADD SWAP1 POP DUP2 DUP2 SUB PUSH1 0x0 DUP4 ADD MSTORE PUSH2 0x4798 DUP2 PUSH2 0x475C JUMP JUMPDEST SWAP1 POP SWAP2 SWAP1 POP JUMP JUMPDEST PUSH32 0x436F756E73656C6F72206973206E6F742061206C656164657200000000000000 PUSH1 0x0 DUP3 ADD MSTORE POP JUMP JUMPDEST PUSH1 0x0 PUSH2 0x47D5 PUSH1 0x19 DUP4 PUSH2 0x3AEE JUMP JUMPDEST SWAP2 POP PUSH2 0x47E0 DUP3 PUSH2 0x479F JUMP JUMPDEST PUSH1 0x20 DUP3 ADD SWAP1 POP SWAP2 SWAP1 POP JUMP JUMPDEST PUSH1 0x0 PUSH1 0x20 DUP3 ADD SWAP1 POP DUP2 DUP2 SUB PUSH1 0x0 DUP4 ADD MSTORE PUSH2 0x4804 DUP2 PUSH2 0x47C8 JUMP JUMPDEST SWAP1 POP SWAP2 SWAP1 POP JUMP JUMPDEST PUSH32 0x436F756E73656C6F7220646F6573206E6F742065786973747300000000000000 PUSH1 0x0 DUP3 ADD MSTORE POP JUMP JUMPDEST PUSH1 0x0 PUSH2 0x4841 PUSH1 0x19 DUP4 PUSH2 0x3AEE JUMP JUMPDEST SWAP2 POP PUSH2 0x484C DUP3 PUSH2 0x480B JUMP JUMPDEST PUSH1 0x20 DUP3 ADD SWAP1 POP SWAP2 SWAP1 POP JUMP JUMPDEST PUSH1 0x0 PUSH1 0x20 DUP3 ADD SWAP1 POP DUP2 DUP2 SUB PUSH1 0x0 DUP4 ADD MSTORE PUSH2 0x4870 DUP2 PUSH2 0x4834 JUMP JUMPDEST SWAP1 POP SWAP2 SWAP1 POP JUMP JUMPDEST PUSH32 0x4F6E6C792049444C4520746F706963732063616E206265206F70656E20666F72 PUSH1 0x0 DUP3 ADD MSTORE PUSH32 0x20766F74696E6700000000000000000000000000000000000000000000000000 PUSH1 0x20 DUP3 ADD MSTORE POP JUMP JUMPDEST PUSH1 0x0 PUSH2 0x48D3 PUSH1 0x27 DUP4 PUSH2 0x3AEE JUMP JUMPDEST SWAP2 POP PUSH2 0x48DE DUP3 PUSH2 0x4877 JUMP JUMPDEST PUSH1 0x40 DUP3 ADD SWAP1 POP SWAP2 SWAP1 POP JUMP JUMPDEST PUSH1 0x0 PUSH1 0x20 DUP3 ADD SWAP1 POP DUP2 DUP2 SUB PUSH1 0x0 DUP4 ADD MSTORE PUSH2 0x4902 DUP2 PUSH2 0x48C6 JUMP JUMPDEST SWAP1 POP SWAP2 SWAP1 POP JUMP JUMPDEST PUSH32 0x5061796D656E74206E6F74206D61646500000000000000000000000000000000 PUSH1 0x0 DUP3 ADD MSTORE POP JUMP JUMPDEST PUSH1 0x0 PUSH2 0x493F PUSH1 0x10 DUP4 PUSH2 0x3AEE JUMP JUMPDEST SWAP2 POP PUSH2 0x494A DUP3 PUSH2 0x4909 JUMP JUMPDEST PUSH1 0x20 DUP3 ADD SWAP1 POP SWAP2 SWAP1 POP JUMP JUMPDEST PUSH1 0x0 PUSH1 0x20 DUP3 ADD SWAP1 POP DUP2 DUP2 SUB PUSH1 0x0 DUP4 ADD MSTORE PUSH2 0x496E DUP2 PUSH2 0x4932 JUMP JUMPDEST SWAP1 POP SWAP2 SWAP1 POP JUMP JUMPDEST PUSH32 0x4E6577206D616E616765722063616E2774206265207468652063757272656E74 PUSH1 0x0 DUP3 ADD MSTORE PUSH32 0x206D616E61676572000000000000000000000000000000000000000000000000 PUSH1 0x20 DUP3 ADD MSTORE POP JUMP JUMPDEST PUSH1 0x0 PUSH2 0x49D1 PUSH1 0x28 DUP4 PUSH2 0x3AEE JUMP JUMPDEST SWAP2 POP PUSH2 0x49DC DUP3 PUSH2 0x4975 JUMP JUMPDEST PUSH1 0x40 DUP3 ADD SWAP1 POP SWAP2 SWAP1 POP JUMP JUMPDEST PUSH1 0x0 PUSH1 0x20 DUP3 ADD SWAP1 POP DUP2 DUP2 SUB PUSH1 0x0 DUP4 ADD MSTORE PUSH2 0x4A00 DUP2 PUSH2 0x49C4 JUMP JUMPDEST SWAP1 POP SWAP2 SWAP1 POP JUMP JUMPDEST PUSH32 0x496E76616C696420616D6F756E74000000000000000000000000000000000000 PUSH1 0x0 DUP3 ADD MSTORE POP JUMP JUMPDEST PUSH1 0x0 PUSH2 0x4A3D PUSH1 0xE DUP4 PUSH2 0x3AEE JUMP JUMPDEST SWAP2 POP PUSH2 0x4A48 DUP3 PUSH2 0x4A07 JUMP JUMPDEST PUSH1 0x20 DUP3 ADD SWAP1 POP SWAP2 SWAP1 POP JUMP JUMPDEST PUSH1 0x0 PUSH1 0x20 DUP3 ADD SWAP1 POP DUP2 DUP2 SUB PUSH1 0x0 DUP4 ADD MSTORE PUSH2 0x4A6C DUP2 PUSH2 0x4A30 JUMP JUMPDEST SWAP1 POP SWAP2 SWAP1 POP JUMP JUMPDEST PUSH32 0x5061796D656E7420616C7265616479206D616465000000000000000000000000 PUSH1 0x0 DUP3 ADD MSTORE POP JUMP JUMPDEST PUSH1 0x0 PUSH2 0x4AA9 PUSH1 0x14 DUP4 PUSH2 0x3AEE JUMP JUMPDEST SWAP2 POP PUSH2 0x4AB4 DUP3 PUSH2 0x4A73 JUMP JUMPDEST PUSH1 0x20 DUP3 ADD SWAP1 POP SWAP2 SWAP1 POP JUMP JUMPDEST PUSH1 0x0 PUSH1 0x20 DUP3 ADD SWAP1 POP DUP2 DUP2 SUB PUSH1 0x0 DUP4 ADD MSTORE PUSH2 0x4AD8 DUP2 PUSH2 0x4A9C JUMP JUMPDEST SWAP1 POP SWAP2 SWAP1 POP JUMP JUMPDEST PUSH32 0x4F6E6C792049444C4520746F706963732063616E206265206564697465640000 PUSH1 0x0 DUP3 ADD MSTORE POP JUMP JUMPDEST PUSH1 0x0 PUSH2 0x4B15 PUSH1 0x1E DUP4 PUSH2 0x3AEE JUMP JUMPDEST SWAP2 POP PUSH2 0x4B20 DUP3 PUSH2 0x4ADF JUMP JUMPDEST PUSH1 0x20 DUP3 ADD SWAP1 POP SWAP2 SWAP1 POP JUMP JUMPDEST PUSH1 0x0 PUSH1 0x20 DUP3 ADD SWAP1 POP DUP2 DUP2 SUB PUSH1 0x0 DUP4 ADD MSTORE PUSH2 0x4B44 DUP2 PUSH2 0x4B08 JUMP JUMPDEST SWAP1 POP SWAP2 SWAP1 POP JUMP JUMPDEST PUSH32 0x4E6F206368616E67657300000000000000000000000000000000000000000000 PUSH1 0x0 DUP3 ADD MSTORE POP JUMP JUMPDEST PUSH1 0x0 PUSH2 0x4B81 PUSH1 0xA DUP4 PUSH2 0x3AEE JUMP JUMPDEST SWAP2 POP PUSH2 0x4B8C DUP3 PUSH2 0x4B4B JUMP JUMPDEST PUSH1 0x20 DUP3 ADD SWAP1 POP SWAP2 SWAP1 POP JUMP JUMPDEST PUSH1 0x0 PUSH1 0x20 DUP3 ADD SWAP1 POP DUP2 DUP2 SUB PUSH1 0x0 DUP4 ADD MSTORE PUSH2 0x4BB0 DUP2 PUSH2 0x4B74 JUMP JUMPDEST SWAP1 POP SWAP2 SWAP1 POP JUMP INVALID LOG2 PUSH5 0x6970667358 0x22 SLT KECCAK256 0xAE SELFDESTRUCT PUSH32 0x616E46FD1D0E7F26E93D0075C00D45B4A407A74133AC0C1525DF554E564736F PUSH13 0x634300081C0033000000000000 "
        },
        "methodIdentifiers": {
          "addLeader(address,uint8)": "467267ee",
          "addTopic(string,string,uint8,uint256,address)": "43b8c6b1",
          "closeVoting(string)": "8fc5dad8",
          "compareStrings(string,string)": "bed34bba",
          "editTopic(string,string,uint256,address)": "eaf5d9dc",
          "getManager()": "d5009584",
          "getPayment(uint8)": "c080845c",
          "getQuota()": "1df8ba77",
          "getTopic(string)": "474502d8",
          "groupExists(uint8)": "270a2341",
          "isCounselor(address)": "065ab6d6",
          "isLeader(address)": "db512e85",
          "numberOfVotes(string)": "2f9f21fe",
          "openVoting(string)": "9e1bf985",
          "payQuota(uint8)": "e179d5fe",
          "removeLeader(address,uint8)": "4816a0f3",
          "removeTopic(string)": "7b57ee49",
          "setCounselor(address,bool)": "96fa1def",
          "setManager(address)": "d0ebdbe7",
          "topicExists(string)": "78b5749d",
          "transfer(string,uint256)": "12cb70c7",
          "vote(string,uint8)": "90ca27f3"
        }
      }
    }
  }
}