{
  "_format": "hh-sol-artifact-1",
  "contractName": "Validator",
  "sourceName": "contracts/library/Validator.sol",
  "abi": [
    {
      "inputs": [
        {
          "internalType": "address",
          "name": "_address",
          "type": "address"
        }
      ],
      "name": "isAddressNotNull",
      "outputs": [
        {
          "internalType": "bool",
          "name": "",
          "type": "bool"
        }
      ],
      "stateMutability": "pure",
      "type": "function"
    },
    {
      "inputs": [
        {
          "internalType": "string",
          "name": "_strA",
          "type": "string"
        },
        {
          "internalType": "string",
          "name": "_strB",
          "type": "string"
        }
      ],
      "name": "isStringEqual",
      "outputs": [
        {
          "internalType": "bool",
          "name": "",
          "type": "bool"
        }
      ],
      "stateMutability": "pure",
      "type": "function"
    }
  ],
  "bytecode": "0x610240610039600b82828239805160001a607314602c57634e487b7160e01b600052600060045260246000fd5b30600052607381538281f3fe73000000000000000000000000000000000000000030146080604052600436106100405760003560e01c80630620f98c14610045578063d58eefff1461007d575b600080fd5b610069610053366004610164565b8051602091820120825192909101919091201490565b604051901515815260200160405180910390f35b61006961008b3660046101cd565b73ffffffffffffffffffffffffffffffffffffffff16151590565b7f4e487b7100000000000000000000000000000000000000000000000000000000600052604160045260246000fd5b600082601f8301126100e657600080fd5b813567ffffffffffffffff811115610100576101006100a6565b604051601f8201601f19908116603f0116810167ffffffffffffffff8111828210171561012f5761012f6100a6565b60405281815283820160200185101561014757600080fd5b816020850160208301376000918101602001919091529392505050565b6000806040838503121561017757600080fd5b823567ffffffffffffffff81111561018e57600080fd5b61019a858286016100d5565b925050602083013567ffffffffffffffff8111156101b757600080fd5b6101c3858286016100d5565b9150509250929050565b6000602082840312156101df57600080fd5b813573ffffffffffffffffffffffffffffffffffffffff8116811461020357600080fd5b939250505056fea26469706673582212201eed8433b0f9e6a35e587e0f7653b9dbbbb19cbdeec457ebd57fa6a3988a607564736f6c634300081c0033",
  "linkReferences": {},
  "deployedLinkReferences": {}
}