{
  "_format": "hh-sol-artifact-1",
  "contractName": "ConsensusAdapter",
  "sourceName": "contracts/ConsensusAdapter.sol",
  "abi": [
    {
      "inputs": [],
      "stateMutability": "nonpayable",
      "type": "constructor"
    },
    {
      "anonymous": false,
      "inputs": [
        {
          "indexed": false,
          "internalType": "address",
          "name": "newManager",
          "type": "address"
        }
      ],
      "name": "ManagerChanged",
      "type": "event"
    },
    {
      "anonymous": false,
      "inputs": [
        {
          "indexed": false,
          "internalType": "uint256",
          "name": "amount",
          "type": "uint256"
        }
      ],
      "name": "QuotaChanged",
      "type": "event"
    },
    {
      "anonymous": false,
      "inputs": [
        {
          "indexed": true,
          "internalType": "bytes32",
          "name": "topicId",
          "type": "bytes32"
        },
        {
          "indexed": false,
          "internalType": "string",
          "name": "title",
          "type": "string"
        },
        {
          "indexed": true,
          "internalType": "enum ConsensusLib.Status",
          "name": "status",
          "type": "uint8"
        }
      ],
      "name": "TopicChanged",
      "type": "event"
    },
    {
      "anonymous": false,
      "inputs": [
        {
          "indexed": false,
          "internalType": "address",
          "name": "to",
          "type": "address"
        },
        {
          "indexed": true,
          "internalType": "uint256",
          "name": "amout",
          "type": "uint256"
        },
        {
          "indexed": false,
          "internalType": "string",
          "name": "topic",
          "type": "string"
        }
      ],
      "name": "Transfer",
      "type": "event"
    },
    {
      "inputs": [
        {
          "internalType": "address",
          "name": "_leader",
          "type": "address"
        },
        {
          "internalType": "uint8",
          "name": "_groupId",
          "type": "uint8"
        }
      ],
      "name": "addLeader",
      "outputs": [],
      "stateMutability": "nonpayable",
      "type": "function"
    },
    {
      "inputs": [
        {
          "internalType": "string",
          "name": "_title",
          "type": "string"
        },
        {
          "internalType": "string",
          "name": "_description",
          "type": "string"
        },
        {
          "internalType": "enum ConsensusLib.Category",
          "name": "_category",
          "type": "uint8"
        },
        {
          "internalType": "uint256",
          "name": "_amount",
          "type": "uint256"
        },
        {
          "internalType": "address",
          "name": "_responsible",
          "type": "address"
        }
      ],
      "name": "addTopic",
      "outputs": [],
      "stateMutability": "nonpayable",
      "type": "function"
    },
    {
      "inputs": [
        {
          "internalType": "string",
          "name": "_title",
          "type": "string"
        }
      ],
      "name": "closeVoting",
      "outputs": [],
      "stateMutability": "nonpayable",
      "type": "function"
    },
    {
      "inputs": [
        {
          "internalType": "string",
          "name": "_title",
          "type": "string"
        },
        {
          "internalType": "string",
          "name": "_description",
          "type": "string"
        },
        {
          "internalType": "uint256",
          "name": "_amount",
          "type": "uint256"
        },
        {
          "internalType": "address",
          "name": "_responsible",
          "type": "address"
        }
      ],
      "name": "editTopic",
      "outputs": [],
      "stateMutability": "nonpayable",
      "type": "function"
    },
    {
      "inputs": [],
      "name": "getImplAddress",
      "outputs": [
        {
          "internalType": "address",
          "name": "",
          "type": "address"
        }
      ],
      "stateMutability": "view",
      "type": "function"
    },
    {
      "inputs": [],
      "name": "getManager",
      "outputs": [
        {
          "internalType": "address",
          "name": "",
          "type": "address"
        }
      ],
      "stateMutability": "view",
      "type": "function"
    },
    {
      "inputs": [
        {
          "internalType": "uint8",
          "name": "_groupId",
          "type": "uint8"
        }
      ],
      "name": "getPayment",
      "outputs": [
        {
          "internalType": "uint256",
          "name": "",
          "type": "uint256"
        }
      ],
      "stateMutability": "view",
      "type": "function"
    },
    {
      "inputs": [],
      "name": "getQuota",
      "outputs": [
        {
          "internalType": "uint256",
          "name": "",
          "type": "uint256"
        }
      ],
      "stateMutability": "view",
      "type": "function"
    },
    {
      "inputs": [
        {
          "internalType": "string",
          "name": "_title",
          "type": "string"
        }
      ],
      "name": "numberOfVotes",
      "outputs": [
        {
          "internalType": "uint256",
          "name": "",
          "type": "uint256"
        }
      ],
      "stateMutability": "view",
      "type": "function"
    },
    {
      "inputs": [
        {
          "internalType": "string",
          "name": "_title",
          "type": "string"
        }
      ],
      "name": "openVoting",
      "outputs": [],
      "stateMutability": "nonpayable",
      "type": "function"
    },
    {
      "inputs": [
        {
          "internalType": "uint8",
          "name": "_groupId",
          "type": "uint8"
        }
      ],
      "name": "payQuota",
      "outputs": [],
      "stateMutability": "payable",
      "type": "function"
    },
    {
      "inputs": [
        {
          "internalType": "address",
          "name": "_leader",
          "type": "address"
        },
        {
          "internalType": "uint8",
          "name": "_groupId",
          "type": "uint8"
        }
      ],
      "name": "removeLeader",
      "outputs": [],
      "stateMutability": "nonpayable",
      "type": "function"
    },
    {
      "inputs": [
        {
          "internalType": "string",
          "name": "title",
          "type": "string"
        }
      ],
      "name": "removeTopic",
      "outputs": [],
      "stateMutability": "nonpayable",
      "type": "function"
    },
    {
      "inputs": [
        {
          "internalType": "address",
          "name": "_counselor",
          "type": "address"
        },
        {
          "internalType": "bool",
          "name": "_isEntering",
          "type": "bool"
        }
      ],
      "name": "setCounselor",
      "outputs": [],
      "stateMutability": "nonpayable",
      "type": "function"
    },
    {
      "inputs": [
        {
          "internalType": "address",
          "name": "_newManager",
          "type": "address"
        }
      ],
      "name": "setManager",
      "outputs": [],
      "stateMutability": "nonpayable",
      "type": "function"
    },
    {
      "inputs": [
        {
          "internalType": "string",
          "name": "_topicTitle",
          "type": "string"
        },
        {
          "internalType": "uint256",
          "name": "_amount",
          "type": "uint256"
        }
      ],
      "name": "transfer",
      "outputs": [],
      "stateMutability": "nonpayable",
      "type": "function"
    },
    {
      "inputs": [
        {
          "internalType": "address",
          "name": "_newContract",
          "type": "address"
        }
      ],
      "name": "upgrade",
      "outputs": [],
      "stateMutability": "nonpayable",
      "type": "function"
    },
    {
      "inputs": [
        {
          "internalType": "string",
          "name": "_title",
          "type": "string"
        },
        {
          "internalType": "enum ConsensusLib.Options",
          "name": "_option",
          "type": "uint8"
        }
      ],
      "name": "vote",
      "outputs": [],
      "stateMutability": "nonpayable",
      "type": "function"
    }
  ],
  "bytecode": "0x60a0604052348015600f57600080fd5b503373ffffffffffffffffffffffffffffffffffffffff1660808173ffffffffffffffffffffffffffffffffffffffff168152505060805161297f61005f6000396000610413015261297f6000f3fe6080604052600436106101095760003560e01c80638fc5dad811610095578063c080845c11610064578063c080845c1461033b578063d0ebdbe714610378578063d5009584146103a1578063e179d5fe146103cc578063eaf5d9dc146103e857610109565b80638fc5dad81461029757806390ca27f3146102c057806396fa1def146102e95780639e1bf9851461031257610109565b806343b8c6b1116100dc57806343b8c6b1146101c8578063467267ee146101f15780634816a0f31461021a5780637311ad81146102435780637b57ee491461026e57610109565b80630900f0101461010e57806312cb70c7146101375780631df8ba77146101605780632f9f21fe1461018b575b600080fd5b34801561011a57600080fd5b5061013560048036038101906101309190611c0a565b610411565b005b34801561014357600080fd5b5061015e60048036038101906101599190611db3565b610551565b005b34801561016c57600080fd5b506101756106d3565b6040516101829190611e1e565b60405180910390f35b34801561019757600080fd5b506101b260048036038101906101ad9190611e39565b6107f7565b6040516101bf9190611e1e565b60405180910390f35b3480156101d457600080fd5b506101ef60048036038101906101ea9190611ea7565b610928565b005b3480156101fd57600080fd5b5061021860048036038101906102139190611f93565b610a51565b005b34801561022657600080fd5b50610241600480360381019061023c9190611f93565b610b71565b005b34801561024f57600080fd5b50610258610c91565b6040516102659190611fe2565b60405180910390f35b34801561027a57600080fd5b5061029560048036038101906102909190611e39565b610cba565b005b3480156102a357600080fd5b506102be60048036038101906102b99190611e39565b610e4a565b005b3480156102cc57600080fd5b506102e760048036038101906102e29190612022565b6111fb565b005b3480156102f557600080fd5b50610310600480360381019061030b91906120b6565b61131b565b005b34801561031e57600080fd5b5061033960048036038101906103349190611e39565b61143b565b005b34801561034757600080fd5b50610362600480360381019061035d91906120f6565b61156f565b60405161036f9190611e1e565b60405180910390f35b34801561038457600080fd5b5061039f600480360381019061039a9190611c0a565b6116a0565b005b3480156103ad57600080fd5b506103b66117bd565b6040516103c39190611fe2565b60405180910390f35b6103e660048036038101906103e191906120f6565b6118e1565b005b3480156103f457600080fd5b5061040f600480360381019061040a9190612123565b6119ff565b005b7f000000000000000000000000000000000000000000000000000000000000000073ffffffffffffffffffffffffffffffffffffffff163373ffffffffffffffffffffffffffffffffffffffff161461049f576040517f08c379a00000000000000000000000000000000000000000000000000000000081526004016104969061221f565b60405180910390fd5b600073ffffffffffffffffffffffffffffffffffffffff168173ffffffffffffffffffffffffffffffffffffffff160361050e576040517f08c379a00000000000000000000000000000000000000000000000000000000081526004016105059061228b565b60405180910390fd5b806000806101000a81548173ffffffffffffffffffffffffffffffffffffffff021916908373ffffffffffffffffffffffffffffffffffffffff16021790555050565b600073ffffffffffffffffffffffffffffffffffffffff1660008054906101000a900473ffffffffffffffffffffffffffffffffffffffff1673ffffffffffffffffffffffffffffffffffffffff16036105e0576040517f08c379a00000000000000000000000000000000000000000000000000000000081526004016105d7906122f7565b60405180910390fd5b60008060009054906101000a900473ffffffffffffffffffffffffffffffffffffffff1673ffffffffffffffffffffffffffffffffffffffff166312cb70c784846040518363ffffffff1660e01b815260040161063e929190612385565b6000604051808303816000875af115801561065d573d6000803e3d6000fd5b505050506040513d6000823e3d601f19601f8201168201806040525081019061068691906124d9565b905080602001517feb10b79f28ae0b520cb7ee8e40115f547bfac852d7167a55d9ae8e028ee23a11826000015183604001516040516106c6929190612522565b60405180910390a2505050565b60008073ffffffffffffffffffffffffffffffffffffffff1660008054906101000a900473ffffffffffffffffffffffffffffffffffffffff1673ffffffffffffffffffffffffffffffffffffffff1603610763576040517f08c379a000000000000000000000000000000000000000000000000000000000815260040161075a906122f7565b60405180910390fd5b60008054906101000a900473ffffffffffffffffffffffffffffffffffffffff1673ffffffffffffffffffffffffffffffffffffffff16631df8ba776040518163ffffffff1660e01b8152600401602060405180830381865afa1580156107ce573d6000803e3d6000fd5b505050506040513d601f19601f820116820180604052508101906107f29190612552565b905090565b60008073ffffffffffffffffffffffffffffffffffffffff1660008054906101000a900473ffffffffffffffffffffffffffffffffffffffff1673ffffffffffffffffffffffffffffffffffffffff1603610887576040517f08c379a000000000000000000000000000000000000000000000000000000000815260040161087e906122f7565b60405180910390fd5b60008054906101000a900473ffffffffffffffffffffffffffffffffffffffff1673ffffffffffffffffffffffffffffffffffffffff16632f9f21fe836040518263ffffffff1660e01b81526004016108e0919061257f565b602060405180830381865afa1580156108fd573d6000803e3d6000fd5b505050506040513d601f19601f820116820180604052508101906109219190612552565b9050919050565b600073ffffffffffffffffffffffffffffffffffffffff1660008054906101000a900473ffffffffffffffffffffffffffffffffffffffff1673ffffffffffffffffffffffffffffffffffffffff16036109b7576040517f08c379a00000000000000000000000000000000000000000000000000000000081526004016109ae906122f7565b60405180910390fd5b60008054906101000a900473ffffffffffffffffffffffffffffffffffffffff1673ffffffffffffffffffffffffffffffffffffffff166343b8c6b186868686866040518663ffffffff1660e01b8152600401610a18959493929190612618565b600060405180830381600087803b158015610a3257600080fd5b505af1158015610a46573d6000803e3d6000fd5b505050505050505050565b600073ffffffffffffffffffffffffffffffffffffffff1660008054906101000a900473ffffffffffffffffffffffffffffffffffffffff1673ffffffffffffffffffffffffffffffffffffffff1603610ae0576040517f08c379a0000000000000000000000000000000000000000000000000000000008152600401610ad7906122f7565b60405180910390fd5b60008054906101000a900473ffffffffffffffffffffffffffffffffffffffff1673ffffffffffffffffffffffffffffffffffffffff1663467267ee83836040518363ffffffff1660e01b8152600401610b3b929190612688565b600060405180830381600087803b158015610b5557600080fd5b505af1158015610b69573d6000803e3d6000fd5b505050505050565b600073ffffffffffffffffffffffffffffffffffffffff1660008054906101000a900473ffffffffffffffffffffffffffffffffffffffff1673ffffffffffffffffffffffffffffffffffffffff1603610c00576040517f08c379a0000000000000000000000000000000000000000000000000000000008152600401610bf7906122f7565b60405180910390fd5b60008054906101000a900473ffffffffffffffffffffffffffffffffffffffff1673ffffffffffffffffffffffffffffffffffffffff16634816a0f383836040518363ffffffff1660e01b8152600401610c5b929190612688565b600060405180830381600087803b158015610c7557600080fd5b505af1158015610c89573d6000803e3d6000fd5b505050505050565b60008060009054906101000a900473ffffffffffffffffffffffffffffffffffffffff16905090565b600073ffffffffffffffffffffffffffffffffffffffff1660008054906101000a900473ffffffffffffffffffffffffffffffffffffffff1673ffffffffffffffffffffffffffffffffffffffff1603610d49576040517f08c379a0000000000000000000000000000000000000000000000000000000008152600401610d40906122f7565b60405180910390fd5b60008060009054906101000a900473ffffffffffffffffffffffffffffffffffffffff1673ffffffffffffffffffffffffffffffffffffffff16637b57ee49836040518263ffffffff1660e01b8152600401610da5919061257f565b6000604051808303816000875af1158015610dc4573d6000803e3d6000fd5b505050506040513d6000823e3d601f19601f82011682018060405250810190610ded91906127b5565b905080604001516005811115610e0657610e056125a1565b5b81600001517fefe93f21a3369f1228a2589883bc377a76d7335daddc712853688de4617f82ab8360200151604051610e3e919061257f565b60405180910390a35050565b600073ffffffffffffffffffffffffffffffffffffffff1660008054906101000a900473ffffffffffffffffffffffffffffffffffffffff1673ffffffffffffffffffffffffffffffffffffffff1603610ed9576040517f08c379a0000000000000000000000000000000000000000000000000000000008152600401610ed0906122f7565b60405180910390fd5b60008060009054906101000a900473ffffffffffffffffffffffffffffffffffffffff1673ffffffffffffffffffffffffffffffffffffffff16638fc5dad8836040518263ffffffff1660e01b8152600401610f35919061257f565b6000604051808303816000875af1158015610f54573d6000803e3d6000fd5b505050506040513d6000823e3d601f19601f82011682018060405250810190610f7d91906127b5565b905080604001516005811115610f9657610f956125a1565b5b81600001517fefe93f21a3369f1228a2589883bc377a76d7335daddc712853688de4617f82ab8360200151604051610fce919061257f565b60405180910390a360026005811115610fea57610fe96125a1565b5b81604001516005811115611001576110006125a1565b5b036111f757600380811115611019576110186125a1565b5b816060015160038111156110305761102f6125a1565b5b036110ff577f198db6e425fb8aafd1823c6ca50be2d51e5764571a5ae0f0f21c6812e45def0b60008054906101000a900473ffffffffffffffffffffffffffffffffffffffff1673ffffffffffffffffffffffffffffffffffffffff1663d50095846040518163ffffffff1660e01b8152600401602060405180830381865afa1580156110c1573d6000803e3d6000fd5b505050506040513d601f19601f820116820180604052508101906110e591906127fe565b6040516110f29190611fe2565b60405180910390a16111f6565b60026003811115611113576111126125a1565b5b8160600151600381111561112a576111296125a1565b5b036111f5577f274a3b0d5142ec9fc4e77bd3ffc173b4e7c6c64eca73b31a6c6906b184257e7e60008054906101000a900473ffffffffffffffffffffffffffffffffffffffff1673ffffffffffffffffffffffffffffffffffffffff16631df8ba776040518163ffffffff1660e01b8152600401602060405180830381865afa1580156111bb573d6000803e3d6000fd5b505050506040513d601f19601f820116820180604052508101906111df9190612552565b6040516111ec9190611e1e565b60405180910390a15b5b5b5050565b600073ffffffffffffffffffffffffffffffffffffffff1660008054906101000a900473ffffffffffffffffffffffffffffffffffffffff1673ffffffffffffffffffffffffffffffffffffffff160361128a576040517f08c379a0000000000000000000000000000000000000000000000000000000008152600401611281906122f7565b60405180910390fd5b60008054906101000a900473ffffffffffffffffffffffffffffffffffffffff1673ffffffffffffffffffffffffffffffffffffffff166390ca27f383836040518363ffffffff1660e01b81526004016112e5929190612873565b600060405180830381600087803b1580156112ff57600080fd5b505af1158015611313573d6000803e3d6000fd5b505050505050565b600073ffffffffffffffffffffffffffffffffffffffff1660008054906101000a900473ffffffffffffffffffffffffffffffffffffffff1673ffffffffffffffffffffffffffffffffffffffff16036113aa576040517f08c379a00000000000000000000000000000000000000000000000000000000081526004016113a1906122f7565b60405180910390fd5b60008054906101000a900473ffffffffffffffffffffffffffffffffffffffff1673ffffffffffffffffffffffffffffffffffffffff166396fa1def83836040518363ffffffff1660e01b81526004016114059291906128b2565b600060405180830381600087803b15801561141f57600080fd5b505af1158015611433573d6000803e3d6000fd5b505050505050565b600073ffffffffffffffffffffffffffffffffffffffff1660008054906101000a900473ffffffffffffffffffffffffffffffffffffffff1673ffffffffffffffffffffffffffffffffffffffff16036114ca576040517f08c379a00000000000000000000000000000000000000000000000000000000081526004016114c1906122f7565b60405180910390fd5b60008054906101000a900473ffffffffffffffffffffffffffffffffffffffff1673ffffffffffffffffffffffffffffffffffffffff16639e1bf985826040518263ffffffff1660e01b8152600401611523919061257f565b6000604051808303816000875af1158015611542573d6000803e3d6000fd5b505050506040513d6000823e3d601f19601f8201168201806040525081019061156b91906127b5565b5050565b60008073ffffffffffffffffffffffffffffffffffffffff1660008054906101000a900473ffffffffffffffffffffffffffffffffffffffff1673ffffffffffffffffffffffffffffffffffffffff16036115ff576040517f08c379a00000000000000000000000000000000000000000000000000000000081526004016115f6906122f7565b60405180910390fd5b60008054906101000a900473ffffffffffffffffffffffffffffffffffffffff1673ffffffffffffffffffffffffffffffffffffffff1663c080845c836040518263ffffffff1660e01b815260040161165891906128db565b602060405180830381865afa158015611675573d6000803e3d6000fd5b505050506040513d601f19601f820116820180604052508101906116999190612552565b9050919050565b600073ffffffffffffffffffffffffffffffffffffffff1660008054906101000a900473ffffffffffffffffffffffffffffffffffffffff1673ffffffffffffffffffffffffffffffffffffffff160361172f576040517f08c379a0000000000000000000000000000000000000000000000000000000008152600401611726906122f7565b60405180910390fd5b60008054906101000a900473ffffffffffffffffffffffffffffffffffffffff1673ffffffffffffffffffffffffffffffffffffffff1663d0ebdbe7826040518263ffffffff1660e01b81526004016117889190611fe2565b600060405180830381600087803b1580156117a257600080fd5b505af11580156117b6573d6000803e3d6000fd5b5050505050565b60008073ffffffffffffffffffffffffffffffffffffffff1660008054906101000a900473ffffffffffffffffffffffffffffffffffffffff1673ffffffffffffffffffffffffffffffffffffffff160361184d576040517f08c379a0000000000000000000000000000000000000000000000000000000008152600401611844906122f7565b60405180910390fd5b60008054906101000a900473ffffffffffffffffffffffffffffffffffffffff1673ffffffffffffffffffffffffffffffffffffffff1663d50095846040518163ffffffff1660e01b8152600401602060405180830381865afa1580156118b8573d6000803e3d6000fd5b505050506040513d601f19601f820116820180604052508101906118dc91906127fe565b905090565b600073ffffffffffffffffffffffffffffffffffffffff1660008054906101000a900473ffffffffffffffffffffffffffffffffffffffff1673ffffffffffffffffffffffffffffffffffffffff1603611970576040517f08c379a0000000000000000000000000000000000000000000000000000000008152600401611967906122f7565b60405180910390fd5b60008054906101000a900473ffffffffffffffffffffffffffffffffffffffff1673ffffffffffffffffffffffffffffffffffffffff1663e179d5fe34836040518363ffffffff1660e01b81526004016119ca91906128db565b6000604051808303818588803b1580156119e357600080fd5b505af11580156119f7573d6000803e3d6000fd5b505050505050565b600073ffffffffffffffffffffffffffffffffffffffff1660008054906101000a900473ffffffffffffffffffffffffffffffffffffffff1673ffffffffffffffffffffffffffffffffffffffff1603611a8e576040517f08c379a0000000000000000000000000000000000000000000000000000000008152600401611a85906122f7565b60405180910390fd5b60008060009054906101000a900473ffffffffffffffffffffffffffffffffffffffff1673ffffffffffffffffffffffffffffffffffffffff1663eaf5d9dc868686866040518563ffffffff1660e01b8152600401611af094939291906128f6565b6000604051808303816000875af1158015611b0f573d6000803e3d6000fd5b505050506040513d6000823e3d601f19601f82011682018060405250810190611b3891906127b5565b905080604001516005811115611b5157611b506125a1565b5b81600001517fefe93f21a3369f1228a2589883bc377a76d7335daddc712853688de4617f82ab8360200151604051611b89919061257f565b60405180910390a35050505050565b6000604051905090565b600080fd5b600080fd5b600073ffffffffffffffffffffffffffffffffffffffff82169050919050565b6000611bd782611bac565b9050919050565b611be781611bcc565b8114611bf257600080fd5b50565b600081359050611c0481611bde565b92915050565b600060208284031215611c2057611c1f611ba2565b5b6000611c2e84828501611bf5565b91505092915050565b600080fd5b600080fd5b6000601f19601f8301169050919050565b7f4e487b7100000000000000000000000000000000000000000000000000000000600052604160045260246000fd5b611c8a82611c41565b810181811067ffffffffffffffff82111715611ca957611ca8611c52565b5b80604052505050565b6000611cbc611b98565b9050611cc88282611c81565b919050565b600067ffffffffffffffff821115611ce857611ce7611c52565b5b611cf182611c41565b9050602081019050919050565b82818337600083830152505050565b6000611d20611d1b84611ccd565b611cb2565b905082815260208101848484011115611d3c57611d3b611c3c565b5b611d47848285611cfe565b509392505050565b600082601f830112611d6457611d63611c37565b5b8135611d74848260208601611d0d565b91505092915050565b6000819050919050565b611d9081611d7d565b8114611d9b57600080fd5b50565b600081359050611dad81611d87565b92915050565b60008060408385031215611dca57611dc9611ba2565b5b600083013567ffffffffffffffff811115611de857611de7611ba7565b5b611df485828601611d4f565b9250506020611e0585828601611d9e565b9150509250929050565b611e1881611d7d565b82525050565b6000602082019050611e336000830184611e0f565b92915050565b600060208284031215611e4f57611e4e611ba2565b5b600082013567ffffffffffffffff811115611e6d57611e6c611ba7565b5b611e7984828501611d4f565b91505092915050565b60048110611e8f57600080fd5b50565b600081359050611ea181611e82565b92915050565b600080600080600060a08688031215611ec357611ec2611ba2565b5b600086013567ffffffffffffffff811115611ee157611ee0611ba7565b5b611eed88828901611d4f565b955050602086013567ffffffffffffffff811115611f0e57611f0d611ba7565b5b611f1a88828901611d4f565b9450506040611f2b88828901611e92565b9350506060611f3c88828901611d9e565b9250506080611f4d88828901611bf5565b9150509295509295909350565b600060ff82169050919050565b611f7081611f5a565b8114611f7b57600080fd5b50565b600081359050611f8d81611f67565b92915050565b60008060408385031215611faa57611fa9611ba2565b5b6000611fb885828601611bf5565b9250506020611fc985828601611f7e565b9150509250929050565b611fdc81611bcc565b82525050565b6000602082019050611ff76000830184611fd3565b92915050565b6004811061200a57600080fd5b50565b60008135905061201c81611ffd565b92915050565b6000806040838503121561203957612038611ba2565b5b600083013567ffffffffffffffff81111561205757612056611ba7565b5b61206385828601611d4f565b92505060206120748582860161200d565b9150509250929050565b60008115159050919050565b6120938161207e565b811461209e57600080fd5b50565b6000813590506120b08161208a565b92915050565b600080604083850312156120cd576120cc611ba2565b5b60006120db85828601611bf5565b92505060206120ec858286016120a1565b9150509250929050565b60006020828403121561210c5761210b611ba2565b5b600061211a84828501611f7e565b91505092915050565b6000806000806080858703121561213d5761213c611ba2565b5b600085013567ffffffffffffffff81111561215b5761215a611ba7565b5b61216787828801611d4f565b945050602085013567ffffffffffffffff81111561218857612187611ba7565b5b61219487828801611d4f565b93505060406121a587828801611d9e565b92505060606121b687828801611bf5565b91505092959194509250565b600082825260208201905092915050565b7f4f6e6c79206f776e65722063616e207570677261646500000000000000000000600082015250565b60006122096016836121c2565b9150612214826121d3565b602082019050919050565b60006020820190508181036000830152612238816121fc565b9050919050565b7f4e657720636f6e747261637420616464726573732063616e6e6f742062652030600082015250565b60006122756020836121c2565b91506122808261223f565b602082019050919050565b600060208201905081810360008301526122a481612268565b9050919050565b7f436f6e7472616374206e6f742075706772616465640000000000000000000000600082015250565b60006122e16015836121c2565b91506122ec826122ab565b602082019050919050565b60006020820190508181036000830152612310816122d4565b9050919050565b600081519050919050565b60005b83811015612340578082015181840152602081019050612325565b60008484015250505050565b600061235782612317565b61236181856121c2565b9350612371818560208601612322565b61237a81611c41565b840191505092915050565b6000604082019050818103600083015261239f818561234c565b90506123ae6020830184611e0f565b9392505050565b600080fd5b600080fd5b6000815190506123ce81611bde565b92915050565b6000815190506123e381611d87565b92915050565b60006123fc6123f784611ccd565b611cb2565b90508281526020810184848401111561241857612417611c3c565b5b612423848285612322565b509392505050565b600082601f8301126124405761243f611c37565b5b81516124508482602086016123e9565b91505092915050565b60006060828403121561246f5761246e6123b5565b5b6124796060611cb2565b90506000612489848285016123bf565b600083015250602061249d848285016123d4565b602083015250604082015167ffffffffffffffff8111156124c1576124c06123ba565b5b6124cd8482850161242b565b60408301525092915050565b6000602082840312156124ef576124ee611ba2565b5b600082015167ffffffffffffffff81111561250d5761250c611ba7565b5b61251984828501612459565b91505092915050565b60006040820190506125376000830185611fd3565b8181036020830152612549818461234c565b90509392505050565b60006020828403121561256857612567611ba2565b5b6000612576848285016123d4565b91505092915050565b60006020820190508181036000830152612599818461234c565b905092915050565b7f4e487b7100000000000000000000000000000000000000000000000000000000600052602160045260246000fd5b600481106125e1576125e06125a1565b5b50565b60008190506125f2826125d0565b919050565b6000612602826125e4565b9050919050565b612612816125f7565b82525050565b600060a0820190508181036000830152612632818861234c565b90508181036020830152612646818761234c565b90506126556040830186612609565b6126626060830185611e0f565b61266f6080830184611fd3565b9695505050505050565b61268281611f5a565b82525050565b600060408201905061269d6000830185611fd3565b6126aa6020830184612679565b9392505050565b6000819050919050565b6126c4816126b1565b81146126cf57600080fd5b50565b6000815190506126e1816126bb565b92915050565b600681106126f457600080fd5b50565b600081519050612706816126e7565b92915050565b60008151905061271b81611e82565b92915050565b600060808284031215612737576127366123b5565b5b6127416080611cb2565b90506000612751848285016126d2565b600083015250602082015167ffffffffffffffff811115612775576127746123ba565b5b6127818482850161242b565b6020830152506040612795848285016126f7565b60408301525060606127a98482850161270c565b60608301525092915050565b6000602082840312156127cb576127ca611ba2565b5b600082015167ffffffffffffffff8111156127e9576127e8611ba7565b5b6127f584828501612721565b91505092915050565b60006020828403121561281457612813611ba2565b5b6000612822848285016123bf565b91505092915050565b6004811061283c5761283b6125a1565b5b50565b600081905061284d8261282b565b919050565b600061285d8261283f565b9050919050565b61286d81612852565b82525050565b6000604082019050818103600083015261288d818561234c565b905061289c6020830184612864565b9392505050565b6128ac8161207e565b82525050565b60006040820190506128c76000830185611fd3565b6128d460208301846128a3565b9392505050565b60006020820190506128f06000830184612679565b92915050565b60006080820190508181036000830152612910818761234c565b90508181036020830152612924818661234c565b90506129336040830185611e0f565b6129406060830184611fd3565b9594505050505056fea26469706673582212207aee034071ebf89ca81872bc3f697ea28bca96157c8f7f69a599ebbe77034ec264736f6c634300081c0033",
  "linkReferences": {},
  "deployedLinkReferences": {}
}